{
	"contracts/Petition.sol": {
		"Petition": {
			"abi": [
				{
					"inputs": [],
					"stateMutability": "nonpayable",
					"type": "constructor"
				},
				{
					"inputs": [
						{
							"internalType": "uint256",
							"name": "_id",
							"type": "uint256"
						}
					],
					"name": "getNames",
					"outputs": [
						{
							"internalType": "string",
							"name": "",
							"type": "string"
						}
					],
					"stateMutability": "view",
					"type": "function"
				},
				{
					"inputs": [],
					"name": "isPetitionFull",
					"outputs": [
						{
							"internalType": "bool",
							"name": "",
							"type": "bool"
						}
					],
					"stateMutability": "view",
					"type": "function"
				},
				{
					"inputs": [],
					"name": "nameCount",
					"outputs": [
						{
							"internalType": "uint256",
							"name": "",
							"type": "uint256"
						}
					],
					"stateMutability": "view",
					"type": "function"
				},
				{
					"inputs": [
						{
							"internalType": "string",
							"name": "_name",
							"type": "string"
						}
					],
					"name": "registerName",
					"outputs": [],
					"stateMutability": "nonpayable",
					"type": "function"
				}
			],
			"devdoc": {
				"kind": "dev",
				"methods": {},
				"version": 1
			},
			"evm": {
				"assembly": "    /* \"contracts/Petition.sol\":65:838  contract Petition {... */\n  mstore(0x40, 0x80)\n    /* \"contracts/Petition.sol\":142:186  constructor() {... */\n  callvalue\n  dup1\n  iszero\n  tag_1\n  jumpi\n  revert(0x00, 0x00)\ntag_1:\n  pop\n    /* \"contracts/Petition.sol\":178:179  0 */\n  0x00\n    /* \"contracts/Petition.sol\":166:175  nameCount */\n  0x03\n    /* \"contracts/Petition.sol\":166:179  nameCount = 0 */\n  dup2\n  swap1\n  sstore\n  pop\n    /* \"contracts/Petition.sol\":65:838  contract Petition {... */\n  dataSize(sub_0)\n  dup1\n  dataOffset(sub_0)\n  0x00\n  codecopy\n  0x00\n  return\nstop\n\nsub_0: assembly {\n        /* \"contracts/Petition.sol\":65:838  contract Petition {... */\n      mstore(0x40, 0x80)\n      callvalue\n      dup1\n      iszero\n      tag_1\n      jumpi\n      revert(0x00, 0x00)\n    tag_1:\n      pop\n      jumpi(tag_2, lt(calldatasize, 0x04))\n      shr(0xe0, calldataload(0x00))\n      dup1\n      0x0830602b\n      eq\n      tag_3\n      jumpi\n      dup1\n      0x5718e17b\n      eq\n      tag_4\n      jumpi\n      dup1\n      0x66f188b8\n      eq\n      tag_5\n      jumpi\n      dup1\n      0x73ff93a2\n      eq\n      tag_6\n      jumpi\n    tag_2:\n      revert(0x00, 0x00)\n        /* \"contracts/Petition.sol\":192:351  function registerName(string memory _name) public {... */\n    tag_3:\n      tag_7\n      0x04\n      dup1\n      calldatasize\n      sub\n      dup2\n      add\n      swap1\n      tag_8\n      swap2\n      swap1\n      tag_9\n      jump\t// in\n    tag_8:\n      tag_10\n      jump\t// in\n    tag_7:\n      stop\n        /* \"contracts/Petition.sol\":558:739  function getNames(uint256 _id) public view returns (string memory) {... */\n    tag_4:\n      tag_11\n      0x04\n      dup1\n      calldatasize\n      sub\n      dup2\n      add\n      swap1\n      tag_12\n      swap2\n      swap1\n      tag_13\n      jump\t// in\n    tag_12:\n      tag_14\n      jump\t// in\n    tag_11:\n      mload(0x40)\n      tag_15\n      swap2\n      swap1\n      tag_16\n      jump\t// in\n    tag_15:\n      mload(0x40)\n      dup1\n      swap2\n      sub\n      swap1\n      return\n        /* \"contracts/Petition.sol\":745:836  function isPetitionFull() public view returns (bool) {... */\n    tag_5:\n      tag_17\n      tag_18\n      jump\t// in\n    tag_17:\n      mload(0x40)\n      tag_19\n      swap2\n      swap1\n      tag_20\n      jump\t// in\n    tag_19:\n      mload(0x40)\n      dup1\n      swap2\n      sub\n      swap1\n      return\n        /* \"contracts/Petition.sol\":111:135  uint256 public nameCount */\n    tag_6:\n      tag_21\n      tag_22\n      jump\t// in\n    tag_21:\n      mload(0x40)\n      tag_23\n      swap2\n      swap1\n      tag_24\n      jump\t// in\n    tag_23:\n      mload(0x40)\n      dup1\n      swap2\n      sub\n      swap1\n      return\n        /* \"contracts/Petition.sol\":192:351  function registerName(string memory _name) public {... */\n    tag_10:\n        /* \"contracts/Petition.sol\":268:269  3 */\n      0x03\n        /* \"contracts/Petition.sol\":256:265  nameCount */\n      dup1\n      sload\n        /* \"contracts/Petition.sol\":256:269  nameCount < 3 */\n      lt\n        /* \"contracts/Petition.sol\":252:345  if (nameCount < 3) {... */\n      iszero\n      tag_26\n      jumpi\n        /* \"contracts/Petition.sol\":304:309  _name */\n      dup1\n        /* \"contracts/Petition.sol\":285:290  names */\n      0x00\n        /* \"contracts/Petition.sol\":291:300  nameCount */\n      sload(0x03)\n        /* \"contracts/Petition.sol\":285:301  names[nameCount] */\n      0x03\n      dup2\n      lt\n      tag_27\n      jumpi\n      tag_28\n      tag_29\n      jump\t// in\n    tag_28:\n    tag_27:\n      add\n        /* \"contracts/Petition.sol\":285:309  names[nameCount] = _name */\n      swap1\n      dup2\n      tag_31\n      swap2\n      swap1\n      tag_32\n      jump\t// in\n    tag_31:\n      pop\n        /* \"contracts/Petition.sol\":323:332  nameCount */\n      0x03\n      0x00\n        /* \"contracts/Petition.sol\":323:334  nameCount++ */\n      dup2\n      sload\n      dup1\n      swap3\n      swap2\n      swap1\n      tag_33\n      swap1\n      tag_34\n      jump\t// in\n    tag_33:\n      swap2\n      swap1\n      pop\n      sstore\n      pop\n        /* \"contracts/Petition.sol\":252:345  if (nameCount < 3) {... */\n    tag_26:\n        /* \"contracts/Petition.sol\":192:351  function registerName(string memory _name) public {... */\n      pop\n      jump\t// out\n        /* \"contracts/Petition.sol\":558:739  function getNames(uint256 _id) public view returns (string memory) {... */\n    tag_14:\n        /* \"contracts/Petition.sol\":610:623  string memory */\n      0x60\n        /* \"contracts/Petition.sol\":644:645  3 */\n      0x03\n        /* \"contracts/Petition.sol\":638:641  _id */\n      dup3\n        /* \"contracts/Petition.sol\":638:645  _id < 3 */\n      lt\n        /* \"contracts/Petition.sol\":635:688  if(_id < 3){... */\n      iszero\n      tag_36\n      jumpi\n        /* \"contracts/Petition.sol\":667:672  names */\n      0x00\n        /* \"contracts/Petition.sol\":673:676  _id */\n      dup3\n        /* \"contracts/Petition.sol\":667:677  names[_id] */\n      0x03\n      dup2\n      lt\n      tag_37\n      jumpi\n      tag_38\n      tag_29\n      jump\t// in\n    tag_38:\n    tag_37:\n      add\n        /* \"contracts/Petition.sol\":660:677  return names[_id] */\n      dup1\n      sload\n      tag_40\n      swap1\n      tag_41\n      jump\t// in\n    tag_40:\n      dup1\n      0x1f\n      add\n      0x20\n      dup1\n      swap2\n      div\n      mul\n      0x20\n      add\n      mload(0x40)\n      swap1\n      dup2\n      add\n      0x40\n      mstore\n      dup1\n      swap3\n      swap2\n      swap1\n      dup2\n      dup2\n      mstore\n      0x20\n      add\n      dup3\n      dup1\n      sload\n      tag_42\n      swap1\n      tag_41\n      jump\t// in\n    tag_42:\n      dup1\n      iszero\n      tag_43\n      jumpi\n      dup1\n      0x1f\n      lt\n      tag_44\n      jumpi\n      0x0100\n      dup1\n      dup4\n      sload\n      div\n      mul\n      dup4\n      mstore\n      swap2\n      0x20\n      add\n      swap2\n      jump(tag_43)\n    tag_44:\n      dup3\n      add\n      swap2\n      swap1\n      0x00\n      mstore\n      keccak256(0x00, 0x20)\n      swap1\n    tag_45:\n      dup2\n      sload\n      dup2\n      mstore\n      swap1\n      0x01\n      add\n      swap1\n      0x20\n      add\n      dup1\n      dup4\n      gt\n      tag_45\n      jumpi\n      dup3\n      swap1\n      sub\n      0x1f\n      and\n      dup3\n      add\n      swap2\n    tag_43:\n      pop\n      pop\n      pop\n      pop\n      pop\n      swap1\n      pop\n      jump(tag_35)\n        /* \"contracts/Petition.sol\":635:688  if(_id < 3){... */\n    tag_36:\n        /* \"contracts/Petition.sol\":697:732  return \"Error: index out of bounds\" */\n      mload(0x40)\n      dup1\n      0x40\n      add\n      0x40\n      mstore\n      dup1\n      0x1a\n      dup2\n      mstore\n      0x20\n      add\n      0x4572726f723a20696e646578206f7574206f6620626f756e6473000000000000\n      dup2\n      mstore\n      pop\n      swap1\n      pop\n        /* \"contracts/Petition.sol\":558:739  function getNames(uint256 _id) public view returns (string memory) {... */\n    tag_35:\n      swap2\n      swap1\n      pop\n      jump\t// out\n        /* \"contracts/Petition.sol\":745:836  function isPetitionFull() public view returns (bool) {... */\n    tag_18:\n        /* \"contracts/Petition.sol\":792:796  bool */\n      0x00\n        /* \"contracts/Petition.sol\":828:829  3 */\n      0x03\n        /* \"contracts/Petition.sol\":815:824  nameCount */\n      dup1\n      sload\n        /* \"contracts/Petition.sol\":815:829  nameCount >= 3 */\n      lt\n      iszero\n        /* \"contracts/Petition.sol\":808:829  return nameCount >= 3 */\n      swap1\n      pop\n        /* \"contracts/Petition.sol\":745:836  function isPetitionFull() public view returns (bool) {... */\n      swap1\n      jump\t// out\n        /* \"contracts/Petition.sol\":111:135  uint256 public nameCount */\n    tag_22:\n      sload(0x03)\n      dup2\n      jump\t// out\n        /* \"#utility.yul\":7:82   */\n    tag_47:\n        /* \"#utility.yul\":40:46   */\n      0x00\n        /* \"#utility.yul\":73:75   */\n      0x40\n        /* \"#utility.yul\":67:76   */\n      mload\n        /* \"#utility.yul\":57:76   */\n      swap1\n      pop\n        /* \"#utility.yul\":7:82   */\n      swap1\n      jump\t// out\n        /* \"#utility.yul\":88:205   */\n    tag_48:\n        /* \"#utility.yul\":197:198   */\n      0x00\n        /* \"#utility.yul\":194:195   */\n      0x00\n        /* \"#utility.yul\":187:199   */\n      revert\n        /* \"#utility.yul\":211:328   */\n    tag_49:\n        /* \"#utility.yul\":320:321   */\n      0x00\n        /* \"#utility.yul\":317:318   */\n      0x00\n        /* \"#utility.yul\":310:322   */\n      revert\n        /* \"#utility.yul\":334:451   */\n    tag_50:\n        /* \"#utility.yul\":443:444   */\n      0x00\n        /* \"#utility.yul\":440:441   */\n      0x00\n        /* \"#utility.yul\":433:445   */\n      revert\n        /* \"#utility.yul\":457:574   */\n    tag_51:\n        /* \"#utility.yul\":566:567   */\n      0x00\n        /* \"#utility.yul\":563:564   */\n      0x00\n        /* \"#utility.yul\":556:568   */\n      revert\n        /* \"#utility.yul\":580:682   */\n    tag_52:\n        /* \"#utility.yul\":621:627   */\n      0x00\n        /* \"#utility.yul\":672:674   */\n      0x1f\n        /* \"#utility.yul\":668:675   */\n      not\n        /* \"#utility.yul\":663:665   */\n      0x1f\n        /* \"#utility.yul\":656:661   */\n      dup4\n        /* \"#utility.yul\":652:666   */\n      add\n        /* \"#utility.yul\":648:676   */\n      and\n        /* \"#utility.yul\":638:676   */\n      swap1\n      pop\n        /* \"#utility.yul\":580:682   */\n      swap2\n      swap1\n      pop\n      jump\t// out\n        /* \"#utility.yul\":688:868   */\n    tag_53:\n        /* \"#utility.yul\":736:813   */\n      0x4e487b7100000000000000000000000000000000000000000000000000000000\n        /* \"#utility.yul\":733:734   */\n      0x00\n        /* \"#utility.yul\":726:814   */\n      mstore\n        /* \"#utility.yul\":833:837   */\n      0x41\n        /* \"#utility.yul\":830:831   */\n      0x04\n        /* \"#utility.yul\":823:838   */\n      mstore\n        /* \"#utility.yul\":857:861   */\n      0x24\n        /* \"#utility.yul\":854:855   */\n      0x00\n        /* \"#utility.yul\":847:862   */\n      revert\n        /* \"#utility.yul\":874:1155   */\n    tag_54:\n        /* \"#utility.yul\":957:984   */\n      tag_96\n        /* \"#utility.yul\":979:983   */\n      dup3\n        /* \"#utility.yul\":957:984   */\n      tag_52\n      jump\t// in\n    tag_96:\n        /* \"#utility.yul\":949:955   */\n      dup2\n        /* \"#utility.yul\":945:985   */\n      add\n        /* \"#utility.yul\":1087:1093   */\n      dup2\n        /* \"#utility.yul\":1075:1085   */\n      dup2\n        /* \"#utility.yul\":1072:1094   */\n      lt\n        /* \"#utility.yul\":1051:1069   */\n      0xffffffffffffffff\n        /* \"#utility.yul\":1039:1049   */\n      dup3\n        /* \"#utility.yul\":1036:1070   */\n      gt\n        /* \"#utility.yul\":1033:1095   */\n      or\n        /* \"#utility.yul\":1030:1118   */\n      iszero\n      tag_97\n      jumpi\n        /* \"#utility.yul\":1098:1116   */\n      tag_98\n      tag_53\n      jump\t// in\n    tag_98:\n        /* \"#utility.yul\":1030:1118   */\n    tag_97:\n        /* \"#utility.yul\":1138:1148   */\n      dup1\n        /* \"#utility.yul\":1134:1136   */\n      0x40\n        /* \"#utility.yul\":1127:1149   */\n      mstore\n        /* \"#utility.yul\":917:1155   */\n      pop\n        /* \"#utility.yul\":874:1155   */\n      pop\n      pop\n      jump\t// out\n        /* \"#utility.yul\":1161:1290   */\n    tag_55:\n        /* \"#utility.yul\":1195:1201   */\n      0x00\n        /* \"#utility.yul\":1222:1242   */\n      tag_100\n      tag_47\n      jump\t// in\n    tag_100:\n        /* \"#utility.yul\":1212:1242   */\n      swap1\n      pop\n        /* \"#utility.yul\":1251:1284   */\n      tag_101\n        /* \"#utility.yul\":1279:1283   */\n      dup3\n        /* \"#utility.yul\":1271:1277   */\n      dup3\n        /* \"#utility.yul\":1251:1284   */\n      tag_54\n      jump\t// in\n    tag_101:\n        /* \"#utility.yul\":1161:1290   */\n      swap2\n      swap1\n      pop\n      jump\t// out\n        /* \"#utility.yul\":1296:1604   */\n    tag_56:\n        /* \"#utility.yul\":1358:1362   */\n      0x00\n        /* \"#utility.yul\":1448:1466   */\n      0xffffffffffffffff\n        /* \"#utility.yul\":1440:1446   */\n      dup3\n        /* \"#utility.yul\":1437:1467   */\n      gt\n        /* \"#utility.yul\":1434:1490   */\n      iszero\n      tag_103\n      jumpi\n        /* \"#utility.yul\":1470:1488   */\n      tag_104\n      tag_53\n      jump\t// in\n    tag_104:\n        /* \"#utility.yul\":1434:1490   */\n    tag_103:\n        /* \"#utility.yul\":1508:1537   */\n      tag_105\n        /* \"#utility.yul\":1530:1536   */\n      dup3\n        /* \"#utility.yul\":1508:1537   */\n      tag_52\n      jump\t// in\n    tag_105:\n        /* \"#utility.yul\":1500:1537   */\n      swap1\n      pop\n        /* \"#utility.yul\":1592:1596   */\n      0x20\n        /* \"#utility.yul\":1586:1590   */\n      dup2\n        /* \"#utility.yul\":1582:1597   */\n      add\n        /* \"#utility.yul\":1574:1597   */\n      swap1\n      pop\n        /* \"#utility.yul\":1296:1604   */\n      swap2\n      swap1\n      pop\n      jump\t// out\n        /* \"#utility.yul\":1610:1758   */\n    tag_57:\n        /* \"#utility.yul\":1708:1714   */\n      dup3\n        /* \"#utility.yul\":1703:1706   */\n      dup2\n        /* \"#utility.yul\":1698:1701   */\n      dup4\n        /* \"#utility.yul\":1685:1715   */\n      calldatacopy\n        /* \"#utility.yul\":1749:1750   */\n      0x00\n        /* \"#utility.yul\":1740:1746   */\n      dup4\n        /* \"#utility.yul\":1735:1738   */\n      dup4\n        /* \"#utility.yul\":1731:1747   */\n      add\n        /* \"#utility.yul\":1724:1751   */\n      mstore\n        /* \"#utility.yul\":1610:1758   */\n      pop\n      pop\n      pop\n      jump\t// out\n        /* \"#utility.yul\":1764:2189   */\n    tag_58:\n        /* \"#utility.yul\":1842:1847   */\n      0x00\n        /* \"#utility.yul\":1867:1933   */\n      tag_108\n        /* \"#utility.yul\":1883:1932   */\n      tag_109\n        /* \"#utility.yul\":1925:1931   */\n      dup5\n        /* \"#utility.yul\":1883:1932   */\n      tag_56\n      jump\t// in\n    tag_109:\n        /* \"#utility.yul\":1867:1933   */\n      tag_55\n      jump\t// in\n    tag_108:\n        /* \"#utility.yul\":1858:1933   */\n      swap1\n      pop\n        /* \"#utility.yul\":1956:1962   */\n      dup3\n        /* \"#utility.yul\":1949:1954   */\n      dup2\n        /* \"#utility.yul\":1942:1963   */\n      mstore\n        /* \"#utility.yul\":1994:1998   */\n      0x20\n        /* \"#utility.yul\":1987:1992   */\n      dup2\n        /* \"#utility.yul\":1983:1999   */\n      add\n        /* \"#utility.yul\":2032:2035   */\n      dup5\n        /* \"#utility.yul\":2023:2029   */\n      dup5\n        /* \"#utility.yul\":2018:2021   */\n      dup5\n        /* \"#utility.yul\":2014:2030   */\n      add\n        /* \"#utility.yul\":2011:2036   */\n      gt\n        /* \"#utility.yul\":2008:2120   */\n      iszero\n      tag_110\n      jumpi\n        /* \"#utility.yul\":2039:2118   */\n      tag_111\n      tag_51\n      jump\t// in\n    tag_111:\n        /* \"#utility.yul\":2008:2120   */\n    tag_110:\n        /* \"#utility.yul\":2129:2183   */\n      tag_112\n        /* \"#utility.yul\":2176:2182   */\n      dup5\n        /* \"#utility.yul\":2171:2174   */\n      dup3\n        /* \"#utility.yul\":2166:2169   */\n      dup6\n        /* \"#utility.yul\":2129:2183   */\n      tag_57\n      jump\t// in\n    tag_112:\n        /* \"#utility.yul\":1848:2189   */\n      pop\n        /* \"#utility.yul\":1764:2189   */\n      swap4\n      swap3\n      pop\n      pop\n      pop\n      jump\t// out\n        /* \"#utility.yul\":2209:2549   */\n    tag_59:\n        /* \"#utility.yul\":2265:2270   */\n      0x00\n        /* \"#utility.yul\":2314:2317   */\n      dup3\n        /* \"#utility.yul\":2307:2311   */\n      0x1f\n        /* \"#utility.yul\":2299:2305   */\n      dup4\n        /* \"#utility.yul\":2295:2312   */\n      add\n        /* \"#utility.yul\":2291:2318   */\n      slt\n        /* \"#utility.yul\":2281:2403   */\n      tag_114\n      jumpi\n        /* \"#utility.yul\":2322:2401   */\n      tag_115\n      tag_50\n      jump\t// in\n    tag_115:\n        /* \"#utility.yul\":2281:2403   */\n    tag_114:\n        /* \"#utility.yul\":2439:2445   */\n      dup2\n        /* \"#utility.yul\":2426:2446   */\n      calldataload\n        /* \"#utility.yul\":2464:2543   */\n      tag_116\n        /* \"#utility.yul\":2539:2542   */\n      dup5\n        /* \"#utility.yul\":2531:2537   */\n      dup3\n        /* \"#utility.yul\":2524:2528   */\n      0x20\n        /* \"#utility.yul\":2516:2522   */\n      dup7\n        /* \"#utility.yul\":2512:2529   */\n      add\n        /* \"#utility.yul\":2464:2543   */\n      tag_58\n      jump\t// in\n    tag_116:\n        /* \"#utility.yul\":2455:2543   */\n      swap2\n      pop\n        /* \"#utility.yul\":2271:2549   */\n      pop\n        /* \"#utility.yul\":2209:2549   */\n      swap3\n      swap2\n      pop\n      pop\n      jump\t// out\n        /* \"#utility.yul\":2555:3064   */\n    tag_9:\n        /* \"#utility.yul\":2624:2630   */\n      0x00\n        /* \"#utility.yul\":2673:2675   */\n      0x20\n        /* \"#utility.yul\":2661:2670   */\n      dup3\n        /* \"#utility.yul\":2652:2659   */\n      dup5\n        /* \"#utility.yul\":2648:2671   */\n      sub\n        /* \"#utility.yul\":2644:2676   */\n      slt\n        /* \"#utility.yul\":2641:2760   */\n      iszero\n      tag_118\n      jumpi\n        /* \"#utility.yul\":2679:2758   */\n      tag_119\n      tag_48\n      jump\t// in\n    tag_119:\n        /* \"#utility.yul\":2641:2760   */\n    tag_118:\n        /* \"#utility.yul\":2827:2828   */\n      0x00\n        /* \"#utility.yul\":2816:2825   */\n      dup3\n        /* \"#utility.yul\":2812:2829   */\n      add\n        /* \"#utility.yul\":2799:2830   */\n      calldataload\n        /* \"#utility.yul\":2857:2875   */\n      0xffffffffffffffff\n        /* \"#utility.yul\":2849:2855   */\n      dup2\n        /* \"#utility.yul\":2846:2876   */\n      gt\n        /* \"#utility.yul\":2843:2960   */\n      iszero\n      tag_120\n      jumpi\n        /* \"#utility.yul\":2879:2958   */\n      tag_121\n      tag_49\n      jump\t// in\n    tag_121:\n        /* \"#utility.yul\":2843:2960   */\n    tag_120:\n        /* \"#utility.yul\":2984:3047   */\n      tag_122\n        /* \"#utility.yul\":3039:3046   */\n      dup5\n        /* \"#utility.yul\":3030:3036   */\n      dup3\n        /* \"#utility.yul\":3019:3028   */\n      dup6\n        /* \"#utility.yul\":3015:3037   */\n      add\n        /* \"#utility.yul\":2984:3047   */\n      tag_59\n      jump\t// in\n    tag_122:\n        /* \"#utility.yul\":2974:3047   */\n      swap2\n      pop\n        /* \"#utility.yul\":2770:3057   */\n      pop\n        /* \"#utility.yul\":2555:3064   */\n      swap3\n      swap2\n      pop\n      pop\n      jump\t// out\n        /* \"#utility.yul\":3070:3147   */\n    tag_60:\n        /* \"#utility.yul\":3107:3114   */\n      0x00\n        /* \"#utility.yul\":3136:3141   */\n      dup2\n        /* \"#utility.yul\":3125:3141   */\n      swap1\n      pop\n        /* \"#utility.yul\":3070:3147   */\n      swap2\n      swap1\n      pop\n      jump\t// out\n        /* \"#utility.yul\":3153:3275   */\n    tag_61:\n        /* \"#utility.yul\":3226:3250   */\n      tag_125\n        /* \"#utility.yul\":3244:3249   */\n      dup2\n        /* \"#utility.yul\":3226:3250   */\n      tag_60\n      jump\t// in\n    tag_125:\n        /* \"#utility.yul\":3219:3224   */\n      dup2\n        /* \"#utility.yul\":3216:3251   */\n      eq\n        /* \"#utility.yul\":3206:3269   */\n      tag_126\n      jumpi\n        /* \"#utility.yul\":3265:3266   */\n      0x00\n        /* \"#utility.yul\":3262:3263   */\n      0x00\n        /* \"#utility.yul\":3255:3267   */\n      revert\n        /* \"#utility.yul\":3206:3269   */\n    tag_126:\n        /* \"#utility.yul\":3153:3275   */\n      pop\n      jump\t// out\n        /* \"#utility.yul\":3281:3420   */\n    tag_62:\n        /* \"#utility.yul\":3327:3332   */\n      0x00\n        /* \"#utility.yul\":3365:3371   */\n      dup2\n        /* \"#utility.yul\":3352:3372   */\n      calldataload\n        /* \"#utility.yul\":3343:3372   */\n      swap1\n      pop\n        /* \"#utility.yul\":3381:3414   */\n      tag_128\n        /* \"#utility.yul\":3408:3413   */\n      dup2\n        /* \"#utility.yul\":3381:3414   */\n      tag_61\n      jump\t// in\n    tag_128:\n        /* \"#utility.yul\":3281:3420   */\n      swap3\n      swap2\n      pop\n      pop\n      jump\t// out\n        /* \"#utility.yul\":3426:3755   */\n    tag_13:\n        /* \"#utility.yul\":3485:3491   */\n      0x00\n        /* \"#utility.yul\":3534:3536   */\n      0x20\n        /* \"#utility.yul\":3522:3531   */\n      dup3\n        /* \"#utility.yul\":3513:3520   */\n      dup5\n        /* \"#utility.yul\":3509:3532   */\n      sub\n        /* \"#utility.yul\":3505:3537   */\n      slt\n        /* \"#utility.yul\":3502:3621   */\n      iszero\n      tag_130\n      jumpi\n        /* \"#utility.yul\":3540:3619   */\n      tag_131\n      tag_48\n      jump\t// in\n    tag_131:\n        /* \"#utility.yul\":3502:3621   */\n    tag_130:\n        /* \"#utility.yul\":3660:3661   */\n      0x00\n        /* \"#utility.yul\":3685:3738   */\n      tag_132\n        /* \"#utility.yul\":3730:3737   */\n      dup5\n        /* \"#utility.yul\":3721:3727   */\n      dup3\n        /* \"#utility.yul\":3710:3719   */\n      dup6\n        /* \"#utility.yul\":3706:3728   */\n      add\n        /* \"#utility.yul\":3685:3738   */\n      tag_62\n      jump\t// in\n    tag_132:\n        /* \"#utility.yul\":3675:3738   */\n      swap2\n      pop\n        /* \"#utility.yul\":3631:3748   */\n      pop\n        /* \"#utility.yul\":3426:3755   */\n      swap3\n      swap2\n      pop\n      pop\n      jump\t// out\n        /* \"#utility.yul\":3761:3860   */\n    tag_63:\n        /* \"#utility.yul\":3813:3819   */\n      0x00\n        /* \"#utility.yul\":3847:3852   */\n      dup2\n        /* \"#utility.yul\":3841:3853   */\n      mload\n        /* \"#utility.yul\":3831:3853   */\n      swap1\n      pop\n        /* \"#utility.yul\":3761:3860   */\n      swap2\n      swap1\n      pop\n      jump\t// out\n        /* \"#utility.yul\":3866:4035   */\n    tag_64:\n        /* \"#utility.yul\":3950:3961   */\n      0x00\n        /* \"#utility.yul\":3984:3990   */\n      dup3\n        /* \"#utility.yul\":3979:3982   */\n      dup3\n        /* \"#utility.yul\":3972:3991   */\n      mstore\n        /* \"#utility.yul\":4024:4028   */\n      0x20\n        /* \"#utility.yul\":4019:4022   */\n      dup3\n        /* \"#utility.yul\":4015:4029   */\n      add\n        /* \"#utility.yul\":4000:4029   */\n      swap1\n      pop\n        /* \"#utility.yul\":3866:4035   */\n      swap3\n      swap2\n      pop\n      pop\n      jump\t// out\n        /* \"#utility.yul\":4041:4180   */\n    tag_65:\n        /* \"#utility.yul\":4130:4136   */\n      dup3\n        /* \"#utility.yul\":4125:4128   */\n      dup2\n        /* \"#utility.yul\":4120:4123   */\n      dup4\n        /* \"#utility.yul\":4114:4137   */\n      mcopy\n        /* \"#utility.yul\":4171:4172   */\n      0x00\n        /* \"#utility.yul\":4162:4168   */\n      dup4\n        /* \"#utility.yul\":4157:4160   */\n      dup4\n        /* \"#utility.yul\":4153:4169   */\n      add\n        /* \"#utility.yul\":4146:4173   */\n      mstore\n        /* \"#utility.yul\":4041:4180   */\n      pop\n      pop\n      pop\n      jump\t// out\n        /* \"#utility.yul\":4186:4563   */\n    tag_66:\n        /* \"#utility.yul\":4274:4277   */\n      0x00\n        /* \"#utility.yul\":4302:4341   */\n      tag_137\n        /* \"#utility.yul\":4335:4340   */\n      dup3\n        /* \"#utility.yul\":4302:4341   */\n      tag_63\n      jump\t// in\n    tag_137:\n        /* \"#utility.yul\":4357:4428   */\n      tag_138\n        /* \"#utility.yul\":4421:4427   */\n      dup2\n        /* \"#utility.yul\":4416:4419   */\n      dup6\n        /* \"#utility.yul\":4357:4428   */\n      tag_64\n      jump\t// in\n    tag_138:\n        /* \"#utility.yul\":4350:4428   */\n      swap4\n      pop\n        /* \"#utility.yul\":4437:4502   */\n      tag_139\n        /* \"#utility.yul\":4495:4501   */\n      dup2\n        /* \"#utility.yul\":4490:4493   */\n      dup6\n        /* \"#utility.yul\":4483:4487   */\n      0x20\n        /* \"#utility.yul\":4476:4481   */\n      dup7\n        /* \"#utility.yul\":4472:4488   */\n      add\n        /* \"#utility.yul\":4437:4502   */\n      tag_65\n      jump\t// in\n    tag_139:\n        /* \"#utility.yul\":4527:4556   */\n      tag_140\n        /* \"#utility.yul\":4549:4555   */\n      dup2\n        /* \"#utility.yul\":4527:4556   */\n      tag_52\n      jump\t// in\n    tag_140:\n        /* \"#utility.yul\":4522:4525   */\n      dup5\n        /* \"#utility.yul\":4518:4557   */\n      add\n        /* \"#utility.yul\":4511:4557   */\n      swap2\n      pop\n        /* \"#utility.yul\":4278:4563   */\n      pop\n        /* \"#utility.yul\":4186:4563   */\n      swap3\n      swap2\n      pop\n      pop\n      jump\t// out\n        /* \"#utility.yul\":4569:4882   */\n    tag_16:\n        /* \"#utility.yul\":4682:4686   */\n      0x00\n        /* \"#utility.yul\":4720:4722   */\n      0x20\n        /* \"#utility.yul\":4709:4718   */\n      dup3\n        /* \"#utility.yul\":4705:4723   */\n      add\n        /* \"#utility.yul\":4697:4723   */\n      swap1\n      pop\n        /* \"#utility.yul\":4769:4778   */\n      dup2\n        /* \"#utility.yul\":4763:4767   */\n      dup2\n        /* \"#utility.yul\":4759:4779   */\n      sub\n        /* \"#utility.yul\":4755:4756   */\n      0x00\n        /* \"#utility.yul\":4744:4753   */\n      dup4\n        /* \"#utility.yul\":4740:4757   */\n      add\n        /* \"#utility.yul\":4733:4780   */\n      mstore\n        /* \"#utility.yul\":4797:4875   */\n      tag_142\n        /* \"#utility.yul\":4870:4874   */\n      dup2\n        /* \"#utility.yul\":4861:4867   */\n      dup5\n        /* \"#utility.yul\":4797:4875   */\n      tag_66\n      jump\t// in\n    tag_142:\n        /* \"#utility.yul\":4789:4875   */\n      swap1\n      pop\n        /* \"#utility.yul\":4569:4882   */\n      swap3\n      swap2\n      pop\n      pop\n      jump\t// out\n        /* \"#utility.yul\":4888:4978   */\n    tag_67:\n        /* \"#utility.yul\":4922:4929   */\n      0x00\n        /* \"#utility.yul\":4965:4970   */\n      dup2\n        /* \"#utility.yul\":4958:4971   */\n      iszero\n        /* \"#utility.yul\":4951:4972   */\n      iszero\n        /* \"#utility.yul\":4940:4972   */\n      swap1\n      pop\n        /* \"#utility.yul\":4888:4978   */\n      swap2\n      swap1\n      pop\n      jump\t// out\n        /* \"#utility.yul\":4984:5093   */\n    tag_68:\n        /* \"#utility.yul\":5065:5086   */\n      tag_145\n        /* \"#utility.yul\":5080:5085   */\n      dup2\n        /* \"#utility.yul\":5065:5086   */\n      tag_67\n      jump\t// in\n    tag_145:\n        /* \"#utility.yul\":5060:5063   */\n      dup3\n        /* \"#utility.yul\":5053:5087   */\n      mstore\n        /* \"#utility.yul\":4984:5093   */\n      pop\n      pop\n      jump\t// out\n        /* \"#utility.yul\":5099:5309   */\n    tag_20:\n        /* \"#utility.yul\":5186:5190   */\n      0x00\n        /* \"#utility.yul\":5224:5226   */\n      0x20\n        /* \"#utility.yul\":5213:5222   */\n      dup3\n        /* \"#utility.yul\":5209:5227   */\n      add\n        /* \"#utility.yul\":5201:5227   */\n      swap1\n      pop\n        /* \"#utility.yul\":5237:5302   */\n      tag_147\n        /* \"#utility.yul\":5299:5300   */\n      0x00\n        /* \"#utility.yul\":5288:5297   */\n      dup4\n        /* \"#utility.yul\":5284:5301   */\n      add\n        /* \"#utility.yul\":5275:5281   */\n      dup5\n        /* \"#utility.yul\":5237:5302   */\n      tag_68\n      jump\t// in\n    tag_147:\n        /* \"#utility.yul\":5099:5309   */\n      swap3\n      swap2\n      pop\n      pop\n      jump\t// out\n        /* \"#utility.yul\":5315:5433   */\n    tag_69:\n        /* \"#utility.yul\":5402:5426   */\n      tag_149\n        /* \"#utility.yul\":5420:5425   */\n      dup2\n        /* \"#utility.yul\":5402:5426   */\n      tag_60\n      jump\t// in\n    tag_149:\n        /* \"#utility.yul\":5397:5400   */\n      dup3\n        /* \"#utility.yul\":5390:5427   */\n      mstore\n        /* \"#utility.yul\":5315:5433   */\n      pop\n      pop\n      jump\t// out\n        /* \"#utility.yul\":5439:5661   */\n    tag_24:\n        /* \"#utility.yul\":5532:5536   */\n      0x00\n        /* \"#utility.yul\":5570:5572   */\n      0x20\n        /* \"#utility.yul\":5559:5568   */\n      dup3\n        /* \"#utility.yul\":5555:5573   */\n      add\n        /* \"#utility.yul\":5547:5573   */\n      swap1\n      pop\n        /* \"#utility.yul\":5583:5654   */\n      tag_151\n        /* \"#utility.yul\":5651:5652   */\n      0x00\n        /* \"#utility.yul\":5640:5649   */\n      dup4\n        /* \"#utility.yul\":5636:5653   */\n      add\n        /* \"#utility.yul\":5627:5633   */\n      dup5\n        /* \"#utility.yul\":5583:5654   */\n      tag_69\n      jump\t// in\n    tag_151:\n        /* \"#utility.yul\":5439:5661   */\n      swap3\n      swap2\n      pop\n      pop\n      jump\t// out\n        /* \"#utility.yul\":5667:5847   */\n    tag_29:\n        /* \"#utility.yul\":5715:5792   */\n      0x4e487b7100000000000000000000000000000000000000000000000000000000\n        /* \"#utility.yul\":5712:5713   */\n      0x00\n        /* \"#utility.yul\":5705:5793   */\n      mstore\n        /* \"#utility.yul\":5812:5816   */\n      0x32\n        /* \"#utility.yul\":5809:5810   */\n      0x04\n        /* \"#utility.yul\":5802:5817   */\n      mstore\n        /* \"#utility.yul\":5836:5840   */\n      0x24\n        /* \"#utility.yul\":5833:5834   */\n      0x00\n        /* \"#utility.yul\":5826:5841   */\n      revert\n        /* \"#utility.yul\":5853:6033   */\n    tag_70:\n        /* \"#utility.yul\":5901:5978   */\n      0x4e487b7100000000000000000000000000000000000000000000000000000000\n        /* \"#utility.yul\":5898:5899   */\n      0x00\n        /* \"#utility.yul\":5891:5979   */\n      mstore\n        /* \"#utility.yul\":5998:6002   */\n      0x22\n        /* \"#utility.yul\":5995:5996   */\n      0x04\n        /* \"#utility.yul\":5988:6003   */\n      mstore\n        /* \"#utility.yul\":6022:6026   */\n      0x24\n        /* \"#utility.yul\":6019:6020   */\n      0x00\n        /* \"#utility.yul\":6012:6027   */\n      revert\n        /* \"#utility.yul\":6039:6359   */\n    tag_41:\n        /* \"#utility.yul\":6083:6089   */\n      0x00\n        /* \"#utility.yul\":6120:6121   */\n      0x02\n        /* \"#utility.yul\":6114:6118   */\n      dup3\n        /* \"#utility.yul\":6110:6122   */\n      div\n        /* \"#utility.yul\":6100:6122   */\n      swap1\n      pop\n        /* \"#utility.yul\":6167:6168   */\n      0x01\n        /* \"#utility.yul\":6161:6165   */\n      dup3\n        /* \"#utility.yul\":6157:6169   */\n      and\n        /* \"#utility.yul\":6188:6206   */\n      dup1\n        /* \"#utility.yul\":6178:6259   */\n      tag_155\n      jumpi\n        /* \"#utility.yul\":6244:6248   */\n      0x7f\n        /* \"#utility.yul\":6236:6242   */\n      dup3\n        /* \"#utility.yul\":6232:6249   */\n      and\n        /* \"#utility.yul\":6222:6249   */\n      swap2\n      pop\n        /* \"#utility.yul\":6178:6259   */\n    tag_155:\n        /* \"#utility.yul\":6306:6308   */\n      0x20\n        /* \"#utility.yul\":6298:6304   */\n      dup3\n        /* \"#utility.yul\":6295:6309   */\n      lt\n        /* \"#utility.yul\":6275:6293   */\n      dup2\n        /* \"#utility.yul\":6272:6310   */\n      sub\n        /* \"#utility.yul\":6269:6353   */\n      tag_156\n      jumpi\n        /* \"#utility.yul\":6325:6343   */\n      tag_157\n      tag_70\n      jump\t// in\n    tag_157:\n        /* \"#utility.yul\":6269:6353   */\n    tag_156:\n        /* \"#utility.yul\":6090:6359   */\n      pop\n        /* \"#utility.yul\":6039:6359   */\n      swap2\n      swap1\n      pop\n      jump\t// out\n        /* \"#utility.yul\":6365:6506   */\n    tag_71:\n        /* \"#utility.yul\":6414:6418   */\n      0x00\n        /* \"#utility.yul\":6437:6440   */\n      dup2\n        /* \"#utility.yul\":6429:6440   */\n      swap1\n      pop\n        /* \"#utility.yul\":6460:6463   */\n      dup2\n        /* \"#utility.yul\":6457:6458   */\n      0x00\n        /* \"#utility.yul\":6450:6464   */\n      mstore\n        /* \"#utility.yul\":6494:6498   */\n      0x20\n        /* \"#utility.yul\":6491:6492   */\n      0x00\n        /* \"#utility.yul\":6481:6499   */\n      keccak256\n        /* \"#utility.yul\":6473:6499   */\n      swap1\n      pop\n        /* \"#utility.yul\":6365:6506   */\n      swap2\n      swap1\n      pop\n      jump\t// out\n        /* \"#utility.yul\":6512:6605   */\n    tag_72:\n        /* \"#utility.yul\":6549:6555   */\n      0x00\n        /* \"#utility.yul\":6596:6598   */\n      0x20\n        /* \"#utility.yul\":6591:6593   */\n      0x1f\n        /* \"#utility.yul\":6584:6589   */\n      dup4\n        /* \"#utility.yul\":6580:6594   */\n      add\n        /* \"#utility.yul\":6576:6599   */\n      div\n        /* \"#utility.yul\":6566:6599   */\n      swap1\n      pop\n        /* \"#utility.yul\":6512:6605   */\n      swap2\n      swap1\n      pop\n      jump\t// out\n        /* \"#utility.yul\":6611:6718   */\n    tag_73:\n        /* \"#utility.yul\":6655:6663   */\n      0x00\n        /* \"#utility.yul\":6705:6710   */\n      dup3\n        /* \"#utility.yul\":6699:6703   */\n      dup3\n        /* \"#utility.yul\":6695:6711   */\n      shl\n        /* \"#utility.yul\":6674:6711   */\n      swap1\n      pop\n        /* \"#utility.yul\":6611:6718   */\n      swap3\n      swap2\n      pop\n      pop\n      jump\t// out\n        /* \"#utility.yul\":6724:7117   */\n    tag_74:\n        /* \"#utility.yul\":6793:6799   */\n      0x00\n        /* \"#utility.yul\":6843:6844   */\n      0x08\n        /* \"#utility.yul\":6831:6841   */\n      dup4\n        /* \"#utility.yul\":6827:6845   */\n      mul\n        /* \"#utility.yul\":6866:6963   */\n      tag_162\n        /* \"#utility.yul\":6896:6962   */\n      0xffffffffffffffffffffffffffffffffffffffffffffffffffffffffffffffff\n        /* \"#utility.yul\":6885:6894   */\n      dup3\n        /* \"#utility.yul\":6866:6963   */\n      tag_73\n      jump\t// in\n    tag_162:\n        /* \"#utility.yul\":6984:7023   */\n      tag_163\n        /* \"#utility.yul\":7014:7022   */\n      dup7\n        /* \"#utility.yul\":7003:7012   */\n      dup4\n        /* \"#utility.yul\":6984:7023   */\n      tag_73\n      jump\t// in\n    tag_163:\n        /* \"#utility.yul\":6972:7023   */\n      swap6\n      pop\n        /* \"#utility.yul\":7056:7060   */\n      dup1\n        /* \"#utility.yul\":7052:7061   */\n      not\n        /* \"#utility.yul\":7045:7050   */\n      dup5\n        /* \"#utility.yul\":7041:7062   */\n      and\n        /* \"#utility.yul\":7032:7062   */\n      swap4\n      pop\n        /* \"#utility.yul\":7105:7109   */\n      dup1\n        /* \"#utility.yul\":7095:7103   */\n      dup7\n        /* \"#utility.yul\":7091:7110   */\n      and\n        /* \"#utility.yul\":7084:7089   */\n      dup5\n        /* \"#utility.yul\":7081:7111   */\n      or\n        /* \"#utility.yul\":7071:7111   */\n      swap3\n      pop\n        /* \"#utility.yul\":6800:7117   */\n      pop\n      pop\n        /* \"#utility.yul\":6724:7117   */\n      swap4\n      swap3\n      pop\n      pop\n      pop\n      jump\t// out\n        /* \"#utility.yul\":7123:7183   */\n    tag_75:\n        /* \"#utility.yul\":7151:7154   */\n      0x00\n        /* \"#utility.yul\":7172:7177   */\n      dup2\n        /* \"#utility.yul\":7165:7177   */\n      swap1\n      pop\n        /* \"#utility.yul\":7123:7183   */\n      swap2\n      swap1\n      pop\n      jump\t// out\n        /* \"#utility.yul\":7189:7331   */\n    tag_76:\n        /* \"#utility.yul\":7239:7248   */\n      0x00\n        /* \"#utility.yul\":7272:7325   */\n      tag_166\n        /* \"#utility.yul\":7290:7324   */\n      tag_167\n        /* \"#utility.yul\":7299:7323   */\n      tag_168\n        /* \"#utility.yul\":7317:7322   */\n      dup5\n        /* \"#utility.yul\":7299:7323   */\n      tag_60\n      jump\t// in\n    tag_168:\n        /* \"#utility.yul\":7290:7324   */\n      tag_75\n      jump\t// in\n    tag_167:\n        /* \"#utility.yul\":7272:7325   */\n      tag_60\n      jump\t// in\n    tag_166:\n        /* \"#utility.yul\":7259:7325   */\n      swap1\n      pop\n        /* \"#utility.yul\":7189:7331   */\n      swap2\n      swap1\n      pop\n      jump\t// out\n        /* \"#utility.yul\":7337:7412   */\n    tag_77:\n        /* \"#utility.yul\":7380:7383   */\n      0x00\n        /* \"#utility.yul\":7401:7406   */\n      dup2\n        /* \"#utility.yul\":7394:7406   */\n      swap1\n      pop\n        /* \"#utility.yul\":7337:7412   */\n      swap2\n      swap1\n      pop\n      jump\t// out\n        /* \"#utility.yul\":7418:7687   */\n    tag_78:\n        /* \"#utility.yul\":7528:7567   */\n      tag_171\n        /* \"#utility.yul\":7559:7566   */\n      dup4\n        /* \"#utility.yul\":7528:7567   */\n      tag_76\n      jump\t// in\n    tag_171:\n        /* \"#utility.yul\":7589:7680   */\n      tag_172\n        /* \"#utility.yul\":7638:7679   */\n      tag_173\n        /* \"#utility.yul\":7662:7678   */\n      dup3\n        /* \"#utility.yul\":7638:7679   */\n      tag_77\n      jump\t// in\n    tag_173:\n        /* \"#utility.yul\":7630:7636   */\n      dup5\n        /* \"#utility.yul\":7623:7627   */\n      dup5\n        /* \"#utility.yul\":7617:7628   */\n      sload\n        /* \"#utility.yul\":7589:7680   */\n      tag_74\n      jump\t// in\n    tag_172:\n        /* \"#utility.yul\":7583:7587   */\n      dup3\n        /* \"#utility.yul\":7576:7681   */\n      sstore\n        /* \"#utility.yul\":7494:7687   */\n      pop\n        /* \"#utility.yul\":7418:7687   */\n      pop\n      pop\n      pop\n      jump\t// out\n        /* \"#utility.yul\":7693:7766   */\n    tag_79:\n        /* \"#utility.yul\":7738:7741   */\n      0x00\n        /* \"#utility.yul\":7759:7760   */\n      0x00\n        /* \"#utility.yul\":7752:7760   */\n      swap1\n      pop\n        /* \"#utility.yul\":7693:7766   */\n      swap1\n      jump\t// out\n        /* \"#utility.yul\":7772:7961   */\n    tag_80:\n        /* \"#utility.yul\":7849:7881   */\n      tag_176\n      tag_79\n      jump\t// in\n    tag_176:\n        /* \"#utility.yul\":7890:7955   */\n      tag_177\n        /* \"#utility.yul\":7948:7954   */\n      dup2\n        /* \"#utility.yul\":7940:7946   */\n      dup5\n        /* \"#utility.yul\":7934:7938   */\n      dup5\n        /* \"#utility.yul\":7890:7955   */\n      tag_78\n      jump\t// in\n    tag_177:\n        /* \"#utility.yul\":7825:7961   */\n      pop\n        /* \"#utility.yul\":7772:7961   */\n      pop\n      pop\n      jump\t// out\n        /* \"#utility.yul\":7967:8153   */\n    tag_81:\n        /* \"#utility.yul\":8027:8147   */\n    tag_179:\n        /* \"#utility.yul\":8044:8047   */\n      dup2\n        /* \"#utility.yul\":8037:8042   */\n      dup2\n        /* \"#utility.yul\":8034:8048   */\n      lt\n        /* \"#utility.yul\":8027:8147   */\n      iszero\n      tag_181\n      jumpi\n        /* \"#utility.yul\":8098:8137   */\n      tag_182\n        /* \"#utility.yul\":8135:8136   */\n      0x00\n        /* \"#utility.yul\":8128:8133   */\n      dup3\n        /* \"#utility.yul\":8098:8137   */\n      tag_80\n      jump\t// in\n    tag_182:\n        /* \"#utility.yul\":8071:8072   */\n      0x01\n        /* \"#utility.yul\":8064:8069   */\n      dup2\n        /* \"#utility.yul\":8060:8073   */\n      add\n        /* \"#utility.yul\":8051:8073   */\n      swap1\n      pop\n        /* \"#utility.yul\":8027:8147   */\n      jump(tag_179)\n    tag_181:\n        /* \"#utility.yul\":7967:8153   */\n      pop\n      pop\n      jump\t// out\n        /* \"#utility.yul\":8159:8702   */\n    tag_82:\n        /* \"#utility.yul\":8260:8262   */\n      0x1f\n        /* \"#utility.yul\":8255:8258   */\n      dup3\n        /* \"#utility.yul\":8252:8263   */\n      gt\n        /* \"#utility.yul\":8249:8695   */\n      iszero\n      tag_184\n      jumpi\n        /* \"#utility.yul\":8294:8332   */\n      tag_185\n        /* \"#utility.yul\":8326:8331   */\n      dup2\n        /* \"#utility.yul\":8294:8332   */\n      tag_71\n      jump\t// in\n    tag_185:\n        /* \"#utility.yul\":8378:8407   */\n      tag_186\n        /* \"#utility.yul\":8396:8406   */\n      dup5\n        /* \"#utility.yul\":8378:8407   */\n      tag_72\n      jump\t// in\n    tag_186:\n        /* \"#utility.yul\":8368:8376   */\n      dup2\n        /* \"#utility.yul\":8364:8408   */\n      add\n        /* \"#utility.yul\":8561:8563   */\n      0x20\n        /* \"#utility.yul\":8549:8559   */\n      dup6\n        /* \"#utility.yul\":8546:8564   */\n      lt\n        /* \"#utility.yul\":8543:8592   */\n      iszero\n      tag_187\n      jumpi\n        /* \"#utility.yul\":8582:8590   */\n      dup2\n        /* \"#utility.yul\":8567:8590   */\n      swap1\n      pop\n        /* \"#utility.yul\":8543:8592   */\n    tag_187:\n        /* \"#utility.yul\":8605:8685   */\n      tag_188\n        /* \"#utility.yul\":8661:8683   */\n      tag_189\n        /* \"#utility.yul\":8679:8682   */\n      dup6\n        /* \"#utility.yul\":8661:8683   */\n      tag_72\n      jump\t// in\n    tag_189:\n        /* \"#utility.yul\":8651:8659   */\n      dup4\n        /* \"#utility.yul\":8647:8684   */\n      add\n        /* \"#utility.yul\":8634:8645   */\n      dup3\n        /* \"#utility.yul\":8605:8685   */\n      tag_81\n      jump\t// in\n    tag_188:\n        /* \"#utility.yul\":8264:8695   */\n      pop\n      pop\n        /* \"#utility.yul\":8249:8695   */\n    tag_184:\n        /* \"#utility.yul\":8159:8702   */\n      pop\n      pop\n      pop\n      jump\t// out\n        /* \"#utility.yul\":8708:8825   */\n    tag_83:\n        /* \"#utility.yul\":8762:8770   */\n      0x00\n        /* \"#utility.yul\":8812:8817   */\n      dup3\n        /* \"#utility.yul\":8806:8810   */\n      dup3\n        /* \"#utility.yul\":8802:8818   */\n      shr\n        /* \"#utility.yul\":8781:8818   */\n      swap1\n      pop\n        /* \"#utility.yul\":8708:8825   */\n      swap3\n      swap2\n      pop\n      pop\n      jump\t// out\n        /* \"#utility.yul\":8831:9000   */\n    tag_84:\n        /* \"#utility.yul\":8875:8881   */\n      0x00\n        /* \"#utility.yul\":8908:8959   */\n      tag_192\n        /* \"#utility.yul\":8956:8957   */\n      0x00\n        /* \"#utility.yul\":8952:8958   */\n      not\n        /* \"#utility.yul\":8944:8949   */\n      dup5\n        /* \"#utility.yul\":8941:8942   */\n      0x08\n        /* \"#utility.yul\":8937:8950   */\n      mul\n        /* \"#utility.yul\":8908:8959   */\n      tag_83\n      jump\t// in\n    tag_192:\n        /* \"#utility.yul\":8904:8960   */\n      not\n        /* \"#utility.yul\":8989:8993   */\n      dup1\n        /* \"#utility.yul\":8983:8987   */\n      dup4\n        /* \"#utility.yul\":8979:8994   */\n      and\n        /* \"#utility.yul\":8969:8994   */\n      swap2\n      pop\n        /* \"#utility.yul\":8882:9000   */\n      pop\n        /* \"#utility.yul\":8831:9000   */\n      swap3\n      swap2\n      pop\n      pop\n      jump\t// out\n        /* \"#utility.yul\":9005:9300   */\n    tag_85:\n        /* \"#utility.yul\":9081:9085   */\n      0x00\n        /* \"#utility.yul\":9227:9256   */\n      tag_194\n        /* \"#utility.yul\":9252:9255   */\n      dup4\n        /* \"#utility.yul\":9246:9250   */\n      dup4\n        /* \"#utility.yul\":9227:9256   */\n      tag_84\n      jump\t// in\n    tag_194:\n        /* \"#utility.yul\":9219:9256   */\n      swap2\n      pop\n        /* \"#utility.yul\":9289:9292   */\n      dup3\n        /* \"#utility.yul\":9286:9287   */\n      0x02\n        /* \"#utility.yul\":9282:9293   */\n      mul\n        /* \"#utility.yul\":9276:9280   */\n      dup3\n        /* \"#utility.yul\":9273:9294   */\n      or\n        /* \"#utility.yul\":9265:9294   */\n      swap1\n      pop\n        /* \"#utility.yul\":9005:9300   */\n      swap3\n      swap2\n      pop\n      pop\n      jump\t// out\n        /* \"#utility.yul\":9305:10700   */\n    tag_32:\n        /* \"#utility.yul\":9422:9459   */\n      tag_196\n        /* \"#utility.yul\":9455:9458   */\n      dup3\n        /* \"#utility.yul\":9422:9459   */\n      tag_63\n      jump\t// in\n    tag_196:\n        /* \"#utility.yul\":9524:9542   */\n      0xffffffffffffffff\n        /* \"#utility.yul\":9516:9522   */\n      dup2\n        /* \"#utility.yul\":9513:9543   */\n      gt\n        /* \"#utility.yul\":9510:9566   */\n      iszero\n      tag_197\n      jumpi\n        /* \"#utility.yul\":9546:9564   */\n      tag_198\n      tag_53\n      jump\t// in\n    tag_198:\n        /* \"#utility.yul\":9510:9566   */\n    tag_197:\n        /* \"#utility.yul\":9590:9628   */\n      tag_199\n        /* \"#utility.yul\":9622:9626   */\n      dup3\n        /* \"#utility.yul\":9616:9627   */\n      sload\n        /* \"#utility.yul\":9590:9628   */\n      tag_41\n      jump\t// in\n    tag_199:\n        /* \"#utility.yul\":9675:9742   */\n      tag_200\n        /* \"#utility.yul\":9735:9741   */\n      dup3\n        /* \"#utility.yul\":9727:9733   */\n      dup3\n        /* \"#utility.yul\":9721:9725   */\n      dup6\n        /* \"#utility.yul\":9675:9742   */\n      tag_82\n      jump\t// in\n    tag_200:\n        /* \"#utility.yul\":9769:9770   */\n      0x00\n        /* \"#utility.yul\":9793:9797   */\n      0x20\n        /* \"#utility.yul\":9780:9797   */\n      swap1\n      pop\n        /* \"#utility.yul\":9825:9827   */\n      0x1f\n        /* \"#utility.yul\":9817:9823   */\n      dup4\n        /* \"#utility.yul\":9814:9828   */\n      gt\n        /* \"#utility.yul\":9842:9843   */\n      0x01\n        /* \"#utility.yul\":9837:10455   */\n      dup2\n      eq\n      tag_202\n      jumpi\n        /* \"#utility.yul\":10499:10500   */\n      0x00\n        /* \"#utility.yul\":10516:10522   */\n      dup5\n        /* \"#utility.yul\":10513:10590   */\n      iszero\n      tag_203\n      jumpi\n        /* \"#utility.yul\":10565:10574   */\n      dup3\n        /* \"#utility.yul\":10560:10563   */\n      dup8\n        /* \"#utility.yul\":10556:10575   */\n      add\n        /* \"#utility.yul\":10550:10576   */\n      mload\n        /* \"#utility.yul\":10541:10576   */\n      swap1\n      pop\n        /* \"#utility.yul\":10513:10590   */\n    tag_203:\n        /* \"#utility.yul\":10616:10683   */\n      tag_204\n        /* \"#utility.yul\":10676:10682   */\n      dup6\n        /* \"#utility.yul\":10669:10674   */\n      dup3\n        /* \"#utility.yul\":10616:10683   */\n      tag_85\n      jump\t// in\n    tag_204:\n        /* \"#utility.yul\":10610:10614   */\n      dup7\n        /* \"#utility.yul\":10603:10684   */\n      sstore\n        /* \"#utility.yul\":10472:10694   */\n      pop\n        /* \"#utility.yul\":9807:10694   */\n      jump(tag_201)\n        /* \"#utility.yul\":9837:10455   */\n    tag_202:\n        /* \"#utility.yul\":9889:9893   */\n      0x1f\n        /* \"#utility.yul\":9885:9894   */\n      not\n        /* \"#utility.yul\":9877:9883   */\n      dup5\n        /* \"#utility.yul\":9873:9895   */\n      and\n        /* \"#utility.yul\":9923:9960   */\n      tag_205\n        /* \"#utility.yul\":9955:9959   */\n      dup7\n        /* \"#utility.yul\":9923:9960   */\n      tag_71\n      jump\t// in\n    tag_205:\n        /* \"#utility.yul\":9982:9983   */\n      0x00\n        /* \"#utility.yul\":9996:10204   */\n    tag_206:\n        /* \"#utility.yul\":10010:10017   */\n      dup3\n        /* \"#utility.yul\":10007:10008   */\n      dup2\n        /* \"#utility.yul\":10004:10018   */\n      lt\n        /* \"#utility.yul\":9996:10204   */\n      iszero\n      tag_208\n      jumpi\n        /* \"#utility.yul\":10089:10098   */\n      dup5\n        /* \"#utility.yul\":10084:10087   */\n      dup10\n        /* \"#utility.yul\":10080:10099   */\n      add\n        /* \"#utility.yul\":10074:10100   */\n      mload\n        /* \"#utility.yul\":10066:10072   */\n      dup3\n        /* \"#utility.yul\":10059:10101   */\n      sstore\n        /* \"#utility.yul\":10140:10141   */\n      0x01\n        /* \"#utility.yul\":10132:10138   */\n      dup3\n        /* \"#utility.yul\":10128:10142   */\n      add\n        /* \"#utility.yul\":10118:10142   */\n      swap2\n      pop\n        /* \"#utility.yul\":10187:10189   */\n      0x20\n        /* \"#utility.yul\":10176:10185   */\n      dup6\n        /* \"#utility.yul\":10172:10190   */\n      add\n        /* \"#utility.yul\":10159:10190   */\n      swap5\n      pop\n        /* \"#utility.yul\":10033:10037   */\n      0x20\n        /* \"#utility.yul\":10030:10031   */\n      dup2\n        /* \"#utility.yul\":10026:10038   */\n      add\n        /* \"#utility.yul\":10021:10038   */\n      swap1\n      pop\n        /* \"#utility.yul\":9996:10204   */\n      jump(tag_206)\n    tag_208:\n        /* \"#utility.yul\":10232:10238   */\n      dup7\n        /* \"#utility.yul\":10223:10230   */\n      dup4\n        /* \"#utility.yul\":10220:10239   */\n      lt\n        /* \"#utility.yul\":10217:10396   */\n      iszero\n      tag_209\n      jumpi\n        /* \"#utility.yul\":10290:10299   */\n      dup5\n        /* \"#utility.yul\":10285:10288   */\n      dup10\n        /* \"#utility.yul\":10281:10300   */\n      add\n        /* \"#utility.yul\":10275:10301   */\n      mload\n        /* \"#utility.yul\":10333:10381   */\n      tag_210\n        /* \"#utility.yul\":10375:10379   */\n      0x1f\n        /* \"#utility.yul\":10367:10373   */\n      dup10\n        /* \"#utility.yul\":10363:10380   */\n      and\n        /* \"#utility.yul\":10352:10361   */\n      dup3\n        /* \"#utility.yul\":10333:10381   */\n      tag_84\n      jump\t// in\n    tag_210:\n        /* \"#utility.yul\":10325:10331   */\n      dup4\n        /* \"#utility.yul\":10318:10382   */\n      sstore\n        /* \"#utility.yul\":10240:10396   */\n      pop\n        /* \"#utility.yul\":10217:10396   */\n    tag_209:\n        /* \"#utility.yul\":10442:10443   */\n      0x01\n        /* \"#utility.yul\":10438:10439   */\n      0x02\n        /* \"#utility.yul\":10430:10436   */\n      dup9\n        /* \"#utility.yul\":10426:10440   */\n      mul\n        /* \"#utility.yul\":10422:10444   */\n      add\n        /* \"#utility.yul\":10416:10420   */\n      dup9\n        /* \"#utility.yul\":10409:10445   */\n      sstore\n        /* \"#utility.yul\":9844:10455   */\n      pop\n      pop\n      pop\n        /* \"#utility.yul\":9807:10694   */\n    tag_201:\n      pop\n        /* \"#utility.yul\":9397:10700   */\n      pop\n      pop\n      pop\n        /* \"#utility.yul\":9305:10700   */\n      pop\n      pop\n      jump\t// out\n        /* \"#utility.yul\":10706:10886   */\n    tag_86:\n        /* \"#utility.yul\":10754:10831   */\n      0x4e487b7100000000000000000000000000000000000000000000000000000000\n        /* \"#utility.yul\":10751:10752   */\n      0x00\n        /* \"#utility.yul\":10744:10832   */\n      mstore\n        /* \"#utility.yul\":10851:10855   */\n      0x11\n        /* \"#utility.yul\":10848:10849   */\n      0x04\n        /* \"#utility.yul\":10841:10856   */\n      mstore\n        /* \"#utility.yul\":10875:10879   */\n      0x24\n        /* \"#utility.yul\":10872:10873   */\n      0x00\n        /* \"#utility.yul\":10865:10880   */\n      revert\n        /* \"#utility.yul\":10892:11125   */\n    tag_34:\n        /* \"#utility.yul\":10931:10934   */\n      0x00\n        /* \"#utility.yul\":10954:10978   */\n      tag_213\n        /* \"#utility.yul\":10972:10977   */\n      dup3\n        /* \"#utility.yul\":10954:10978   */\n      tag_60\n      jump\t// in\n    tag_213:\n        /* \"#utility.yul\":10945:10978   */\n      swap2\n      pop\n        /* \"#utility.yul\":11000:11066   */\n      0xffffffffffffffffffffffffffffffffffffffffffffffffffffffffffffffff\n        /* \"#utility.yul\":10993:10998   */\n      dup3\n        /* \"#utility.yul\":10990:11067   */\n      sub\n        /* \"#utility.yul\":10987:11090   */\n      tag_214\n      jumpi\n        /* \"#utility.yul\":11070:11088   */\n      tag_215\n      tag_86\n      jump\t// in\n    tag_215:\n        /* \"#utility.yul\":10987:11090   */\n    tag_214:\n        /* \"#utility.yul\":11117:11118   */\n      0x01\n        /* \"#utility.yul\":11110:11115   */\n      dup3\n        /* \"#utility.yul\":11106:11119   */\n      add\n        /* \"#utility.yul\":11099:11119   */\n      swap1\n      pop\n        /* \"#utility.yul\":10892:11125   */\n      swap2\n      swap1\n      pop\n      jump\t// out\n\n    auxdata: 0xa264697066735822122081b2e3da3d422b50a9ea100e00502d62df2fa64fa1e7e5b927210b4ff433adaa64736f6c634300081e0033\n}\n",
				"bytecode": {
					"linkReferences": {},
					"object": "6080604052348015600e575f5ffd5b505f60038190555061088c806100235f395ff3fe608060405234801561000f575f5ffd5b506004361061004a575f3560e01c80630830602b1461004e5780635718e17b1461006a57806366f188b81461009a57806373ff93a2146100b8575b5f5ffd5b61006860048036038101906100639190610369565b6100d6565b005b610084600480360381019061007f91906103e3565b61011f565b604051610091919061046e565b60405180910390f35b6100a261020a565b6040516100af91906104a8565b60405180910390f35b6100c0610216565b6040516100cd91906104d0565b60405180910390f35b60038054101561011c57805f600354600381106100f6576100f56104e9565b5b0190816101039190610713565b5060035f8154809291906101169061080f565b91905055505b50565b606060038210156101cc575f826003811061013d5761013c6104e9565b5b01805461014990610543565b80601f016020809104026020016040519081016040528092919081815260200182805461017590610543565b80156101c05780601f10610197576101008083540402835291602001916101c0565b820191905f5260205f20905b8154815290600101906020018083116101a357829003601f168201915b50505050509050610205565b6040518060400160405280601a81526020017f4572726f723a20696e646578206f7574206f6620626f756e647300000000000081525090505b919050565b5f600380541015905090565b60035481565b5f604051905090565b5f5ffd5b5f5ffd5b5f5ffd5b5f5ffd5b5f601f19601f8301169050919050565b7f4e487b71000000000000000000000000000000000000000000000000000000005f52604160045260245ffd5b61027b82610235565b810181811067ffffffffffffffff8211171561029a57610299610245565b5b80604052505050565b5f6102ac61021c565b90506102b88282610272565b919050565b5f67ffffffffffffffff8211156102d7576102d6610245565b5b6102e082610235565b9050602081019050919050565b828183375f83830152505050565b5f61030d610308846102bd565b6102a3565b90508281526020810184848401111561032957610328610231565b5b6103348482856102ed565b509392505050565b5f82601f8301126103505761034f61022d565b5b81356103608482602086016102fb565b91505092915050565b5f6020828403121561037e5761037d610225565b5b5f82013567ffffffffffffffff81111561039b5761039a610229565b5b6103a78482850161033c565b91505092915050565b5f819050919050565b6103c2816103b0565b81146103cc575f5ffd5b50565b5f813590506103dd816103b9565b92915050565b5f602082840312156103f8576103f7610225565b5b5f610405848285016103cf565b91505092915050565b5f81519050919050565b5f82825260208201905092915050565b8281835e5f83830152505050565b5f6104408261040e565b61044a8185610418565b935061045a818560208601610428565b61046381610235565b840191505092915050565b5f6020820190508181035f8301526104868184610436565b905092915050565b5f8115159050919050565b6104a28161048e565b82525050565b5f6020820190506104bb5f830184610499565b92915050565b6104ca816103b0565b82525050565b5f6020820190506104e35f8301846104c1565b92915050565b7f4e487b71000000000000000000000000000000000000000000000000000000005f52603260045260245ffd5b7f4e487b71000000000000000000000000000000000000000000000000000000005f52602260045260245ffd5b5f600282049050600182168061055a57607f821691505b60208210810361056d5761056c610516565b5b50919050565b5f819050815f5260205f209050919050565b5f6020601f8301049050919050565b5f82821b905092915050565b5f600883026105cf7fffffffffffffffffffffffffffffffffffffffffffffffffffffffffffffffff82610594565b6105d98683610594565b95508019841693508086168417925050509392505050565b5f819050919050565b5f61061461060f61060a846103b0565b6105f1565b6103b0565b9050919050565b5f819050919050565b61062d836105fa565b6106416106398261061b565b8484546105a0565b825550505050565b5f5f905090565b610658610649565b610663818484610624565b505050565b5b818110156106865761067b5f82610650565b600181019050610669565b5050565b601f8211156106cb5761069c81610573565b6106a584610585565b810160208510156106b4578190505b6106c86106c085610585565b830182610668565b50505b505050565b5f82821c905092915050565b5f6106eb5f19846008026106d0565b1980831691505092915050565b5f61070383836106dc565b9150826002028217905092915050565b61071c8261040e565b67ffffffffffffffff81111561073557610734610245565b5b61073f8254610543565b61074a82828561068a565b5f60209050601f83116001811461077b575f8415610769578287015190505b61077385826106f8565b8655506107da565b601f19841661078986610573565b5f5b828110156107b05784890151825560018201915060208501945060208101905061078b565b868310156107cd57848901516107c9601f8916826106dc565b8355505b6001600288020188555050505b505050505050565b7f4e487b71000000000000000000000000000000000000000000000000000000005f52601160045260245ffd5b5f610819826103b0565b91507fffffffffffffffffffffffffffffffffffffffffffffffffffffffffffffffff820361084b5761084a6107e2565b5b60018201905091905056fea264697066735822122081b2e3da3d422b50a9ea100e00502d62df2fa64fa1e7e5b927210b4ff433adaa64736f6c634300081e0033",
					"opcodes": "PUSH1 0x80 PUSH1 0x40 MSTORE CALLVALUE DUP1 ISZERO PUSH1 0xE JUMPI PUSH0 PUSH0 REVERT JUMPDEST POP PUSH0 PUSH1 0x3 DUP2 SWAP1 SSTORE POP PUSH2 0x88C DUP1 PUSH2 0x23 PUSH0 CODECOPY PUSH0 RETURN INVALID PUSH1 0x80 PUSH1 0x40 MSTORE CALLVALUE DUP1 ISZERO PUSH2 0xF JUMPI PUSH0 PUSH0 REVERT JUMPDEST POP PUSH1 0x4 CALLDATASIZE LT PUSH2 0x4A JUMPI PUSH0 CALLDATALOAD PUSH1 0xE0 SHR DUP1 PUSH4 0x830602B EQ PUSH2 0x4E JUMPI DUP1 PUSH4 0x5718E17B EQ PUSH2 0x6A JUMPI DUP1 PUSH4 0x66F188B8 EQ PUSH2 0x9A JUMPI DUP1 PUSH4 0x73FF93A2 EQ PUSH2 0xB8 JUMPI JUMPDEST PUSH0 PUSH0 REVERT JUMPDEST PUSH2 0x68 PUSH1 0x4 DUP1 CALLDATASIZE SUB DUP2 ADD SWAP1 PUSH2 0x63 SWAP2 SWAP1 PUSH2 0x369 JUMP JUMPDEST PUSH2 0xD6 JUMP JUMPDEST STOP JUMPDEST PUSH2 0x84 PUSH1 0x4 DUP1 CALLDATASIZE SUB DUP2 ADD SWAP1 PUSH2 0x7F SWAP2 SWAP1 PUSH2 0x3E3 JUMP JUMPDEST PUSH2 0x11F JUMP JUMPDEST PUSH1 0x40 MLOAD PUSH2 0x91 SWAP2 SWAP1 PUSH2 0x46E JUMP JUMPDEST PUSH1 0x40 MLOAD DUP1 SWAP2 SUB SWAP1 RETURN JUMPDEST PUSH2 0xA2 PUSH2 0x20A JUMP JUMPDEST PUSH1 0x40 MLOAD PUSH2 0xAF SWAP2 SWAP1 PUSH2 0x4A8 JUMP JUMPDEST PUSH1 0x40 MLOAD DUP1 SWAP2 SUB SWAP1 RETURN JUMPDEST PUSH2 0xC0 PUSH2 0x216 JUMP JUMPDEST PUSH1 0x40 MLOAD PUSH2 0xCD SWAP2 SWAP1 PUSH2 0x4D0 JUMP JUMPDEST PUSH1 0x40 MLOAD DUP1 SWAP2 SUB SWAP1 RETURN JUMPDEST PUSH1 0x3 DUP1 SLOAD LT ISZERO PUSH2 0x11C JUMPI DUP1 PUSH0 PUSH1 0x3 SLOAD PUSH1 0x3 DUP2 LT PUSH2 0xF6 JUMPI PUSH2 0xF5 PUSH2 0x4E9 JUMP JUMPDEST JUMPDEST ADD SWAP1 DUP2 PUSH2 0x103 SWAP2 SWAP1 PUSH2 0x713 JUMP JUMPDEST POP PUSH1 0x3 PUSH0 DUP2 SLOAD DUP1 SWAP3 SWAP2 SWAP1 PUSH2 0x116 SWAP1 PUSH2 0x80F JUMP JUMPDEST SWAP2 SWAP1 POP SSTORE POP JUMPDEST POP JUMP JUMPDEST PUSH1 0x60 PUSH1 0x3 DUP3 LT ISZERO PUSH2 0x1CC JUMPI PUSH0 DUP3 PUSH1 0x3 DUP2 LT PUSH2 0x13D JUMPI PUSH2 0x13C PUSH2 0x4E9 JUMP JUMPDEST JUMPDEST ADD DUP1 SLOAD PUSH2 0x149 SWAP1 PUSH2 0x543 JUMP JUMPDEST DUP1 PUSH1 0x1F ADD PUSH1 0x20 DUP1 SWAP2 DIV MUL PUSH1 0x20 ADD PUSH1 0x40 MLOAD SWAP1 DUP2 ADD PUSH1 0x40 MSTORE DUP1 SWAP3 SWAP2 SWAP1 DUP2 DUP2 MSTORE PUSH1 0x20 ADD DUP3 DUP1 SLOAD PUSH2 0x175 SWAP1 PUSH2 0x543 JUMP JUMPDEST DUP1 ISZERO PUSH2 0x1C0 JUMPI DUP1 PUSH1 0x1F LT PUSH2 0x197 JUMPI PUSH2 0x100 DUP1 DUP4 SLOAD DIV MUL DUP4 MSTORE SWAP2 PUSH1 0x20 ADD SWAP2 PUSH2 0x1C0 JUMP JUMPDEST DUP3 ADD SWAP2 SWAP1 PUSH0 MSTORE PUSH1 0x20 PUSH0 KECCAK256 SWAP1 JUMPDEST DUP2 SLOAD DUP2 MSTORE SWAP1 PUSH1 0x1 ADD SWAP1 PUSH1 0x20 ADD DUP1 DUP4 GT PUSH2 0x1A3 JUMPI DUP3 SWAP1 SUB PUSH1 0x1F AND DUP3 ADD SWAP2 JUMPDEST POP POP POP POP POP SWAP1 POP PUSH2 0x205 JUMP JUMPDEST PUSH1 0x40 MLOAD DUP1 PUSH1 0x40 ADD PUSH1 0x40 MSTORE DUP1 PUSH1 0x1A DUP2 MSTORE PUSH1 0x20 ADD PUSH32 0x4572726F723A20696E646578206F7574206F6620626F756E6473000000000000 DUP2 MSTORE POP SWAP1 POP JUMPDEST SWAP2 SWAP1 POP JUMP JUMPDEST PUSH0 PUSH1 0x3 DUP1 SLOAD LT ISZERO SWAP1 POP SWAP1 JUMP JUMPDEST PUSH1 0x3 SLOAD DUP2 JUMP JUMPDEST PUSH0 PUSH1 0x40 MLOAD SWAP1 POP SWAP1 JUMP JUMPDEST PUSH0 PUSH0 REVERT JUMPDEST PUSH0 PUSH0 REVERT JUMPDEST PUSH0 PUSH0 REVERT JUMPDEST PUSH0 PUSH0 REVERT JUMPDEST PUSH0 PUSH1 0x1F NOT PUSH1 0x1F DUP4 ADD AND SWAP1 POP SWAP2 SWAP1 POP JUMP JUMPDEST PUSH32 0x4E487B7100000000000000000000000000000000000000000000000000000000 PUSH0 MSTORE PUSH1 0x41 PUSH1 0x4 MSTORE PUSH1 0x24 PUSH0 REVERT JUMPDEST PUSH2 0x27B DUP3 PUSH2 0x235 JUMP JUMPDEST DUP2 ADD DUP2 DUP2 LT PUSH8 0xFFFFFFFFFFFFFFFF DUP3 GT OR ISZERO PUSH2 0x29A JUMPI PUSH2 0x299 PUSH2 0x245 JUMP JUMPDEST JUMPDEST DUP1 PUSH1 0x40 MSTORE POP POP POP JUMP JUMPDEST PUSH0 PUSH2 0x2AC PUSH2 0x21C JUMP JUMPDEST SWAP1 POP PUSH2 0x2B8 DUP3 DUP3 PUSH2 0x272 JUMP JUMPDEST SWAP2 SWAP1 POP JUMP JUMPDEST PUSH0 PUSH8 0xFFFFFFFFFFFFFFFF DUP3 GT ISZERO PUSH2 0x2D7 JUMPI PUSH2 0x2D6 PUSH2 0x245 JUMP JUMPDEST JUMPDEST PUSH2 0x2E0 DUP3 PUSH2 0x235 JUMP JUMPDEST SWAP1 POP PUSH1 0x20 DUP2 ADD SWAP1 POP SWAP2 SWAP1 POP JUMP JUMPDEST DUP3 DUP2 DUP4 CALLDATACOPY PUSH0 DUP4 DUP4 ADD MSTORE POP POP POP JUMP JUMPDEST PUSH0 PUSH2 0x30D PUSH2 0x308 DUP5 PUSH2 0x2BD JUMP JUMPDEST PUSH2 0x2A3 JUMP JUMPDEST SWAP1 POP DUP3 DUP2 MSTORE PUSH1 0x20 DUP2 ADD DUP5 DUP5 DUP5 ADD GT ISZERO PUSH2 0x329 JUMPI PUSH2 0x328 PUSH2 0x231 JUMP JUMPDEST JUMPDEST PUSH2 0x334 DUP5 DUP3 DUP6 PUSH2 0x2ED JUMP JUMPDEST POP SWAP4 SWAP3 POP POP POP JUMP JUMPDEST PUSH0 DUP3 PUSH1 0x1F DUP4 ADD SLT PUSH2 0x350 JUMPI PUSH2 0x34F PUSH2 0x22D JUMP JUMPDEST JUMPDEST DUP2 CALLDATALOAD PUSH2 0x360 DUP5 DUP3 PUSH1 0x20 DUP7 ADD PUSH2 0x2FB JUMP JUMPDEST SWAP2 POP POP SWAP3 SWAP2 POP POP JUMP JUMPDEST PUSH0 PUSH1 0x20 DUP3 DUP5 SUB SLT ISZERO PUSH2 0x37E JUMPI PUSH2 0x37D PUSH2 0x225 JUMP JUMPDEST JUMPDEST PUSH0 DUP3 ADD CALLDATALOAD PUSH8 0xFFFFFFFFFFFFFFFF DUP2 GT ISZERO PUSH2 0x39B JUMPI PUSH2 0x39A PUSH2 0x229 JUMP JUMPDEST JUMPDEST PUSH2 0x3A7 DUP5 DUP3 DUP6 ADD PUSH2 0x33C JUMP JUMPDEST SWAP2 POP POP SWAP3 SWAP2 POP POP JUMP JUMPDEST PUSH0 DUP2 SWAP1 POP SWAP2 SWAP1 POP JUMP JUMPDEST PUSH2 0x3C2 DUP2 PUSH2 0x3B0 JUMP JUMPDEST DUP2 EQ PUSH2 0x3CC JUMPI PUSH0 PUSH0 REVERT JUMPDEST POP JUMP JUMPDEST PUSH0 DUP2 CALLDATALOAD SWAP1 POP PUSH2 0x3DD DUP2 PUSH2 0x3B9 JUMP JUMPDEST SWAP3 SWAP2 POP POP JUMP JUMPDEST PUSH0 PUSH1 0x20 DUP3 DUP5 SUB SLT ISZERO PUSH2 0x3F8 JUMPI PUSH2 0x3F7 PUSH2 0x225 JUMP JUMPDEST JUMPDEST PUSH0 PUSH2 0x405 DUP5 DUP3 DUP6 ADD PUSH2 0x3CF JUMP JUMPDEST SWAP2 POP POP SWAP3 SWAP2 POP POP JUMP JUMPDEST PUSH0 DUP2 MLOAD SWAP1 POP SWAP2 SWAP1 POP JUMP JUMPDEST PUSH0 DUP3 DUP3 MSTORE PUSH1 0x20 DUP3 ADD SWAP1 POP SWAP3 SWAP2 POP POP JUMP JUMPDEST DUP3 DUP2 DUP4 MCOPY PUSH0 DUP4 DUP4 ADD MSTORE POP POP POP JUMP JUMPDEST PUSH0 PUSH2 0x440 DUP3 PUSH2 0x40E JUMP JUMPDEST PUSH2 0x44A DUP2 DUP6 PUSH2 0x418 JUMP JUMPDEST SWAP4 POP PUSH2 0x45A DUP2 DUP6 PUSH1 0x20 DUP7 ADD PUSH2 0x428 JUMP JUMPDEST PUSH2 0x463 DUP2 PUSH2 0x235 JUMP JUMPDEST DUP5 ADD SWAP2 POP POP SWAP3 SWAP2 POP POP JUMP JUMPDEST PUSH0 PUSH1 0x20 DUP3 ADD SWAP1 POP DUP2 DUP2 SUB PUSH0 DUP4 ADD MSTORE PUSH2 0x486 DUP2 DUP5 PUSH2 0x436 JUMP JUMPDEST SWAP1 POP SWAP3 SWAP2 POP POP JUMP JUMPDEST PUSH0 DUP2 ISZERO ISZERO SWAP1 POP SWAP2 SWAP1 POP JUMP JUMPDEST PUSH2 0x4A2 DUP2 PUSH2 0x48E JUMP JUMPDEST DUP3 MSTORE POP POP JUMP JUMPDEST PUSH0 PUSH1 0x20 DUP3 ADD SWAP1 POP PUSH2 0x4BB PUSH0 DUP4 ADD DUP5 PUSH2 0x499 JUMP JUMPDEST SWAP3 SWAP2 POP POP JUMP JUMPDEST PUSH2 0x4CA DUP2 PUSH2 0x3B0 JUMP JUMPDEST DUP3 MSTORE POP POP JUMP JUMPDEST PUSH0 PUSH1 0x20 DUP3 ADD SWAP1 POP PUSH2 0x4E3 PUSH0 DUP4 ADD DUP5 PUSH2 0x4C1 JUMP JUMPDEST SWAP3 SWAP2 POP POP JUMP JUMPDEST PUSH32 0x4E487B7100000000000000000000000000000000000000000000000000000000 PUSH0 MSTORE PUSH1 0x32 PUSH1 0x4 MSTORE PUSH1 0x24 PUSH0 REVERT JUMPDEST PUSH32 0x4E487B7100000000000000000000000000000000000000000000000000000000 PUSH0 MSTORE PUSH1 0x22 PUSH1 0x4 MSTORE PUSH1 0x24 PUSH0 REVERT JUMPDEST PUSH0 PUSH1 0x2 DUP3 DIV SWAP1 POP PUSH1 0x1 DUP3 AND DUP1 PUSH2 0x55A JUMPI PUSH1 0x7F DUP3 AND SWAP2 POP JUMPDEST PUSH1 0x20 DUP3 LT DUP2 SUB PUSH2 0x56D JUMPI PUSH2 0x56C PUSH2 0x516 JUMP JUMPDEST JUMPDEST POP SWAP2 SWAP1 POP JUMP JUMPDEST PUSH0 DUP2 SWAP1 POP DUP2 PUSH0 MSTORE PUSH1 0x20 PUSH0 KECCAK256 SWAP1 POP SWAP2 SWAP1 POP JUMP JUMPDEST PUSH0 PUSH1 0x20 PUSH1 0x1F DUP4 ADD DIV SWAP1 POP SWAP2 SWAP1 POP JUMP JUMPDEST PUSH0 DUP3 DUP3 SHL SWAP1 POP SWAP3 SWAP2 POP POP JUMP JUMPDEST PUSH0 PUSH1 0x8 DUP4 MUL PUSH2 0x5CF PUSH32 0xFFFFFFFFFFFFFFFFFFFFFFFFFFFFFFFFFFFFFFFFFFFFFFFFFFFFFFFFFFFFFFFF DUP3 PUSH2 0x594 JUMP JUMPDEST PUSH2 0x5D9 DUP7 DUP4 PUSH2 0x594 JUMP JUMPDEST SWAP6 POP DUP1 NOT DUP5 AND SWAP4 POP DUP1 DUP7 AND DUP5 OR SWAP3 POP POP POP SWAP4 SWAP3 POP POP POP JUMP JUMPDEST PUSH0 DUP2 SWAP1 POP SWAP2 SWAP1 POP JUMP JUMPDEST PUSH0 PUSH2 0x614 PUSH2 0x60F PUSH2 0x60A DUP5 PUSH2 0x3B0 JUMP JUMPDEST PUSH2 0x5F1 JUMP JUMPDEST PUSH2 0x3B0 JUMP JUMPDEST SWAP1 POP SWAP2 SWAP1 POP JUMP JUMPDEST PUSH0 DUP2 SWAP1 POP SWAP2 SWAP1 POP JUMP JUMPDEST PUSH2 0x62D DUP4 PUSH2 0x5FA JUMP JUMPDEST PUSH2 0x641 PUSH2 0x639 DUP3 PUSH2 0x61B JUMP JUMPDEST DUP5 DUP5 SLOAD PUSH2 0x5A0 JUMP JUMPDEST DUP3 SSTORE POP POP POP POP JUMP JUMPDEST PUSH0 PUSH0 SWAP1 POP SWAP1 JUMP JUMPDEST PUSH2 0x658 PUSH2 0x649 JUMP JUMPDEST PUSH2 0x663 DUP2 DUP5 DUP5 PUSH2 0x624 JUMP JUMPDEST POP POP POP JUMP JUMPDEST JUMPDEST DUP2 DUP2 LT ISZERO PUSH2 0x686 JUMPI PUSH2 0x67B PUSH0 DUP3 PUSH2 0x650 JUMP JUMPDEST PUSH1 0x1 DUP2 ADD SWAP1 POP PUSH2 0x669 JUMP JUMPDEST POP POP JUMP JUMPDEST PUSH1 0x1F DUP3 GT ISZERO PUSH2 0x6CB JUMPI PUSH2 0x69C DUP2 PUSH2 0x573 JUMP JUMPDEST PUSH2 0x6A5 DUP5 PUSH2 0x585 JUMP JUMPDEST DUP2 ADD PUSH1 0x20 DUP6 LT ISZERO PUSH2 0x6B4 JUMPI DUP2 SWAP1 POP JUMPDEST PUSH2 0x6C8 PUSH2 0x6C0 DUP6 PUSH2 0x585 JUMP JUMPDEST DUP4 ADD DUP3 PUSH2 0x668 JUMP JUMPDEST POP POP JUMPDEST POP POP POP JUMP JUMPDEST PUSH0 DUP3 DUP3 SHR SWAP1 POP SWAP3 SWAP2 POP POP JUMP JUMPDEST PUSH0 PUSH2 0x6EB PUSH0 NOT DUP5 PUSH1 0x8 MUL PUSH2 0x6D0 JUMP JUMPDEST NOT DUP1 DUP4 AND SWAP2 POP POP SWAP3 SWAP2 POP POP JUMP JUMPDEST PUSH0 PUSH2 0x703 DUP4 DUP4 PUSH2 0x6DC JUMP JUMPDEST SWAP2 POP DUP3 PUSH1 0x2 MUL DUP3 OR SWAP1 POP SWAP3 SWAP2 POP POP JUMP JUMPDEST PUSH2 0x71C DUP3 PUSH2 0x40E JUMP JUMPDEST PUSH8 0xFFFFFFFFFFFFFFFF DUP2 GT ISZERO PUSH2 0x735 JUMPI PUSH2 0x734 PUSH2 0x245 JUMP JUMPDEST JUMPDEST PUSH2 0x73F DUP3 SLOAD PUSH2 0x543 JUMP JUMPDEST PUSH2 0x74A DUP3 DUP3 DUP6 PUSH2 0x68A JUMP JUMPDEST PUSH0 PUSH1 0x20 SWAP1 POP PUSH1 0x1F DUP4 GT PUSH1 0x1 DUP2 EQ PUSH2 0x77B JUMPI PUSH0 DUP5 ISZERO PUSH2 0x769 JUMPI DUP3 DUP8 ADD MLOAD SWAP1 POP JUMPDEST PUSH2 0x773 DUP6 DUP3 PUSH2 0x6F8 JUMP JUMPDEST DUP7 SSTORE POP PUSH2 0x7DA JUMP JUMPDEST PUSH1 0x1F NOT DUP5 AND PUSH2 0x789 DUP7 PUSH2 0x573 JUMP JUMPDEST PUSH0 JUMPDEST DUP3 DUP2 LT ISZERO PUSH2 0x7B0 JUMPI DUP5 DUP10 ADD MLOAD DUP3 SSTORE PUSH1 0x1 DUP3 ADD SWAP2 POP PUSH1 0x20 DUP6 ADD SWAP5 POP PUSH1 0x20 DUP2 ADD SWAP1 POP PUSH2 0x78B JUMP JUMPDEST DUP7 DUP4 LT ISZERO PUSH2 0x7CD JUMPI DUP5 DUP10 ADD MLOAD PUSH2 0x7C9 PUSH1 0x1F DUP10 AND DUP3 PUSH2 0x6DC JUMP JUMPDEST DUP4 SSTORE POP JUMPDEST PUSH1 0x1 PUSH1 0x2 DUP9 MUL ADD DUP9 SSTORE POP POP POP JUMPDEST POP POP POP POP POP POP JUMP JUMPDEST PUSH32 0x4E487B7100000000000000000000000000000000000000000000000000000000 PUSH0 MSTORE PUSH1 0x11 PUSH1 0x4 MSTORE PUSH1 0x24 PUSH0 REVERT JUMPDEST PUSH0 PUSH2 0x819 DUP3 PUSH2 0x3B0 JUMP JUMPDEST SWAP2 POP PUSH32 0xFFFFFFFFFFFFFFFFFFFFFFFFFFFFFFFFFFFFFFFFFFFFFFFFFFFFFFFFFFFFFFFF DUP3 SUB PUSH2 0x84B JUMPI PUSH2 0x84A PUSH2 0x7E2 JUMP JUMPDEST JUMPDEST PUSH1 0x1 DUP3 ADD SWAP1 POP SWAP2 SWAP1 POP JUMP INVALID LOG2 PUSH5 0x6970667358 0x22 SLT KECCAK256 DUP2 0xB2 CALLF 0xDA3D TIMESTAMP 0x2B POP 0xA9 0xEA LT 0xE STOP POP 0x2D PUSH3 0xDF2FA6 0x4F LOG1 SWAPN 0xE5 0xB9 0x27 0x21 SIGNEXTEND 0x4F DELEGATECALL CALLER 0xAD 0xAA PUSH5 0x736F6C6343 STOP ADDMOD 0x1E STOP CALLER "
				},
				"gasEstimates": {
					"creation": {
						"codeDepositCost": "437600",
						"executionCost": "5485",
						"totalCost": "443085"
					},
					"external": {
						"getNames(uint256)": "infinite",
						"isPetitionFull()": "2469",
						"nameCount()": "2469",
						"registerName(string)": "infinite"
					}
				},
				"methodIdentifiers": {
					"getNames(uint256)": "5718e17b",
					"isPetitionFull()": "66f188b8",
					"nameCount()": "73ff93a2",
					"registerName(string)": "0830602b"
				}
			},
			"storageLayout": {
				"storage": [
					{
						"astId": 5,
						"contract": "contracts/Petition.sol:Petition",
						"label": "names",
						"offset": 0,
						"slot": "0",
						"type": "t_array(t_string_storage)3_storage"
					},
					{
						"astId": 7,
						"contract": "contracts/Petition.sol:Petition",
						"label": "nameCount",
						"offset": 0,
						"slot": "3",
						"type": "t_uint256"
					}
				],
				"types": {
					"t_array(t_string_storage)3_storage": {
						"base": "t_string_storage",
						"encoding": "inplace",
						"label": "string[3]",
						"numberOfBytes": "96"
					},
					"t_string_storage": {
						"encoding": "bytes",
						"label": "string",
						"numberOfBytes": "32"
					},
					"t_uint256": {
						"encoding": "inplace",
						"label": "uint256",
						"numberOfBytes": "32"
					}
				}
			},
			"userdoc": {
				"kind": "user",
				"methods": {},
				"version": 1
			}
		}
	}
}