{
	"contracts/PersonalDataStorageV2.sol": {
		"PersonDataStoreV2": {
			"abi": [
				{
					"inputs": [],
					"stateMutability": "nonpayable",
					"type": "constructor"
				},
				{
					"inputs": [],
					"name": "getAge",
					"outputs": [
						{
							"internalType": "uint256",
							"name": "",
							"type": "uint256"
						}
					],
					"stateMutability": "view",
					"type": "function"
				},
				{
					"inputs": [],
					"name": "getNacionalityBr",
					"outputs": [
						{
							"internalType": "bool",
							"name": "",
							"type": "bool"
						}
					],
					"stateMutability": "view",
					"type": "function"
				},
				{
					"inputs": [],
					"name": "name",
					"outputs": [
						{
							"internalType": "string",
							"name": "",
							"type": "string"
						}
					],
					"stateMutability": "view",
					"type": "function"
				},
				{
					"inputs": [
						{
							"internalType": "uint256",
							"name": "_age",
							"type": "uint256"
						}
					],
					"name": "setAge",
					"outputs": [],
					"stateMutability": "nonpayable",
					"type": "function"
				},
				{
					"inputs": [
						{
							"internalType": "bool",
							"name": "_braz",
							"type": "bool"
						}
					],
					"name": "setNacionalityBr",
					"outputs": [],
					"stateMutability": "nonpayable",
					"type": "function"
				},
				{
					"inputs": [
						{
							"internalType": "string",
							"name": "_name",
							"type": "string"
						}
					],
					"name": "setName",
					"outputs": [],
					"stateMutability": "nonpayable",
					"type": "function"
				}
			],
			"devdoc": {
				"kind": "dev",
				"methods": {},
				"version": 1
			},
			"evm": {
				"assembly": "    /* \"contracts/PersonalDataStorageV2.sol\":67:905  contract PersonDataStoreV2 {... */\n  mstore(0x40, 0x80)\n    /* \"contracts/PersonalDataStorageV2.sol\":181:276  constructor(){... */\n  callvalue\n  dup1\n  iszero\n  tag_1\n  jumpi\n  0x00\n  dup1\n  revert\ntag_1:\n  pop\n    /* \"contracts/PersonalDataStorageV2.sol\":205:222  name = \"jeremias\" */\n  mload(0x40)\n  dup1\n  0x40\n  add\n  0x40\n  mstore\n  dup1\n  0x08\n  dup2\n  mstore\n  0x20\n  add\n  0x6a6572656d696173000000000000000000000000000000000000000000000000\n  dup2\n  mstore\n  pop\n    /* \"contracts/PersonalDataStorageV2.sol\":205:209  name */\n  0x00\n    /* \"contracts/PersonalDataStorageV2.sol\":205:222  name = \"jeremias\" */\n  swap1\n  dup2\n  tag_4\n  swap2\n  swap1\n  tag_5\n  jump\t// in\ntag_4:\n  pop\n    /* \"contracts/PersonalDataStorageV2.sol\":239:241  10 */\n  0x0a\n    /* \"contracts/PersonalDataStorageV2.sol\":233:236  age */\n  0x01\n    /* \"contracts/PersonalDataStorageV2.sol\":233:241  age = 10 */\n  dup2\n  swap1\n  sstore\n  pop\n    /* \"contracts/PersonalDataStorageV2.sol\":264:268  true */\n  0x01\n    /* \"contracts/PersonalDataStorageV2.sol\":252:261  brazilian */\n  0x02\n  0x00\n    /* \"contracts/PersonalDataStorageV2.sol\":252:268  brazilian = true */\n  0x0100\n  exp\n  dup2\n  sload\n  dup2\n  0xff\n  mul\n  not\n  and\n  swap1\n  dup4\n  iszero\n  iszero\n  mul\n  or\n  swap1\n  sstore\n  pop\n    /* \"contracts/PersonalDataStorageV2.sol\":67:905  contract PersonDataStoreV2 {... */\n  jump(tag_6)\n    /* \"#utility.yul\":7:106   */\ntag_7:\n    /* \"#utility.yul\":59:65   */\n  0x00\n    /* \"#utility.yul\":93:98   */\n  dup2\n    /* \"#utility.yul\":87:99   */\n  mload\n    /* \"#utility.yul\":77:99   */\n  swap1\n  pop\n    /* \"#utility.yul\":7:106   */\n  swap2\n  swap1\n  pop\n  jump\t// out\n    /* \"#utility.yul\":112:292   */\ntag_8:\n    /* \"#utility.yul\":160:237   */\n  0x4e487b7100000000000000000000000000000000000000000000000000000000\n    /* \"#utility.yul\":157:158   */\n  0x00\n    /* \"#utility.yul\":150:238   */\n  mstore\n    /* \"#utility.yul\":257:261   */\n  0x41\n    /* \"#utility.yul\":254:255   */\n  0x04\n    /* \"#utility.yul\":247:262   */\n  mstore\n    /* \"#utility.yul\":281:285   */\n  0x24\n    /* \"#utility.yul\":278:279   */\n  0x00\n    /* \"#utility.yul\":271:286   */\n  revert\n    /* \"#utility.yul\":298:478   */\ntag_9:\n    /* \"#utility.yul\":346:423   */\n  0x4e487b7100000000000000000000000000000000000000000000000000000000\n    /* \"#utility.yul\":343:344   */\n  0x00\n    /* \"#utility.yul\":336:424   */\n  mstore\n    /* \"#utility.yul\":443:447   */\n  0x22\n    /* \"#utility.yul\":440:441   */\n  0x04\n    /* \"#utility.yul\":433:448   */\n  mstore\n    /* \"#utility.yul\":467:471   */\n  0x24\n    /* \"#utility.yul\":464:465   */\n  0x00\n    /* \"#utility.yul\":457:472   */\n  revert\n    /* \"#utility.yul\":484:804   */\ntag_10:\n    /* \"#utility.yul\":528:534   */\n  0x00\n    /* \"#utility.yul\":565:566   */\n  0x02\n    /* \"#utility.yul\":559:563   */\n  dup3\n    /* \"#utility.yul\":555:567   */\n  div\n    /* \"#utility.yul\":545:567   */\n  swap1\n  pop\n    /* \"#utility.yul\":612:613   */\n  0x01\n    /* \"#utility.yul\":606:610   */\n  dup3\n    /* \"#utility.yul\":602:614   */\n  and\n    /* \"#utility.yul\":633:651   */\n  dup1\n    /* \"#utility.yul\":623:704   */\n  tag_32\n  jumpi\n    /* \"#utility.yul\":689:693   */\n  0x7f\n    /* \"#utility.yul\":681:687   */\n  dup3\n    /* \"#utility.yul\":677:694   */\n  and\n    /* \"#utility.yul\":667:694   */\n  swap2\n  pop\n    /* \"#utility.yul\":623:704   */\ntag_32:\n    /* \"#utility.yul\":751:753   */\n  0x20\n    /* \"#utility.yul\":743:749   */\n  dup3\n    /* \"#utility.yul\":740:754   */\n  lt\n    /* \"#utility.yul\":720:738   */\n  dup2\n    /* \"#utility.yul\":717:755   */\n  sub\n    /* \"#utility.yul\":714:798   */\n  tag_33\n  jumpi\n    /* \"#utility.yul\":770:788   */\n  tag_34\n  tag_9\n  jump\t// in\ntag_34:\n    /* \"#utility.yul\":714:798   */\ntag_33:\n    /* \"#utility.yul\":535:804   */\n  pop\n    /* \"#utility.yul\":484:804   */\n  swap2\n  swap1\n  pop\n  jump\t// out\n    /* \"#utility.yul\":810:951   */\ntag_11:\n    /* \"#utility.yul\":859:863   */\n  0x00\n    /* \"#utility.yul\":882:885   */\n  dup2\n    /* \"#utility.yul\":874:885   */\n  swap1\n  pop\n    /* \"#utility.yul\":905:908   */\n  dup2\n    /* \"#utility.yul\":902:903   */\n  0x00\n    /* \"#utility.yul\":895:909   */\n  mstore\n    /* \"#utility.yul\":939:943   */\n  0x20\n    /* \"#utility.yul\":936:937   */\n  0x00\n    /* \"#utility.yul\":926:944   */\n  keccak256\n    /* \"#utility.yul\":918:944   */\n  swap1\n  pop\n    /* \"#utility.yul\":810:951   */\n  swap2\n  swap1\n  pop\n  jump\t// out\n    /* \"#utility.yul\":957:1050   */\ntag_12:\n    /* \"#utility.yul\":994:1000   */\n  0x00\n    /* \"#utility.yul\":1041:1043   */\n  0x20\n    /* \"#utility.yul\":1036:1038   */\n  0x1f\n    /* \"#utility.yul\":1029:1034   */\n  dup4\n    /* \"#utility.yul\":1025:1039   */\n  add\n    /* \"#utility.yul\":1021:1044   */\n  div\n    /* \"#utility.yul\":1011:1044   */\n  swap1\n  pop\n    /* \"#utility.yul\":957:1050   */\n  swap2\n  swap1\n  pop\n  jump\t// out\n    /* \"#utility.yul\":1056:1163   */\ntag_13:\n    /* \"#utility.yul\":1100:1108   */\n  0x00\n    /* \"#utility.yul\":1150:1155   */\n  dup3\n    /* \"#utility.yul\":1144:1148   */\n  dup3\n    /* \"#utility.yul\":1140:1156   */\n  shl\n    /* \"#utility.yul\":1119:1156   */\n  swap1\n  pop\n    /* \"#utility.yul\":1056:1163   */\n  swap3\n  swap2\n  pop\n  pop\n  jump\t// out\n    /* \"#utility.yul\":1169:1562   */\ntag_14:\n    /* \"#utility.yul\":1238:1244   */\n  0x00\n    /* \"#utility.yul\":1288:1289   */\n  0x08\n    /* \"#utility.yul\":1276:1286   */\n  dup4\n    /* \"#utility.yul\":1272:1290   */\n  mul\n    /* \"#utility.yul\":1311:1408   */\n  tag_39\n    /* \"#utility.yul\":1341:1407   */\n  0xffffffffffffffffffffffffffffffffffffffffffffffffffffffffffffffff\n    /* \"#utility.yul\":1330:1339   */\n  dup3\n    /* \"#utility.yul\":1311:1408   */\n  tag_13\n  jump\t// in\ntag_39:\n    /* \"#utility.yul\":1429:1468   */\n  tag_40\n    /* \"#utility.yul\":1459:1467   */\n  dup7\n    /* \"#utility.yul\":1448:1457   */\n  dup4\n    /* \"#utility.yul\":1429:1468   */\n  tag_13\n  jump\t// in\ntag_40:\n    /* \"#utility.yul\":1417:1468   */\n  swap6\n  pop\n    /* \"#utility.yul\":1501:1505   */\n  dup1\n    /* \"#utility.yul\":1497:1506   */\n  not\n    /* \"#utility.yul\":1490:1495   */\n  dup5\n    /* \"#utility.yul\":1486:1507   */\n  and\n    /* \"#utility.yul\":1477:1507   */\n  swap4\n  pop\n    /* \"#utility.yul\":1550:1554   */\n  dup1\n    /* \"#utility.yul\":1540:1548   */\n  dup7\n    /* \"#utility.yul\":1536:1555   */\n  and\n    /* \"#utility.yul\":1529:1534   */\n  dup5\n    /* \"#utility.yul\":1526:1556   */\n  or\n    /* \"#utility.yul\":1516:1556   */\n  swap3\n  pop\n    /* \"#utility.yul\":1245:1562   */\n  pop\n  pop\n    /* \"#utility.yul\":1169:1562   */\n  swap4\n  swap3\n  pop\n  pop\n  pop\n  jump\t// out\n    /* \"#utility.yul\":1568:1645   */\ntag_15:\n    /* \"#utility.yul\":1605:1612   */\n  0x00\n    /* \"#utility.yul\":1634:1639   */\n  dup2\n    /* \"#utility.yul\":1623:1639   */\n  swap1\n  pop\n    /* \"#utility.yul\":1568:1645   */\n  swap2\n  swap1\n  pop\n  jump\t// out\n    /* \"#utility.yul\":1651:1711   */\ntag_16:\n    /* \"#utility.yul\":1679:1682   */\n  0x00\n    /* \"#utility.yul\":1700:1705   */\n  dup2\n    /* \"#utility.yul\":1693:1705   */\n  swap1\n  pop\n    /* \"#utility.yul\":1651:1711   */\n  swap2\n  swap1\n  pop\n  jump\t// out\n    /* \"#utility.yul\":1717:1859   */\ntag_17:\n    /* \"#utility.yul\":1767:1776   */\n  0x00\n    /* \"#utility.yul\":1800:1853   */\n  tag_44\n    /* \"#utility.yul\":1818:1852   */\n  tag_45\n    /* \"#utility.yul\":1827:1851   */\n  tag_46\n    /* \"#utility.yul\":1845:1850   */\n  dup5\n    /* \"#utility.yul\":1827:1851   */\n  tag_15\n  jump\t// in\ntag_46:\n    /* \"#utility.yul\":1818:1852   */\n  tag_16\n  jump\t// in\ntag_45:\n    /* \"#utility.yul\":1800:1853   */\n  tag_15\n  jump\t// in\ntag_44:\n    /* \"#utility.yul\":1787:1853   */\n  swap1\n  pop\n    /* \"#utility.yul\":1717:1859   */\n  swap2\n  swap1\n  pop\n  jump\t// out\n    /* \"#utility.yul\":1865:1940   */\ntag_18:\n    /* \"#utility.yul\":1908:1911   */\n  0x00\n    /* \"#utility.yul\":1929:1934   */\n  dup2\n    /* \"#utility.yul\":1922:1934   */\n  swap1\n  pop\n    /* \"#utility.yul\":1865:1940   */\n  swap2\n  swap1\n  pop\n  jump\t// out\n    /* \"#utility.yul\":1946:2215   */\ntag_19:\n    /* \"#utility.yul\":2056:2095   */\n  tag_49\n    /* \"#utility.yul\":2087:2094   */\n  dup4\n    /* \"#utility.yul\":2056:2095   */\n  tag_17\n  jump\t// in\ntag_49:\n    /* \"#utility.yul\":2117:2208   */\n  tag_50\n    /* \"#utility.yul\":2166:2207   */\n  tag_51\n    /* \"#utility.yul\":2190:2206   */\n  dup3\n    /* \"#utility.yul\":2166:2207   */\n  tag_18\n  jump\t// in\ntag_51:\n    /* \"#utility.yul\":2158:2164   */\n  dup5\n    /* \"#utility.yul\":2151:2155   */\n  dup5\n    /* \"#utility.yul\":2145:2156   */\n  sload\n    /* \"#utility.yul\":2117:2208   */\n  tag_14\n  jump\t// in\ntag_50:\n    /* \"#utility.yul\":2111:2115   */\n  dup3\n    /* \"#utility.yul\":2104:2209   */\n  sstore\n    /* \"#utility.yul\":2022:2215   */\n  pop\n    /* \"#utility.yul\":1946:2215   */\n  pop\n  pop\n  pop\n  jump\t// out\n    /* \"#utility.yul\":2221:2294   */\ntag_20:\n    /* \"#utility.yul\":2266:2269   */\n  0x00\n    /* \"#utility.yul\":2221:2294   */\n  swap1\n  jump\t// out\n    /* \"#utility.yul\":2300:2489   */\ntag_21:\n    /* \"#utility.yul\":2377:2409   */\n  tag_54\n  tag_20\n  jump\t// in\ntag_54:\n    /* \"#utility.yul\":2418:2483   */\n  tag_55\n    /* \"#utility.yul\":2476:2482   */\n  dup2\n    /* \"#utility.yul\":2468:2474   */\n  dup5\n    /* \"#utility.yul\":2462:2466   */\n  dup5\n    /* \"#utility.yul\":2418:2483   */\n  tag_19\n  jump\t// in\ntag_55:\n    /* \"#utility.yul\":2353:2489   */\n  pop\n    /* \"#utility.yul\":2300:2489   */\n  pop\n  pop\n  jump\t// out\n    /* \"#utility.yul\":2495:2681   */\ntag_22:\n    /* \"#utility.yul\":2555:2675   */\ntag_57:\n    /* \"#utility.yul\":2572:2575   */\n  dup2\n    /* \"#utility.yul\":2565:2570   */\n  dup2\n    /* \"#utility.yul\":2562:2576   */\n  lt\n    /* \"#utility.yul\":2555:2675   */\n  iszero\n  tag_59\n  jumpi\n    /* \"#utility.yul\":2626:2665   */\n  tag_60\n    /* \"#utility.yul\":2663:2664   */\n  0x00\n    /* \"#utility.yul\":2656:2661   */\n  dup3\n    /* \"#utility.yul\":2626:2665   */\n  tag_21\n  jump\t// in\ntag_60:\n    /* \"#utility.yul\":2599:2600   */\n  0x01\n    /* \"#utility.yul\":2592:2597   */\n  dup2\n    /* \"#utility.yul\":2588:2601   */\n  add\n    /* \"#utility.yul\":2579:2601   */\n  swap1\n  pop\n    /* \"#utility.yul\":2555:2675   */\n  jump(tag_57)\ntag_59:\n    /* \"#utility.yul\":2495:2681   */\n  pop\n  pop\n  jump\t// out\n    /* \"#utility.yul\":2687:3230   */\ntag_23:\n    /* \"#utility.yul\":2788:2790   */\n  0x1f\n    /* \"#utility.yul\":2783:2786   */\n  dup3\n    /* \"#utility.yul\":2780:2791   */\n  gt\n    /* \"#utility.yul\":2777:3223   */\n  iszero\n  tag_62\n  jumpi\n    /* \"#utility.yul\":2822:2860   */\n  tag_63\n    /* \"#utility.yul\":2854:2859   */\n  dup2\n    /* \"#utility.yul\":2822:2860   */\n  tag_11\n  jump\t// in\ntag_63:\n    /* \"#utility.yul\":2906:2935   */\n  tag_64\n    /* \"#utility.yul\":2924:2934   */\n  dup5\n    /* \"#utility.yul\":2906:2935   */\n  tag_12\n  jump\t// in\ntag_64:\n    /* \"#utility.yul\":2896:2904   */\n  dup2\n    /* \"#utility.yul\":2892:2936   */\n  add\n    /* \"#utility.yul\":3089:3091   */\n  0x20\n    /* \"#utility.yul\":3077:3087   */\n  dup6\n    /* \"#utility.yul\":3074:3092   */\n  lt\n    /* \"#utility.yul\":3071:3120   */\n  iszero\n  tag_65\n  jumpi\n    /* \"#utility.yul\":3110:3118   */\n  dup2\n    /* \"#utility.yul\":3095:3118   */\n  swap1\n  pop\n    /* \"#utility.yul\":3071:3120   */\ntag_65:\n    /* \"#utility.yul\":3133:3213   */\n  tag_66\n    /* \"#utility.yul\":3189:3211   */\n  tag_67\n    /* \"#utility.yul\":3207:3210   */\n  dup6\n    /* \"#utility.yul\":3189:3211   */\n  tag_12\n  jump\t// in\ntag_67:\n    /* \"#utility.yul\":3179:3187   */\n  dup4\n    /* \"#utility.yul\":3175:3212   */\n  add\n    /* \"#utility.yul\":3162:3173   */\n  dup3\n    /* \"#utility.yul\":3133:3213   */\n  tag_22\n  jump\t// in\ntag_66:\n    /* \"#utility.yul\":2792:3223   */\n  pop\n  pop\n    /* \"#utility.yul\":2777:3223   */\ntag_62:\n    /* \"#utility.yul\":2687:3230   */\n  pop\n  pop\n  pop\n  jump\t// out\n    /* \"#utility.yul\":3236:3353   */\ntag_24:\n    /* \"#utility.yul\":3290:3298   */\n  0x00\n    /* \"#utility.yul\":3340:3345   */\n  dup3\n    /* \"#utility.yul\":3334:3338   */\n  dup3\n    /* \"#utility.yul\":3330:3346   */\n  shr\n    /* \"#utility.yul\":3309:3346   */\n  swap1\n  pop\n    /* \"#utility.yul\":3236:3353   */\n  swap3\n  swap2\n  pop\n  pop\n  jump\t// out\n    /* \"#utility.yul\":3359:3528   */\ntag_25:\n    /* \"#utility.yul\":3403:3409   */\n  0x00\n    /* \"#utility.yul\":3436:3487   */\n  tag_70\n    /* \"#utility.yul\":3484:3485   */\n  0x00\n    /* \"#utility.yul\":3480:3486   */\n  not\n    /* \"#utility.yul\":3472:3477   */\n  dup5\n    /* \"#utility.yul\":3469:3470   */\n  0x08\n    /* \"#utility.yul\":3465:3478   */\n  mul\n    /* \"#utility.yul\":3436:3487   */\n  tag_24\n  jump\t// in\ntag_70:\n    /* \"#utility.yul\":3432:3488   */\n  not\n    /* \"#utility.yul\":3517:3521   */\n  dup1\n    /* \"#utility.yul\":3511:3515   */\n  dup4\n    /* \"#utility.yul\":3507:3522   */\n  and\n    /* \"#utility.yul\":3497:3522   */\n  swap2\n  pop\n    /* \"#utility.yul\":3410:3528   */\n  pop\n    /* \"#utility.yul\":3359:3528   */\n  swap3\n  swap2\n  pop\n  pop\n  jump\t// out\n    /* \"#utility.yul\":3533:3828   */\ntag_26:\n    /* \"#utility.yul\":3609:3613   */\n  0x00\n    /* \"#utility.yul\":3755:3784   */\n  tag_72\n    /* \"#utility.yul\":3780:3783   */\n  dup4\n    /* \"#utility.yul\":3774:3778   */\n  dup4\n    /* \"#utility.yul\":3755:3784   */\n  tag_25\n  jump\t// in\ntag_72:\n    /* \"#utility.yul\":3747:3784   */\n  swap2\n  pop\n    /* \"#utility.yul\":3817:3820   */\n  dup3\n    /* \"#utility.yul\":3814:3815   */\n  0x02\n    /* \"#utility.yul\":3810:3821   */\n  mul\n    /* \"#utility.yul\":3804:3808   */\n  dup3\n    /* \"#utility.yul\":3801:3822   */\n  or\n    /* \"#utility.yul\":3793:3822   */\n  swap1\n  pop\n    /* \"#utility.yul\":3533:3828   */\n  swap3\n  swap2\n  pop\n  pop\n  jump\t// out\n    /* \"#utility.yul\":3833:5228   */\ntag_5:\n    /* \"#utility.yul\":3950:3987   */\n  tag_74\n    /* \"#utility.yul\":3983:3986   */\n  dup3\n    /* \"#utility.yul\":3950:3987   */\n  tag_7\n  jump\t// in\ntag_74:\n    /* \"#utility.yul\":4052:4070   */\n  0xffffffffffffffff\n    /* \"#utility.yul\":4044:4050   */\n  dup2\n    /* \"#utility.yul\":4041:4071   */\n  gt\n    /* \"#utility.yul\":4038:4094   */\n  iszero\n  tag_75\n  jumpi\n    /* \"#utility.yul\":4074:4092   */\n  tag_76\n  tag_8\n  jump\t// in\ntag_76:\n    /* \"#utility.yul\":4038:4094   */\ntag_75:\n    /* \"#utility.yul\":4118:4156   */\n  tag_77\n    /* \"#utility.yul\":4150:4154   */\n  dup3\n    /* \"#utility.yul\":4144:4155   */\n  sload\n    /* \"#utility.yul\":4118:4156   */\n  tag_10\n  jump\t// in\ntag_77:\n    /* \"#utility.yul\":4203:4270   */\n  tag_78\n    /* \"#utility.yul\":4263:4269   */\n  dup3\n    /* \"#utility.yul\":4255:4261   */\n  dup3\n    /* \"#utility.yul\":4249:4253   */\n  dup6\n    /* \"#utility.yul\":4203:4270   */\n  tag_23\n  jump\t// in\ntag_78:\n    /* \"#utility.yul\":4297:4298   */\n  0x00\n    /* \"#utility.yul\":4321:4325   */\n  0x20\n    /* \"#utility.yul\":4308:4325   */\n  swap1\n  pop\n    /* \"#utility.yul\":4353:4355   */\n  0x1f\n    /* \"#utility.yul\":4345:4351   */\n  dup4\n    /* \"#utility.yul\":4342:4356   */\n  gt\n    /* \"#utility.yul\":4370:4371   */\n  0x01\n    /* \"#utility.yul\":4365:4983   */\n  dup2\n  eq\n  tag_80\n  jumpi\n    /* \"#utility.yul\":5027:5028   */\n  0x00\n    /* \"#utility.yul\":5044:5050   */\n  dup5\n    /* \"#utility.yul\":5041:5118   */\n  iszero\n  tag_81\n  jumpi\n    /* \"#utility.yul\":5093:5102   */\n  dup3\n    /* \"#utility.yul\":5088:5091   */\n  dup8\n    /* \"#utility.yul\":5084:5103   */\n  add\n    /* \"#utility.yul\":5078:5104   */\n  mload\n    /* \"#utility.yul\":5069:5104   */\n  swap1\n  pop\n    /* \"#utility.yul\":5041:5118   */\ntag_81:\n    /* \"#utility.yul\":5144:5211   */\n  tag_82\n    /* \"#utility.yul\":5204:5210   */\n  dup6\n    /* \"#utility.yul\":5197:5202   */\n  dup3\n    /* \"#utility.yul\":5144:5211   */\n  tag_26\n  jump\t// in\ntag_82:\n    /* \"#utility.yul\":5138:5142   */\n  dup7\n    /* \"#utility.yul\":5131:5212   */\n  sstore\n    /* \"#utility.yul\":5000:5222   */\n  pop\n    /* \"#utility.yul\":4335:5222   */\n  jump(tag_79)\n    /* \"#utility.yul\":4365:4983   */\ntag_80:\n    /* \"#utility.yul\":4417:4421   */\n  0x1f\n    /* \"#utility.yul\":4413:4422   */\n  not\n    /* \"#utility.yul\":4405:4411   */\n  dup5\n    /* \"#utility.yul\":4401:4423   */\n  and\n    /* \"#utility.yul\":4451:4488   */\n  tag_83\n    /* \"#utility.yul\":4483:4487   */\n  dup7\n    /* \"#utility.yul\":4451:4488   */\n  tag_11\n  jump\t// in\ntag_83:\n    /* \"#utility.yul\":4510:4511   */\n  0x00\n    /* \"#utility.yul\":4524:4732   */\ntag_84:\n    /* \"#utility.yul\":4538:4545   */\n  dup3\n    /* \"#utility.yul\":4535:4536   */\n  dup2\n    /* \"#utility.yul\":4532:4546   */\n  lt\n    /* \"#utility.yul\":4524:4732   */\n  iszero\n  tag_86\n  jumpi\n    /* \"#utility.yul\":4617:4626   */\n  dup5\n    /* \"#utility.yul\":4612:4615   */\n  dup10\n    /* \"#utility.yul\":4608:4627   */\n  add\n    /* \"#utility.yul\":4602:4628   */\n  mload\n    /* \"#utility.yul\":4594:4600   */\n  dup3\n    /* \"#utility.yul\":4587:4629   */\n  sstore\n    /* \"#utility.yul\":4668:4669   */\n  0x01\n    /* \"#utility.yul\":4660:4666   */\n  dup3\n    /* \"#utility.yul\":4656:4670   */\n  add\n    /* \"#utility.yul\":4646:4670   */\n  swap2\n  pop\n    /* \"#utility.yul\":4715:4717   */\n  0x20\n    /* \"#utility.yul\":4704:4713   */\n  dup6\n    /* \"#utility.yul\":4700:4718   */\n  add\n    /* \"#utility.yul\":4687:4718   */\n  swap5\n  pop\n    /* \"#utility.yul\":4561:4565   */\n  0x20\n    /* \"#utility.yul\":4558:4559   */\n  dup2\n    /* \"#utility.yul\":4554:4566   */\n  add\n    /* \"#utility.yul\":4549:4566   */\n  swap1\n  pop\n    /* \"#utility.yul\":4524:4732   */\n  jump(tag_84)\ntag_86:\n    /* \"#utility.yul\":4760:4766   */\n  dup7\n    /* \"#utility.yul\":4751:4758   */\n  dup4\n    /* \"#utility.yul\":4748:4767   */\n  lt\n    /* \"#utility.yul\":4745:4924   */\n  iszero\n  tag_87\n  jumpi\n    /* \"#utility.yul\":4818:4827   */\n  dup5\n    /* \"#utility.yul\":4813:4816   */\n  dup10\n    /* \"#utility.yul\":4809:4828   */\n  add\n    /* \"#utility.yul\":4803:4829   */\n  mload\n    /* \"#utility.yul\":4861:4909   */\n  tag_88\n    /* \"#utility.yul\":4903:4907   */\n  0x1f\n    /* \"#utility.yul\":4895:4901   */\n  dup10\n    /* \"#utility.yul\":4891:4908   */\n  and\n    /* \"#utility.yul\":4880:4889   */\n  dup3\n    /* \"#utility.yul\":4861:4909   */\n  tag_25\n  jump\t// in\ntag_88:\n    /* \"#utility.yul\":4853:4859   */\n  dup4\n    /* \"#utility.yul\":4846:4910   */\n  sstore\n    /* \"#utility.yul\":4768:4924   */\n  pop\n    /* \"#utility.yul\":4745:4924   */\ntag_87:\n    /* \"#utility.yul\":4970:4971   */\n  0x01\n    /* \"#utility.yul\":4966:4967   */\n  0x02\n    /* \"#utility.yul\":4958:4964   */\n  dup9\n    /* \"#utility.yul\":4954:4968   */\n  mul\n    /* \"#utility.yul\":4950:4972   */\n  add\n    /* \"#utility.yul\":4944:4948   */\n  dup9\n    /* \"#utility.yul\":4937:4973   */\n  sstore\n    /* \"#utility.yul\":4372:4983   */\n  pop\n  pop\n  pop\n    /* \"#utility.yul\":4335:5222   */\ntag_79:\n  pop\n    /* \"#utility.yul\":3925:5228   */\n  pop\n  pop\n  pop\n    /* \"#utility.yul\":3833:5228   */\n  pop\n  pop\n  jump\t// out\n    /* \"contracts/PersonalDataStorageV2.sol\":67:905  contract PersonDataStoreV2 {... */\ntag_6:\n  dataSize(sub_0)\n  dup1\n  dataOffset(sub_0)\n  0x00\n  codecopy\n  0x00\n  return\nstop\n\nsub_0: assembly {\n        /* \"contracts/PersonalDataStorageV2.sol\":67:905  contract PersonDataStoreV2 {... */\n      mstore(0x40, 0x80)\n      callvalue\n      dup1\n      iszero\n      tag_1\n      jumpi\n      0x00\n      dup1\n      revert\n    tag_1:\n      pop\n      jumpi(tag_2, lt(calldatasize, 0x04))\n      shr(0xe0, calldataload(0x00))\n      dup1\n      0x06fdde03\n      eq\n      tag_3\n      jumpi\n      dup1\n      0x099c682c\n      eq\n      tag_4\n      jumpi\n      dup1\n      0x967e6e65\n      eq\n      tag_5\n      jumpi\n      dup1\n      0xc47f0027\n      eq\n      tag_6\n      jumpi\n      dup1\n      0xd5dcf127\n      eq\n      tag_7\n      jumpi\n      dup1\n      0xf553d48a\n      eq\n      tag_8\n      jumpi\n    tag_2:\n      0x00\n      dup1\n      revert\n        /* \"contracts/PersonalDataStorageV2.sol\":101:119  string public name */\n    tag_3:\n      tag_9\n      tag_10\n      jump\t// in\n    tag_9:\n      mload(0x40)\n      tag_11\n      swap2\n      swap1\n      tag_12\n      jump\t// in\n    tag_11:\n      mload(0x40)\n      dup1\n      swap2\n      sub\n      swap1\n      return\n        /* \"contracts/PersonalDataStorageV2.sol\":718:799  function setNacionalityBr(bool _braz) public {... */\n    tag_4:\n      tag_13\n      0x04\n      dup1\n      calldatasize\n      sub\n      dup2\n      add\n      swap1\n      tag_14\n      swap2\n      swap1\n      tag_15\n      jump\t// in\n    tag_14:\n      tag_16\n      jump\t// in\n    tag_13:\n      stop\n        /* \"contracts/PersonalDataStorageV2.sol\":636:710  function getAge() public view returns (uint) {... */\n    tag_5:\n      tag_17\n      tag_18\n      jump\t// in\n    tag_17:\n      mload(0x40)\n      tag_19\n      swap2\n      swap1\n      tag_20\n      jump\t// in\n    tag_19:\n      mload(0x40)\n      dup1\n      swap2\n      sub\n      swap1\n      return\n        /* \"contracts/PersonalDataStorageV2.sol\":374:449  function setName(string memory _name) public {... */\n    tag_6:\n      tag_21\n      0x04\n      dup1\n      calldatasize\n      sub\n      dup2\n      add\n      swap1\n      tag_22\n      swap2\n      swap1\n      tag_23\n      jump\t// in\n    tag_22:\n      tag_24\n      jump\t// in\n    tag_21:\n      stop\n        /* \"contracts/PersonalDataStorageV2.sol\":457:520  function setAge(uint _age) public {... */\n    tag_7:\n      tag_25\n      0x04\n      dup1\n      calldatasize\n      sub\n      dup2\n      add\n      swap1\n      tag_26\n      swap2\n      swap1\n      tag_27\n      jump\t// in\n    tag_26:\n      tag_28\n      jump\t// in\n    tag_25:\n      stop\n        /* \"contracts/PersonalDataStorageV2.sol\":805:895  function getNacionalityBr() public view returns (bool) {... */\n    tag_8:\n      tag_29\n      tag_30\n      jump\t// in\n    tag_29:\n      mload(0x40)\n      tag_31\n      swap2\n      swap1\n      tag_32\n      jump\t// in\n    tag_31:\n      mload(0x40)\n      dup1\n      swap2\n      sub\n      swap1\n      return\n        /* \"contracts/PersonalDataStorageV2.sol\":101:119  string public name */\n    tag_10:\n      0x00\n      dup1\n      sload\n      tag_33\n      swap1\n      tag_34\n      jump\t// in\n    tag_33:\n      dup1\n      0x1f\n      add\n      0x20\n      dup1\n      swap2\n      div\n      mul\n      0x20\n      add\n      mload(0x40)\n      swap1\n      dup2\n      add\n      0x40\n      mstore\n      dup1\n      swap3\n      swap2\n      swap1\n      dup2\n      dup2\n      mstore\n      0x20\n      add\n      dup3\n      dup1\n      sload\n      tag_35\n      swap1\n      tag_34\n      jump\t// in\n    tag_35:\n      dup1\n      iszero\n      tag_36\n      jumpi\n      dup1\n      0x1f\n      lt\n      tag_37\n      jumpi\n      0x0100\n      dup1\n      dup4\n      sload\n      div\n      mul\n      dup4\n      mstore\n      swap2\n      0x20\n      add\n      swap2\n      jump(tag_36)\n    tag_37:\n      dup3\n      add\n      swap2\n      swap1\n      0x00\n      mstore\n      keccak256(0x00, 0x20)\n      swap1\n    tag_38:\n      dup2\n      sload\n      dup2\n      mstore\n      swap1\n      0x01\n      add\n      swap1\n      0x20\n      add\n      dup1\n      dup4\n      gt\n      tag_38\n      jumpi\n      dup3\n      swap1\n      sub\n      0x1f\n      and\n      dup3\n      add\n      swap2\n    tag_36:\n      pop\n      pop\n      pop\n      pop\n      pop\n      dup2\n      jump\t// out\n        /* \"contracts/PersonalDataStorageV2.sol\":718:799  function setNacionalityBr(bool _braz) public {... */\n    tag_16:\n        /* \"contracts/PersonalDataStorageV2.sol\":786:791  _braz */\n      dup1\n        /* \"contracts/PersonalDataStorageV2.sol\":774:783  brazilian */\n      0x02\n      0x00\n        /* \"contracts/PersonalDataStorageV2.sol\":774:791  brazilian = _braz */\n      0x0100\n      exp\n      dup2\n      sload\n      dup2\n      0xff\n      mul\n      not\n      and\n      swap1\n      dup4\n      iszero\n      iszero\n      mul\n      or\n      swap1\n      sstore\n      pop\n        /* \"contracts/PersonalDataStorageV2.sol\":718:799  function setNacionalityBr(bool _braz) public {... */\n      pop\n      jump\t// out\n        /* \"contracts/PersonalDataStorageV2.sol\":636:710  function getAge() public view returns (uint) {... */\n    tag_18:\n        /* \"contracts/PersonalDataStorageV2.sol\":675:679  uint */\n      0x00\n        /* \"contracts/PersonalDataStorageV2.sol\":699:702  age */\n      sload(0x01)\n        /* \"contracts/PersonalDataStorageV2.sol\":692:702  return age */\n      swap1\n      pop\n        /* \"contracts/PersonalDataStorageV2.sol\":636:710  function getAge() public view returns (uint) {... */\n      swap1\n      jump\t// out\n        /* \"contracts/PersonalDataStorageV2.sol\":374:449  function setName(string memory _name) public {... */\n    tag_24:\n        /* \"contracts/PersonalDataStorageV2.sol\":436:441  _name */\n      dup1\n        /* \"contracts/PersonalDataStorageV2.sol\":429:433  name */\n      0x00\n        /* \"contracts/PersonalDataStorageV2.sol\":429:441  name = _name */\n      swap1\n      dup2\n      tag_42\n      swap2\n      swap1\n      tag_43\n      jump\t// in\n    tag_42:\n      pop\n        /* \"contracts/PersonalDataStorageV2.sol\":374:449  function setName(string memory _name) public {... */\n      pop\n      jump\t// out\n        /* \"contracts/PersonalDataStorageV2.sol\":457:520  function setAge(uint _age) public {... */\n    tag_28:\n        /* \"contracts/PersonalDataStorageV2.sol\":508:512  _age */\n      dup1\n        /* \"contracts/PersonalDataStorageV2.sol\":502:505  age */\n      0x01\n        /* \"contracts/PersonalDataStorageV2.sol\":502:512  age = _age */\n      dup2\n      swap1\n      sstore\n      pop\n        /* \"contracts/PersonalDataStorageV2.sol\":457:520  function setAge(uint _age) public {... */\n      pop\n      jump\t// out\n        /* \"contracts/PersonalDataStorageV2.sol\":805:895  function getNacionalityBr() public view returns (bool) {... */\n    tag_30:\n        /* \"contracts/PersonalDataStorageV2.sol\":854:858  bool */\n      0x00\n        /* \"contracts/PersonalDataStorageV2.sol\":878:887  brazilian */\n      0x02\n      0x00\n      swap1\n      sload\n      swap1\n      0x0100\n      exp\n      swap1\n      div\n      0xff\n      and\n        /* \"contracts/PersonalDataStorageV2.sol\":871:887  return brazilian */\n      swap1\n      pop\n        /* \"contracts/PersonalDataStorageV2.sol\":805:895  function getNacionalityBr() public view returns (bool) {... */\n      swap1\n      jump\t// out\n        /* \"#utility.yul\":7:106   */\n    tag_46:\n        /* \"#utility.yul\":59:65   */\n      0x00\n        /* \"#utility.yul\":93:98   */\n      dup2\n        /* \"#utility.yul\":87:99   */\n      mload\n        /* \"#utility.yul\":77:99   */\n      swap1\n      pop\n        /* \"#utility.yul\":7:106   */\n      swap2\n      swap1\n      pop\n      jump\t// out\n        /* \"#utility.yul\":112:281   */\n    tag_47:\n        /* \"#utility.yul\":196:207   */\n      0x00\n        /* \"#utility.yul\":230:236   */\n      dup3\n        /* \"#utility.yul\":225:228   */\n      dup3\n        /* \"#utility.yul\":218:237   */\n      mstore\n        /* \"#utility.yul\":270:274   */\n      0x20\n        /* \"#utility.yul\":265:268   */\n      dup3\n        /* \"#utility.yul\":261:275   */\n      add\n        /* \"#utility.yul\":246:275   */\n      swap1\n      pop\n        /* \"#utility.yul\":112:281   */\n      swap3\n      swap2\n      pop\n      pop\n      jump\t// out\n        /* \"#utility.yul\":287:426   */\n    tag_48:\n        /* \"#utility.yul\":376:382   */\n      dup3\n        /* \"#utility.yul\":371:374   */\n      dup2\n        /* \"#utility.yul\":366:369   */\n      dup4\n        /* \"#utility.yul\":360:383   */\n      mcopy\n        /* \"#utility.yul\":417:418   */\n      0x00\n        /* \"#utility.yul\":408:414   */\n      dup4\n        /* \"#utility.yul\":403:406   */\n      dup4\n        /* \"#utility.yul\":399:415   */\n      add\n        /* \"#utility.yul\":392:419   */\n      mstore\n        /* \"#utility.yul\":287:426   */\n      pop\n      pop\n      pop\n      jump\t// out\n        /* \"#utility.yul\":432:534   */\n    tag_49:\n        /* \"#utility.yul\":473:479   */\n      0x00\n        /* \"#utility.yul\":524:526   */\n      0x1f\n        /* \"#utility.yul\":520:527   */\n      not\n        /* \"#utility.yul\":515:517   */\n      0x1f\n        /* \"#utility.yul\":508:513   */\n      dup4\n        /* \"#utility.yul\":504:518   */\n      add\n        /* \"#utility.yul\":500:528   */\n      and\n        /* \"#utility.yul\":490:528   */\n      swap1\n      pop\n        /* \"#utility.yul\":432:534   */\n      swap2\n      swap1\n      pop\n      jump\t// out\n        /* \"#utility.yul\":540:917   */\n    tag_50:\n        /* \"#utility.yul\":628:631   */\n      0x00\n        /* \"#utility.yul\":656:695   */\n      tag_93\n        /* \"#utility.yul\":689:694   */\n      dup3\n        /* \"#utility.yul\":656:695   */\n      tag_46\n      jump\t// in\n    tag_93:\n        /* \"#utility.yul\":711:782   */\n      tag_94\n        /* \"#utility.yul\":775:781   */\n      dup2\n        /* \"#utility.yul\":770:773   */\n      dup6\n        /* \"#utility.yul\":711:782   */\n      tag_47\n      jump\t// in\n    tag_94:\n        /* \"#utility.yul\":704:782   */\n      swap4\n      pop\n        /* \"#utility.yul\":791:856   */\n      tag_95\n        /* \"#utility.yul\":849:855   */\n      dup2\n        /* \"#utility.yul\":844:847   */\n      dup6\n        /* \"#utility.yul\":837:841   */\n      0x20\n        /* \"#utility.yul\":830:835   */\n      dup7\n        /* \"#utility.yul\":826:842   */\n      add\n        /* \"#utility.yul\":791:856   */\n      tag_48\n      jump\t// in\n    tag_95:\n        /* \"#utility.yul\":881:910   */\n      tag_96\n        /* \"#utility.yul\":903:909   */\n      dup2\n        /* \"#utility.yul\":881:910   */\n      tag_49\n      jump\t// in\n    tag_96:\n        /* \"#utility.yul\":876:879   */\n      dup5\n        /* \"#utility.yul\":872:911   */\n      add\n        /* \"#utility.yul\":865:911   */\n      swap2\n      pop\n        /* \"#utility.yul\":632:917   */\n      pop\n        /* \"#utility.yul\":540:917   */\n      swap3\n      swap2\n      pop\n      pop\n      jump\t// out\n        /* \"#utility.yul\":923:1236   */\n    tag_12:\n        /* \"#utility.yul\":1036:1040   */\n      0x00\n        /* \"#utility.yul\":1074:1076   */\n      0x20\n        /* \"#utility.yul\":1063:1072   */\n      dup3\n        /* \"#utility.yul\":1059:1077   */\n      add\n        /* \"#utility.yul\":1051:1077   */\n      swap1\n      pop\n        /* \"#utility.yul\":1123:1132   */\n      dup2\n        /* \"#utility.yul\":1117:1121   */\n      dup2\n        /* \"#utility.yul\":1113:1133   */\n      sub\n        /* \"#utility.yul\":1109:1110   */\n      0x00\n        /* \"#utility.yul\":1098:1107   */\n      dup4\n        /* \"#utility.yul\":1094:1111   */\n      add\n        /* \"#utility.yul\":1087:1134   */\n      mstore\n        /* \"#utility.yul\":1151:1229   */\n      tag_98\n        /* \"#utility.yul\":1224:1228   */\n      dup2\n        /* \"#utility.yul\":1215:1221   */\n      dup5\n        /* \"#utility.yul\":1151:1229   */\n      tag_50\n      jump\t// in\n    tag_98:\n        /* \"#utility.yul\":1143:1229   */\n      swap1\n      pop\n        /* \"#utility.yul\":923:1236   */\n      swap3\n      swap2\n      pop\n      pop\n      jump\t// out\n        /* \"#utility.yul\":1242:1317   */\n    tag_51:\n        /* \"#utility.yul\":1275:1281   */\n      0x00\n        /* \"#utility.yul\":1308:1310   */\n      0x40\n        /* \"#utility.yul\":1302:1311   */\n      mload\n        /* \"#utility.yul\":1292:1311   */\n      swap1\n      pop\n        /* \"#utility.yul\":1242:1317   */\n      swap1\n      jump\t// out\n        /* \"#utility.yul\":1323:1440   */\n    tag_52:\n        /* \"#utility.yul\":1432:1433   */\n      0x00\n        /* \"#utility.yul\":1429:1430   */\n      dup1\n        /* \"#utility.yul\":1422:1434   */\n      revert\n        /* \"#utility.yul\":1446:1563   */\n    tag_53:\n        /* \"#utility.yul\":1555:1556   */\n      0x00\n        /* \"#utility.yul\":1552:1553   */\n      dup1\n        /* \"#utility.yul\":1545:1557   */\n      revert\n        /* \"#utility.yul\":1569:1659   */\n    tag_54:\n        /* \"#utility.yul\":1603:1610   */\n      0x00\n        /* \"#utility.yul\":1646:1651   */\n      dup2\n        /* \"#utility.yul\":1639:1652   */\n      iszero\n        /* \"#utility.yul\":1632:1653   */\n      iszero\n        /* \"#utility.yul\":1621:1653   */\n      swap1\n      pop\n        /* \"#utility.yul\":1569:1659   */\n      swap2\n      swap1\n      pop\n      jump\t// out\n        /* \"#utility.yul\":1665:1781   */\n    tag_55:\n        /* \"#utility.yul\":1735:1756   */\n      tag_104\n        /* \"#utility.yul\":1750:1755   */\n      dup2\n        /* \"#utility.yul\":1735:1756   */\n      tag_54\n      jump\t// in\n    tag_104:\n        /* \"#utility.yul\":1728:1733   */\n      dup2\n        /* \"#utility.yul\":1725:1757   */\n      eq\n        /* \"#utility.yul\":1715:1775   */\n      tag_105\n      jumpi\n        /* \"#utility.yul\":1771:1772   */\n      0x00\n        /* \"#utility.yul\":1768:1769   */\n      dup1\n        /* \"#utility.yul\":1761:1773   */\n      revert\n        /* \"#utility.yul\":1715:1775   */\n    tag_105:\n        /* \"#utility.yul\":1665:1781   */\n      pop\n      jump\t// out\n        /* \"#utility.yul\":1787:1920   */\n    tag_56:\n        /* \"#utility.yul\":1830:1835   */\n      0x00\n        /* \"#utility.yul\":1868:1874   */\n      dup2\n        /* \"#utility.yul\":1855:1875   */\n      calldataload\n        /* \"#utility.yul\":1846:1875   */\n      swap1\n      pop\n        /* \"#utility.yul\":1884:1914   */\n      tag_107\n        /* \"#utility.yul\":1908:1913   */\n      dup2\n        /* \"#utility.yul\":1884:1914   */\n      tag_55\n      jump\t// in\n    tag_107:\n        /* \"#utility.yul\":1787:1920   */\n      swap3\n      swap2\n      pop\n      pop\n      jump\t// out\n        /* \"#utility.yul\":1926:2249   */\n    tag_15:\n        /* \"#utility.yul\":1982:1988   */\n      0x00\n        /* \"#utility.yul\":2031:2033   */\n      0x20\n        /* \"#utility.yul\":2019:2028   */\n      dup3\n        /* \"#utility.yul\":2010:2017   */\n      dup5\n        /* \"#utility.yul\":2006:2029   */\n      sub\n        /* \"#utility.yul\":2002:2034   */\n      slt\n        /* \"#utility.yul\":1999:2118   */\n      iszero\n      tag_109\n      jumpi\n        /* \"#utility.yul\":2037:2116   */\n      tag_110\n      tag_52\n      jump\t// in\n    tag_110:\n        /* \"#utility.yul\":1999:2118   */\n    tag_109:\n        /* \"#utility.yul\":2157:2158   */\n      0x00\n        /* \"#utility.yul\":2182:2232   */\n      tag_111\n        /* \"#utility.yul\":2224:2231   */\n      dup5\n        /* \"#utility.yul\":2215:2221   */\n      dup3\n        /* \"#utility.yul\":2204:2213   */\n      dup6\n        /* \"#utility.yul\":2200:2222   */\n      add\n        /* \"#utility.yul\":2182:2232   */\n      tag_56\n      jump\t// in\n    tag_111:\n        /* \"#utility.yul\":2172:2232   */\n      swap2\n      pop\n        /* \"#utility.yul\":2128:2242   */\n      pop\n        /* \"#utility.yul\":1926:2249   */\n      swap3\n      swap2\n      pop\n      pop\n      jump\t// out\n        /* \"#utility.yul\":2255:2332   */\n    tag_57:\n        /* \"#utility.yul\":2292:2299   */\n      0x00\n        /* \"#utility.yul\":2321:2326   */\n      dup2\n        /* \"#utility.yul\":2310:2326   */\n      swap1\n      pop\n        /* \"#utility.yul\":2255:2332   */\n      swap2\n      swap1\n      pop\n      jump\t// out\n        /* \"#utility.yul\":2338:2456   */\n    tag_58:\n        /* \"#utility.yul\":2425:2449   */\n      tag_114\n        /* \"#utility.yul\":2443:2448   */\n      dup2\n        /* \"#utility.yul\":2425:2449   */\n      tag_57\n      jump\t// in\n    tag_114:\n        /* \"#utility.yul\":2420:2423   */\n      dup3\n        /* \"#utility.yul\":2413:2450   */\n      mstore\n        /* \"#utility.yul\":2338:2456   */\n      pop\n      pop\n      jump\t// out\n        /* \"#utility.yul\":2462:2684   */\n    tag_20:\n        /* \"#utility.yul\":2555:2559   */\n      0x00\n        /* \"#utility.yul\":2593:2595   */\n      0x20\n        /* \"#utility.yul\":2582:2591   */\n      dup3\n        /* \"#utility.yul\":2578:2596   */\n      add\n        /* \"#utility.yul\":2570:2596   */\n      swap1\n      pop\n        /* \"#utility.yul\":2606:2677   */\n      tag_116\n        /* \"#utility.yul\":2674:2675   */\n      0x00\n        /* \"#utility.yul\":2663:2672   */\n      dup4\n        /* \"#utility.yul\":2659:2676   */\n      add\n        /* \"#utility.yul\":2650:2656   */\n      dup5\n        /* \"#utility.yul\":2606:2677   */\n      tag_58\n      jump\t// in\n    tag_116:\n        /* \"#utility.yul\":2462:2684   */\n      swap3\n      swap2\n      pop\n      pop\n      jump\t// out\n        /* \"#utility.yul\":2690:2807   */\n    tag_59:\n        /* \"#utility.yul\":2799:2800   */\n      0x00\n        /* \"#utility.yul\":2796:2797   */\n      dup1\n        /* \"#utility.yul\":2789:2801   */\n      revert\n        /* \"#utility.yul\":2813:2930   */\n    tag_60:\n        /* \"#utility.yul\":2922:2923   */\n      0x00\n        /* \"#utility.yul\":2919:2920   */\n      dup1\n        /* \"#utility.yul\":2912:2924   */\n      revert\n        /* \"#utility.yul\":2936:3116   */\n    tag_61:\n        /* \"#utility.yul\":2984:3061   */\n      0x4e487b7100000000000000000000000000000000000000000000000000000000\n        /* \"#utility.yul\":2981:2982   */\n      0x00\n        /* \"#utility.yul\":2974:3062   */\n      mstore\n        /* \"#utility.yul\":3081:3085   */\n      0x41\n        /* \"#utility.yul\":3078:3079   */\n      0x04\n        /* \"#utility.yul\":3071:3086   */\n      mstore\n        /* \"#utility.yul\":3105:3109   */\n      0x24\n        /* \"#utility.yul\":3102:3103   */\n      0x00\n        /* \"#utility.yul\":3095:3110   */\n      revert\n        /* \"#utility.yul\":3122:3403   */\n    tag_62:\n        /* \"#utility.yul\":3205:3232   */\n      tag_121\n        /* \"#utility.yul\":3227:3231   */\n      dup3\n        /* \"#utility.yul\":3205:3232   */\n      tag_49\n      jump\t// in\n    tag_121:\n        /* \"#utility.yul\":3197:3203   */\n      dup2\n        /* \"#utility.yul\":3193:3233   */\n      add\n        /* \"#utility.yul\":3335:3341   */\n      dup2\n        /* \"#utility.yul\":3323:3333   */\n      dup2\n        /* \"#utility.yul\":3320:3342   */\n      lt\n        /* \"#utility.yul\":3299:3317   */\n      0xffffffffffffffff\n        /* \"#utility.yul\":3287:3297   */\n      dup3\n        /* \"#utility.yul\":3284:3318   */\n      gt\n        /* \"#utility.yul\":3281:3343   */\n      or\n        /* \"#utility.yul\":3278:3366   */\n      iszero\n      tag_122\n      jumpi\n        /* \"#utility.yul\":3346:3364   */\n      tag_123\n      tag_61\n      jump\t// in\n    tag_123:\n        /* \"#utility.yul\":3278:3366   */\n    tag_122:\n        /* \"#utility.yul\":3386:3396   */\n      dup1\n        /* \"#utility.yul\":3382:3384   */\n      0x40\n        /* \"#utility.yul\":3375:3397   */\n      mstore\n        /* \"#utility.yul\":3165:3403   */\n      pop\n        /* \"#utility.yul\":3122:3403   */\n      pop\n      pop\n      jump\t// out\n        /* \"#utility.yul\":3409:3538   */\n    tag_63:\n        /* \"#utility.yul\":3443:3449   */\n      0x00\n        /* \"#utility.yul\":3470:3490   */\n      tag_125\n      tag_51\n      jump\t// in\n    tag_125:\n        /* \"#utility.yul\":3460:3490   */\n      swap1\n      pop\n        /* \"#utility.yul\":3499:3532   */\n      tag_126\n        /* \"#utility.yul\":3527:3531   */\n      dup3\n        /* \"#utility.yul\":3519:3525   */\n      dup3\n        /* \"#utility.yul\":3499:3532   */\n      tag_62\n      jump\t// in\n    tag_126:\n        /* \"#utility.yul\":3409:3538   */\n      swap2\n      swap1\n      pop\n      jump\t// out\n        /* \"#utility.yul\":3544:3852   */\n    tag_64:\n        /* \"#utility.yul\":3606:3610   */\n      0x00\n        /* \"#utility.yul\":3696:3714   */\n      0xffffffffffffffff\n        /* \"#utility.yul\":3688:3694   */\n      dup3\n        /* \"#utility.yul\":3685:3715   */\n      gt\n        /* \"#utility.yul\":3682:3738   */\n      iszero\n      tag_128\n      jumpi\n        /* \"#utility.yul\":3718:3736   */\n      tag_129\n      tag_61\n      jump\t// in\n    tag_129:\n        /* \"#utility.yul\":3682:3738   */\n    tag_128:\n        /* \"#utility.yul\":3756:3785   */\n      tag_130\n        /* \"#utility.yul\":3778:3784   */\n      dup3\n        /* \"#utility.yul\":3756:3785   */\n      tag_49\n      jump\t// in\n    tag_130:\n        /* \"#utility.yul\":3748:3785   */\n      swap1\n      pop\n        /* \"#utility.yul\":3840:3844   */\n      0x20\n        /* \"#utility.yul\":3834:3838   */\n      dup2\n        /* \"#utility.yul\":3830:3845   */\n      add\n        /* \"#utility.yul\":3822:3845   */\n      swap1\n      pop\n        /* \"#utility.yul\":3544:3852   */\n      swap2\n      swap1\n      pop\n      jump\t// out\n        /* \"#utility.yul\":3858:4006   */\n    tag_65:\n        /* \"#utility.yul\":3956:3962   */\n      dup3\n        /* \"#utility.yul\":3951:3954   */\n      dup2\n        /* \"#utility.yul\":3946:3949   */\n      dup4\n        /* \"#utility.yul\":3933:3963   */\n      calldatacopy\n        /* \"#utility.yul\":3997:3998   */\n      0x00\n        /* \"#utility.yul\":3988:3994   */\n      dup4\n        /* \"#utility.yul\":3983:3986   */\n      dup4\n        /* \"#utility.yul\":3979:3995   */\n      add\n        /* \"#utility.yul\":3972:3999   */\n      mstore\n        /* \"#utility.yul\":3858:4006   */\n      pop\n      pop\n      pop\n      jump\t// out\n        /* \"#utility.yul\":4012:4437   */\n    tag_66:\n        /* \"#utility.yul\":4090:4095   */\n      0x00\n        /* \"#utility.yul\":4115:4181   */\n      tag_133\n        /* \"#utility.yul\":4131:4180   */\n      tag_134\n        /* \"#utility.yul\":4173:4179   */\n      dup5\n        /* \"#utility.yul\":4131:4180   */\n      tag_64\n      jump\t// in\n    tag_134:\n        /* \"#utility.yul\":4115:4181   */\n      tag_63\n      jump\t// in\n    tag_133:\n        /* \"#utility.yul\":4106:4181   */\n      swap1\n      pop\n        /* \"#utility.yul\":4204:4210   */\n      dup3\n        /* \"#utility.yul\":4197:4202   */\n      dup2\n        /* \"#utility.yul\":4190:4211   */\n      mstore\n        /* \"#utility.yul\":4242:4246   */\n      0x20\n        /* \"#utility.yul\":4235:4240   */\n      dup2\n        /* \"#utility.yul\":4231:4247   */\n      add\n        /* \"#utility.yul\":4280:4283   */\n      dup5\n        /* \"#utility.yul\":4271:4277   */\n      dup5\n        /* \"#utility.yul\":4266:4269   */\n      dup5\n        /* \"#utility.yul\":4262:4278   */\n      add\n        /* \"#utility.yul\":4259:4284   */\n      gt\n        /* \"#utility.yul\":4256:4368   */\n      iszero\n      tag_135\n      jumpi\n        /* \"#utility.yul\":4287:4366   */\n      tag_136\n      tag_60\n      jump\t// in\n    tag_136:\n        /* \"#utility.yul\":4256:4368   */\n    tag_135:\n        /* \"#utility.yul\":4377:4431   */\n      tag_137\n        /* \"#utility.yul\":4424:4430   */\n      dup5\n        /* \"#utility.yul\":4419:4422   */\n      dup3\n        /* \"#utility.yul\":4414:4417   */\n      dup6\n        /* \"#utility.yul\":4377:4431   */\n      tag_65\n      jump\t// in\n    tag_137:\n        /* \"#utility.yul\":4096:4437   */\n      pop\n        /* \"#utility.yul\":4012:4437   */\n      swap4\n      swap3\n      pop\n      pop\n      pop\n      jump\t// out\n        /* \"#utility.yul\":4457:4797   */\n    tag_67:\n        /* \"#utility.yul\":4513:4518   */\n      0x00\n        /* \"#utility.yul\":4562:4565   */\n      dup3\n        /* \"#utility.yul\":4555:4559   */\n      0x1f\n        /* \"#utility.yul\":4547:4553   */\n      dup4\n        /* \"#utility.yul\":4543:4560   */\n      add\n        /* \"#utility.yul\":4539:4566   */\n      slt\n        /* \"#utility.yul\":4529:4651   */\n      tag_139\n      jumpi\n        /* \"#utility.yul\":4570:4649   */\n      tag_140\n      tag_59\n      jump\t// in\n    tag_140:\n        /* \"#utility.yul\":4529:4651   */\n    tag_139:\n        /* \"#utility.yul\":4687:4693   */\n      dup2\n        /* \"#utility.yul\":4674:4694   */\n      calldataload\n        /* \"#utility.yul\":4712:4791   */\n      tag_141\n        /* \"#utility.yul\":4787:4790   */\n      dup5\n        /* \"#utility.yul\":4779:4785   */\n      dup3\n        /* \"#utility.yul\":4772:4776   */\n      0x20\n        /* \"#utility.yul\":4764:4770   */\n      dup7\n        /* \"#utility.yul\":4760:4777   */\n      add\n        /* \"#utility.yul\":4712:4791   */\n      tag_66\n      jump\t// in\n    tag_141:\n        /* \"#utility.yul\":4703:4791   */\n      swap2\n      pop\n        /* \"#utility.yul\":4519:4797   */\n      pop\n        /* \"#utility.yul\":4457:4797   */\n      swap3\n      swap2\n      pop\n      pop\n      jump\t// out\n        /* \"#utility.yul\":4803:5312   */\n    tag_23:\n        /* \"#utility.yul\":4872:4878   */\n      0x00\n        /* \"#utility.yul\":4921:4923   */\n      0x20\n        /* \"#utility.yul\":4909:4918   */\n      dup3\n        /* \"#utility.yul\":4900:4907   */\n      dup5\n        /* \"#utility.yul\":4896:4919   */\n      sub\n        /* \"#utility.yul\":4892:4924   */\n      slt\n        /* \"#utility.yul\":4889:5008   */\n      iszero\n      tag_143\n      jumpi\n        /* \"#utility.yul\":4927:5006   */\n      tag_144\n      tag_52\n      jump\t// in\n    tag_144:\n        /* \"#utility.yul\":4889:5008   */\n    tag_143:\n        /* \"#utility.yul\":5075:5076   */\n      0x00\n        /* \"#utility.yul\":5064:5073   */\n      dup3\n        /* \"#utility.yul\":5060:5077   */\n      add\n        /* \"#utility.yul\":5047:5078   */\n      calldataload\n        /* \"#utility.yul\":5105:5123   */\n      0xffffffffffffffff\n        /* \"#utility.yul\":5097:5103   */\n      dup2\n        /* \"#utility.yul\":5094:5124   */\n      gt\n        /* \"#utility.yul\":5091:5208   */\n      iszero\n      tag_145\n      jumpi\n        /* \"#utility.yul\":5127:5206   */\n      tag_146\n      tag_53\n      jump\t// in\n    tag_146:\n        /* \"#utility.yul\":5091:5208   */\n    tag_145:\n        /* \"#utility.yul\":5232:5295   */\n      tag_147\n        /* \"#utility.yul\":5287:5294   */\n      dup5\n        /* \"#utility.yul\":5278:5284   */\n      dup3\n        /* \"#utility.yul\":5267:5276   */\n      dup6\n        /* \"#utility.yul\":5263:5285   */\n      add\n        /* \"#utility.yul\":5232:5295   */\n      tag_67\n      jump\t// in\n    tag_147:\n        /* \"#utility.yul\":5222:5295   */\n      swap2\n      pop\n        /* \"#utility.yul\":5018:5305   */\n      pop\n        /* \"#utility.yul\":4803:5312   */\n      swap3\n      swap2\n      pop\n      pop\n      jump\t// out\n        /* \"#utility.yul\":5318:5440   */\n    tag_68:\n        /* \"#utility.yul\":5391:5415   */\n      tag_149\n        /* \"#utility.yul\":5409:5414   */\n      dup2\n        /* \"#utility.yul\":5391:5415   */\n      tag_57\n      jump\t// in\n    tag_149:\n        /* \"#utility.yul\":5384:5389   */\n      dup2\n        /* \"#utility.yul\":5381:5416   */\n      eq\n        /* \"#utility.yul\":5371:5434   */\n      tag_150\n      jumpi\n        /* \"#utility.yul\":5430:5431   */\n      0x00\n        /* \"#utility.yul\":5427:5428   */\n      dup1\n        /* \"#utility.yul\":5420:5432   */\n      revert\n        /* \"#utility.yul\":5371:5434   */\n    tag_150:\n        /* \"#utility.yul\":5318:5440   */\n      pop\n      jump\t// out\n        /* \"#utility.yul\":5446:5585   */\n    tag_69:\n        /* \"#utility.yul\":5492:5497   */\n      0x00\n        /* \"#utility.yul\":5530:5536   */\n      dup2\n        /* \"#utility.yul\":5517:5537   */\n      calldataload\n        /* \"#utility.yul\":5508:5537   */\n      swap1\n      pop\n        /* \"#utility.yul\":5546:5579   */\n      tag_152\n        /* \"#utility.yul\":5573:5578   */\n      dup2\n        /* \"#utility.yul\":5546:5579   */\n      tag_68\n      jump\t// in\n    tag_152:\n        /* \"#utility.yul\":5446:5585   */\n      swap3\n      swap2\n      pop\n      pop\n      jump\t// out\n        /* \"#utility.yul\":5591:5920   */\n    tag_27:\n        /* \"#utility.yul\":5650:5656   */\n      0x00\n        /* \"#utility.yul\":5699:5701   */\n      0x20\n        /* \"#utility.yul\":5687:5696   */\n      dup3\n        /* \"#utility.yul\":5678:5685   */\n      dup5\n        /* \"#utility.yul\":5674:5697   */\n      sub\n        /* \"#utility.yul\":5670:5702   */\n      slt\n        /* \"#utility.yul\":5667:5786   */\n      iszero\n      tag_154\n      jumpi\n        /* \"#utility.yul\":5705:5784   */\n      tag_155\n      tag_52\n      jump\t// in\n    tag_155:\n        /* \"#utility.yul\":5667:5786   */\n    tag_154:\n        /* \"#utility.yul\":5825:5826   */\n      0x00\n        /* \"#utility.yul\":5850:5903   */\n      tag_156\n        /* \"#utility.yul\":5895:5902   */\n      dup5\n        /* \"#utility.yul\":5886:5892   */\n      dup3\n        /* \"#utility.yul\":5875:5884   */\n      dup6\n        /* \"#utility.yul\":5871:5893   */\n      add\n        /* \"#utility.yul\":5850:5903   */\n      tag_69\n      jump\t// in\n    tag_156:\n        /* \"#utility.yul\":5840:5903   */\n      swap2\n      pop\n        /* \"#utility.yul\":5796:5913   */\n      pop\n        /* \"#utility.yul\":5591:5920   */\n      swap3\n      swap2\n      pop\n      pop\n      jump\t// out\n        /* \"#utility.yul\":5926:6035   */\n    tag_70:\n        /* \"#utility.yul\":6007:6028   */\n      tag_158\n        /* \"#utility.yul\":6022:6027   */\n      dup2\n        /* \"#utility.yul\":6007:6028   */\n      tag_54\n      jump\t// in\n    tag_158:\n        /* \"#utility.yul\":6002:6005   */\n      dup3\n        /* \"#utility.yul\":5995:6029   */\n      mstore\n        /* \"#utility.yul\":5926:6035   */\n      pop\n      pop\n      jump\t// out\n        /* \"#utility.yul\":6041:6251   */\n    tag_32:\n        /* \"#utility.yul\":6128:6132   */\n      0x00\n        /* \"#utility.yul\":6166:6168   */\n      0x20\n        /* \"#utility.yul\":6155:6164   */\n      dup3\n        /* \"#utility.yul\":6151:6169   */\n      add\n        /* \"#utility.yul\":6143:6169   */\n      swap1\n      pop\n        /* \"#utility.yul\":6179:6244   */\n      tag_160\n        /* \"#utility.yul\":6241:6242   */\n      0x00\n        /* \"#utility.yul\":6230:6239   */\n      dup4\n        /* \"#utility.yul\":6226:6243   */\n      add\n        /* \"#utility.yul\":6217:6223   */\n      dup5\n        /* \"#utility.yul\":6179:6244   */\n      tag_70\n      jump\t// in\n    tag_160:\n        /* \"#utility.yul\":6041:6251   */\n      swap3\n      swap2\n      pop\n      pop\n      jump\t// out\n        /* \"#utility.yul\":6257:6437   */\n    tag_71:\n        /* \"#utility.yul\":6305:6382   */\n      0x4e487b7100000000000000000000000000000000000000000000000000000000\n        /* \"#utility.yul\":6302:6303   */\n      0x00\n        /* \"#utility.yul\":6295:6383   */\n      mstore\n        /* \"#utility.yul\":6402:6406   */\n      0x22\n        /* \"#utility.yul\":6399:6400   */\n      0x04\n        /* \"#utility.yul\":6392:6407   */\n      mstore\n        /* \"#utility.yul\":6426:6430   */\n      0x24\n        /* \"#utility.yul\":6423:6424   */\n      0x00\n        /* \"#utility.yul\":6416:6431   */\n      revert\n        /* \"#utility.yul\":6443:6763   */\n    tag_34:\n        /* \"#utility.yul\":6487:6493   */\n      0x00\n        /* \"#utility.yul\":6524:6525   */\n      0x02\n        /* \"#utility.yul\":6518:6522   */\n      dup3\n        /* \"#utility.yul\":6514:6526   */\n      div\n        /* \"#utility.yul\":6504:6526   */\n      swap1\n      pop\n        /* \"#utility.yul\":6571:6572   */\n      0x01\n        /* \"#utility.yul\":6565:6569   */\n      dup3\n        /* \"#utility.yul\":6561:6573   */\n      and\n        /* \"#utility.yul\":6592:6610   */\n      dup1\n        /* \"#utility.yul\":6582:6663   */\n      tag_163\n      jumpi\n        /* \"#utility.yul\":6648:6652   */\n      0x7f\n        /* \"#utility.yul\":6640:6646   */\n      dup3\n        /* \"#utility.yul\":6636:6653   */\n      and\n        /* \"#utility.yul\":6626:6653   */\n      swap2\n      pop\n        /* \"#utility.yul\":6582:6663   */\n    tag_163:\n        /* \"#utility.yul\":6710:6712   */\n      0x20\n        /* \"#utility.yul\":6702:6708   */\n      dup3\n        /* \"#utility.yul\":6699:6713   */\n      lt\n        /* \"#utility.yul\":6679:6697   */\n      dup2\n        /* \"#utility.yul\":6676:6714   */\n      sub\n        /* \"#utility.yul\":6673:6757   */\n      tag_164\n      jumpi\n        /* \"#utility.yul\":6729:6747   */\n      tag_165\n      tag_71\n      jump\t// in\n    tag_165:\n        /* \"#utility.yul\":6673:6757   */\n    tag_164:\n        /* \"#utility.yul\":6494:6763   */\n      pop\n        /* \"#utility.yul\":6443:6763   */\n      swap2\n      swap1\n      pop\n      jump\t// out\n        /* \"#utility.yul\":6769:6910   */\n    tag_72:\n        /* \"#utility.yul\":6818:6822   */\n      0x00\n        /* \"#utility.yul\":6841:6844   */\n      dup2\n        /* \"#utility.yul\":6833:6844   */\n      swap1\n      pop\n        /* \"#utility.yul\":6864:6867   */\n      dup2\n        /* \"#utility.yul\":6861:6862   */\n      0x00\n        /* \"#utility.yul\":6854:6868   */\n      mstore\n        /* \"#utility.yul\":6898:6902   */\n      0x20\n        /* \"#utility.yul\":6895:6896   */\n      0x00\n        /* \"#utility.yul\":6885:6903   */\n      keccak256\n        /* \"#utility.yul\":6877:6903   */\n      swap1\n      pop\n        /* \"#utility.yul\":6769:6910   */\n      swap2\n      swap1\n      pop\n      jump\t// out\n        /* \"#utility.yul\":6916:7009   */\n    tag_73:\n        /* \"#utility.yul\":6953:6959   */\n      0x00\n        /* \"#utility.yul\":7000:7002   */\n      0x20\n        /* \"#utility.yul\":6995:6997   */\n      0x1f\n        /* \"#utility.yul\":6988:6993   */\n      dup4\n        /* \"#utility.yul\":6984:6998   */\n      add\n        /* \"#utility.yul\":6980:7003   */\n      div\n        /* \"#utility.yul\":6970:7003   */\n      swap1\n      pop\n        /* \"#utility.yul\":6916:7009   */\n      swap2\n      swap1\n      pop\n      jump\t// out\n        /* \"#utility.yul\":7015:7122   */\n    tag_74:\n        /* \"#utility.yul\":7059:7067   */\n      0x00\n        /* \"#utility.yul\":7109:7114   */\n      dup3\n        /* \"#utility.yul\":7103:7107   */\n      dup3\n        /* \"#utility.yul\":7099:7115   */\n      shl\n        /* \"#utility.yul\":7078:7115   */\n      swap1\n      pop\n        /* \"#utility.yul\":7015:7122   */\n      swap3\n      swap2\n      pop\n      pop\n      jump\t// out\n        /* \"#utility.yul\":7128:7521   */\n    tag_75:\n        /* \"#utility.yul\":7197:7203   */\n      0x00\n        /* \"#utility.yul\":7247:7248   */\n      0x08\n        /* \"#utility.yul\":7235:7245   */\n      dup4\n        /* \"#utility.yul\":7231:7249   */\n      mul\n        /* \"#utility.yul\":7270:7367   */\n      tag_170\n        /* \"#utility.yul\":7300:7366   */\n      0xffffffffffffffffffffffffffffffffffffffffffffffffffffffffffffffff\n        /* \"#utility.yul\":7289:7298   */\n      dup3\n        /* \"#utility.yul\":7270:7367   */\n      tag_74\n      jump\t// in\n    tag_170:\n        /* \"#utility.yul\":7388:7427   */\n      tag_171\n        /* \"#utility.yul\":7418:7426   */\n      dup7\n        /* \"#utility.yul\":7407:7416   */\n      dup4\n        /* \"#utility.yul\":7388:7427   */\n      tag_74\n      jump\t// in\n    tag_171:\n        /* \"#utility.yul\":7376:7427   */\n      swap6\n      pop\n        /* \"#utility.yul\":7460:7464   */\n      dup1\n        /* \"#utility.yul\":7456:7465   */\n      not\n        /* \"#utility.yul\":7449:7454   */\n      dup5\n        /* \"#utility.yul\":7445:7466   */\n      and\n        /* \"#utility.yul\":7436:7466   */\n      swap4\n      pop\n        /* \"#utility.yul\":7509:7513   */\n      dup1\n        /* \"#utility.yul\":7499:7507   */\n      dup7\n        /* \"#utility.yul\":7495:7514   */\n      and\n        /* \"#utility.yul\":7488:7493   */\n      dup5\n        /* \"#utility.yul\":7485:7515   */\n      or\n        /* \"#utility.yul\":7475:7515   */\n      swap3\n      pop\n        /* \"#utility.yul\":7204:7521   */\n      pop\n      pop\n        /* \"#utility.yul\":7128:7521   */\n      swap4\n      swap3\n      pop\n      pop\n      pop\n      jump\t// out\n        /* \"#utility.yul\":7527:7587   */\n    tag_76:\n        /* \"#utility.yul\":7555:7558   */\n      0x00\n        /* \"#utility.yul\":7576:7581   */\n      dup2\n        /* \"#utility.yul\":7569:7581   */\n      swap1\n      pop\n        /* \"#utility.yul\":7527:7587   */\n      swap2\n      swap1\n      pop\n      jump\t// out\n        /* \"#utility.yul\":7593:7735   */\n    tag_77:\n        /* \"#utility.yul\":7643:7652   */\n      0x00\n        /* \"#utility.yul\":7676:7729   */\n      tag_174\n        /* \"#utility.yul\":7694:7728   */\n      tag_175\n        /* \"#utility.yul\":7703:7727   */\n      tag_176\n        /* \"#utility.yul\":7721:7726   */\n      dup5\n        /* \"#utility.yul\":7703:7727   */\n      tag_57\n      jump\t// in\n    tag_176:\n        /* \"#utility.yul\":7694:7728   */\n      tag_76\n      jump\t// in\n    tag_175:\n        /* \"#utility.yul\":7676:7729   */\n      tag_57\n      jump\t// in\n    tag_174:\n        /* \"#utility.yul\":7663:7729   */\n      swap1\n      pop\n        /* \"#utility.yul\":7593:7735   */\n      swap2\n      swap1\n      pop\n      jump\t// out\n        /* \"#utility.yul\":7741:7816   */\n    tag_78:\n        /* \"#utility.yul\":7784:7787   */\n      0x00\n        /* \"#utility.yul\":7805:7810   */\n      dup2\n        /* \"#utility.yul\":7798:7810   */\n      swap1\n      pop\n        /* \"#utility.yul\":7741:7816   */\n      swap2\n      swap1\n      pop\n      jump\t// out\n        /* \"#utility.yul\":7822:8091   */\n    tag_79:\n        /* \"#utility.yul\":7932:7971   */\n      tag_179\n        /* \"#utility.yul\":7963:7970   */\n      dup4\n        /* \"#utility.yul\":7932:7971   */\n      tag_77\n      jump\t// in\n    tag_179:\n        /* \"#utility.yul\":7993:8084   */\n      tag_180\n        /* \"#utility.yul\":8042:8083   */\n      tag_181\n        /* \"#utility.yul\":8066:8082   */\n      dup3\n        /* \"#utility.yul\":8042:8083   */\n      tag_78\n      jump\t// in\n    tag_181:\n        /* \"#utility.yul\":8034:8040   */\n      dup5\n        /* \"#utility.yul\":8027:8031   */\n      dup5\n        /* \"#utility.yul\":8021:8032   */\n      sload\n        /* \"#utility.yul\":7993:8084   */\n      tag_75\n      jump\t// in\n    tag_180:\n        /* \"#utility.yul\":7987:7991   */\n      dup3\n        /* \"#utility.yul\":7980:8085   */\n      sstore\n        /* \"#utility.yul\":7898:8091   */\n      pop\n        /* \"#utility.yul\":7822:8091   */\n      pop\n      pop\n      pop\n      jump\t// out\n        /* \"#utility.yul\":8097:8170   */\n    tag_80:\n        /* \"#utility.yul\":8142:8145   */\n      0x00\n        /* \"#utility.yul\":8097:8170   */\n      swap1\n      jump\t// out\n        /* \"#utility.yul\":8176:8365   */\n    tag_81:\n        /* \"#utility.yul\":8253:8285   */\n      tag_184\n      tag_80\n      jump\t// in\n    tag_184:\n        /* \"#utility.yul\":8294:8359   */\n      tag_185\n        /* \"#utility.yul\":8352:8358   */\n      dup2\n        /* \"#utility.yul\":8344:8350   */\n      dup5\n        /* \"#utility.yul\":8338:8342   */\n      dup5\n        /* \"#utility.yul\":8294:8359   */\n      tag_79\n      jump\t// in\n    tag_185:\n        /* \"#utility.yul\":8229:8365   */\n      pop\n        /* \"#utility.yul\":8176:8365   */\n      pop\n      pop\n      jump\t// out\n        /* \"#utility.yul\":8371:8557   */\n    tag_82:\n        /* \"#utility.yul\":8431:8551   */\n    tag_187:\n        /* \"#utility.yul\":8448:8451   */\n      dup2\n        /* \"#utility.yul\":8441:8446   */\n      dup2\n        /* \"#utility.yul\":8438:8452   */\n      lt\n        /* \"#utility.yul\":8431:8551   */\n      iszero\n      tag_189\n      jumpi\n        /* \"#utility.yul\":8502:8541   */\n      tag_190\n        /* \"#utility.yul\":8539:8540   */\n      0x00\n        /* \"#utility.yul\":8532:8537   */\n      dup3\n        /* \"#utility.yul\":8502:8541   */\n      tag_81\n      jump\t// in\n    tag_190:\n        /* \"#utility.yul\":8475:8476   */\n      0x01\n        /* \"#utility.yul\":8468:8473   */\n      dup2\n        /* \"#utility.yul\":8464:8477   */\n      add\n        /* \"#utility.yul\":8455:8477   */\n      swap1\n      pop\n        /* \"#utility.yul\":8431:8551   */\n      jump(tag_187)\n    tag_189:\n        /* \"#utility.yul\":8371:8557   */\n      pop\n      pop\n      jump\t// out\n        /* \"#utility.yul\":8563:9106   */\n    tag_83:\n        /* \"#utility.yul\":8664:8666   */\n      0x1f\n        /* \"#utility.yul\":8659:8662   */\n      dup3\n        /* \"#utility.yul\":8656:8667   */\n      gt\n        /* \"#utility.yul\":8653:9099   */\n      iszero\n      tag_192\n      jumpi\n        /* \"#utility.yul\":8698:8736   */\n      tag_193\n        /* \"#utility.yul\":8730:8735   */\n      dup2\n        /* \"#utility.yul\":8698:8736   */\n      tag_72\n      jump\t// in\n    tag_193:\n        /* \"#utility.yul\":8782:8811   */\n      tag_194\n        /* \"#utility.yul\":8800:8810   */\n      dup5\n        /* \"#utility.yul\":8782:8811   */\n      tag_73\n      jump\t// in\n    tag_194:\n        /* \"#utility.yul\":8772:8780   */\n      dup2\n        /* \"#utility.yul\":8768:8812   */\n      add\n        /* \"#utility.yul\":8965:8967   */\n      0x20\n        /* \"#utility.yul\":8953:8963   */\n      dup6\n        /* \"#utility.yul\":8950:8968   */\n      lt\n        /* \"#utility.yul\":8947:8996   */\n      iszero\n      tag_195\n      jumpi\n        /* \"#utility.yul\":8986:8994   */\n      dup2\n        /* \"#utility.yul\":8971:8994   */\n      swap1\n      pop\n        /* \"#utility.yul\":8947:8996   */\n    tag_195:\n        /* \"#utility.yul\":9009:9089   */\n      tag_196\n        /* \"#utility.yul\":9065:9087   */\n      tag_197\n        /* \"#utility.yul\":9083:9086   */\n      dup6\n        /* \"#utility.yul\":9065:9087   */\n      tag_73\n      jump\t// in\n    tag_197:\n        /* \"#utility.yul\":9055:9063   */\n      dup4\n        /* \"#utility.yul\":9051:9088   */\n      add\n        /* \"#utility.yul\":9038:9049   */\n      dup3\n        /* \"#utility.yul\":9009:9089   */\n      tag_82\n      jump\t// in\n    tag_196:\n        /* \"#utility.yul\":8668:9099   */\n      pop\n      pop\n        /* \"#utility.yul\":8653:9099   */\n    tag_192:\n        /* \"#utility.yul\":8563:9106   */\n      pop\n      pop\n      pop\n      jump\t// out\n        /* \"#utility.yul\":9112:9229   */\n    tag_84:\n        /* \"#utility.yul\":9166:9174   */\n      0x00\n        /* \"#utility.yul\":9216:9221   */\n      dup3\n        /* \"#utility.yul\":9210:9214   */\n      dup3\n        /* \"#utility.yul\":9206:9222   */\n      shr\n        /* \"#utility.yul\":9185:9222   */\n      swap1\n      pop\n        /* \"#utility.yul\":9112:9229   */\n      swap3\n      swap2\n      pop\n      pop\n      jump\t// out\n        /* \"#utility.yul\":9235:9404   */\n    tag_85:\n        /* \"#utility.yul\":9279:9285   */\n      0x00\n        /* \"#utility.yul\":9312:9363   */\n      tag_200\n        /* \"#utility.yul\":9360:9361   */\n      0x00\n        /* \"#utility.yul\":9356:9362   */\n      not\n        /* \"#utility.yul\":9348:9353   */\n      dup5\n        /* \"#utility.yul\":9345:9346   */\n      0x08\n        /* \"#utility.yul\":9341:9354   */\n      mul\n        /* \"#utility.yul\":9312:9363   */\n      tag_84\n      jump\t// in\n    tag_200:\n        /* \"#utility.yul\":9308:9364   */\n      not\n        /* \"#utility.yul\":9393:9397   */\n      dup1\n        /* \"#utility.yul\":9387:9391   */\n      dup4\n        /* \"#utility.yul\":9383:9398   */\n      and\n        /* \"#utility.yul\":9373:9398   */\n      swap2\n      pop\n        /* \"#utility.yul\":9286:9404   */\n      pop\n        /* \"#utility.yul\":9235:9404   */\n      swap3\n      swap2\n      pop\n      pop\n      jump\t// out\n        /* \"#utility.yul\":9409:9704   */\n    tag_86:\n        /* \"#utility.yul\":9485:9489   */\n      0x00\n        /* \"#utility.yul\":9631:9660   */\n      tag_202\n        /* \"#utility.yul\":9656:9659   */\n      dup4\n        /* \"#utility.yul\":9650:9654   */\n      dup4\n        /* \"#utility.yul\":9631:9660   */\n      tag_85\n      jump\t// in\n    tag_202:\n        /* \"#utility.yul\":9623:9660   */\n      swap2\n      pop\n        /* \"#utility.yul\":9693:9696   */\n      dup3\n        /* \"#utility.yul\":9690:9691   */\n      0x02\n        /* \"#utility.yul\":9686:9697   */\n      mul\n        /* \"#utility.yul\":9680:9684   */\n      dup3\n        /* \"#utility.yul\":9677:9698   */\n      or\n        /* \"#utility.yul\":9669:9698   */\n      swap1\n      pop\n        /* \"#utility.yul\":9409:9704   */\n      swap3\n      swap2\n      pop\n      pop\n      jump\t// out\n        /* \"#utility.yul\":9709:11104   */\n    tag_43:\n        /* \"#utility.yul\":9826:9863   */\n      tag_204\n        /* \"#utility.yul\":9859:9862   */\n      dup3\n        /* \"#utility.yul\":9826:9863   */\n      tag_46\n      jump\t// in\n    tag_204:\n        /* \"#utility.yul\":9928:9946   */\n      0xffffffffffffffff\n        /* \"#utility.yul\":9920:9926   */\n      dup2\n        /* \"#utility.yul\":9917:9947   */\n      gt\n        /* \"#utility.yul\":9914:9970   */\n      iszero\n      tag_205\n      jumpi\n        /* \"#utility.yul\":9950:9968   */\n      tag_206\n      tag_61\n      jump\t// in\n    tag_206:\n        /* \"#utility.yul\":9914:9970   */\n    tag_205:\n        /* \"#utility.yul\":9994:10032   */\n      tag_207\n        /* \"#utility.yul\":10026:10030   */\n      dup3\n        /* \"#utility.yul\":10020:10031   */\n      sload\n        /* \"#utility.yul\":9994:10032   */\n      tag_34\n      jump\t// in\n    tag_207:\n        /* \"#utility.yul\":10079:10146   */\n      tag_208\n        /* \"#utility.yul\":10139:10145   */\n      dup3\n        /* \"#utility.yul\":10131:10137   */\n      dup3\n        /* \"#utility.yul\":10125:10129   */\n      dup6\n        /* \"#utility.yul\":10079:10146   */\n      tag_83\n      jump\t// in\n    tag_208:\n        /* \"#utility.yul\":10173:10174   */\n      0x00\n        /* \"#utility.yul\":10197:10201   */\n      0x20\n        /* \"#utility.yul\":10184:10201   */\n      swap1\n      pop\n        /* \"#utility.yul\":10229:10231   */\n      0x1f\n        /* \"#utility.yul\":10221:10227   */\n      dup4\n        /* \"#utility.yul\":10218:10232   */\n      gt\n        /* \"#utility.yul\":10246:10247   */\n      0x01\n        /* \"#utility.yul\":10241:10859   */\n      dup2\n      eq\n      tag_210\n      jumpi\n        /* \"#utility.yul\":10903:10904   */\n      0x00\n        /* \"#utility.yul\":10920:10926   */\n      dup5\n        /* \"#utility.yul\":10917:10994   */\n      iszero\n      tag_211\n      jumpi\n        /* \"#utility.yul\":10969:10978   */\n      dup3\n        /* \"#utility.yul\":10964:10967   */\n      dup8\n        /* \"#utility.yul\":10960:10979   */\n      add\n        /* \"#utility.yul\":10954:10980   */\n      mload\n        /* \"#utility.yul\":10945:10980   */\n      swap1\n      pop\n        /* \"#utility.yul\":10917:10994   */\n    tag_211:\n        /* \"#utility.yul\":11020:11087   */\n      tag_212\n        /* \"#utility.yul\":11080:11086   */\n      dup6\n        /* \"#utility.yul\":11073:11078   */\n      dup3\n        /* \"#utility.yul\":11020:11087   */\n      tag_86\n      jump\t// in\n    tag_212:\n        /* \"#utility.yul\":11014:11018   */\n      dup7\n        /* \"#utility.yul\":11007:11088   */\n      sstore\n        /* \"#utility.yul\":10876:11098   */\n      pop\n        /* \"#utility.yul\":10211:11098   */\n      jump(tag_209)\n        /* \"#utility.yul\":10241:10859   */\n    tag_210:\n        /* \"#utility.yul\":10293:10297   */\n      0x1f\n        /* \"#utility.yul\":10289:10298   */\n      not\n        /* \"#utility.yul\":10281:10287   */\n      dup5\n        /* \"#utility.yul\":10277:10299   */\n      and\n        /* \"#utility.yul\":10327:10364   */\n      tag_213\n        /* \"#utility.yul\":10359:10363   */\n      dup7\n        /* \"#utility.yul\":10327:10364   */\n      tag_72\n      jump\t// in\n    tag_213:\n        /* \"#utility.yul\":10386:10387   */\n      0x00\n        /* \"#utility.yul\":10400:10608   */\n    tag_214:\n        /* \"#utility.yul\":10414:10421   */\n      dup3\n        /* \"#utility.yul\":10411:10412   */\n      dup2\n        /* \"#utility.yul\":10408:10422   */\n      lt\n        /* \"#utility.yul\":10400:10608   */\n      iszero\n      tag_216\n      jumpi\n        /* \"#utility.yul\":10493:10502   */\n      dup5\n        /* \"#utility.yul\":10488:10491   */\n      dup10\n        /* \"#utility.yul\":10484:10503   */\n      add\n        /* \"#utility.yul\":10478:10504   */\n      mload\n        /* \"#utility.yul\":10470:10476   */\n      dup3\n        /* \"#utility.yul\":10463:10505   */\n      sstore\n        /* \"#utility.yul\":10544:10545   */\n      0x01\n        /* \"#utility.yul\":10536:10542   */\n      dup3\n        /* \"#utility.yul\":10532:10546   */\n      add\n        /* \"#utility.yul\":10522:10546   */\n      swap2\n      pop\n        /* \"#utility.yul\":10591:10593   */\n      0x20\n        /* \"#utility.yul\":10580:10589   */\n      dup6\n        /* \"#utility.yul\":10576:10594   */\n      add\n        /* \"#utility.yul\":10563:10594   */\n      swap5\n      pop\n        /* \"#utility.yul\":10437:10441   */\n      0x20\n        /* \"#utility.yul\":10434:10435   */\n      dup2\n        /* \"#utility.yul\":10430:10442   */\n      add\n        /* \"#utility.yul\":10425:10442   */\n      swap1\n      pop\n        /* \"#utility.yul\":10400:10608   */\n      jump(tag_214)\n    tag_216:\n        /* \"#utility.yul\":10636:10642   */\n      dup7\n        /* \"#utility.yul\":10627:10634   */\n      dup4\n        /* \"#utility.yul\":10624:10643   */\n      lt\n        /* \"#utility.yul\":10621:10800   */\n      iszero\n      tag_217\n      jumpi\n        /* \"#utility.yul\":10694:10703   */\n      dup5\n        /* \"#utility.yul\":10689:10692   */\n      dup10\n        /* \"#utility.yul\":10685:10704   */\n      add\n        /* \"#utility.yul\":10679:10705   */\n      mload\n        /* \"#utility.yul\":10737:10785   */\n      tag_218\n        /* \"#utility.yul\":10779:10783   */\n      0x1f\n        /* \"#utility.yul\":10771:10777   */\n      dup10\n        /* \"#utility.yul\":10767:10784   */\n      and\n        /* \"#utility.yul\":10756:10765   */\n      dup3\n        /* \"#utility.yul\":10737:10785   */\n      tag_85\n      jump\t// in\n    tag_218:\n        /* \"#utility.yul\":10729:10735   */\n      dup4\n        /* \"#utility.yul\":10722:10786   */\n      sstore\n        /* \"#utility.yul\":10644:10800   */\n      pop\n        /* \"#utility.yul\":10621:10800   */\n    tag_217:\n        /* \"#utility.yul\":10846:10847   */\n      0x01\n        /* \"#utility.yul\":10842:10843   */\n      0x02\n        /* \"#utility.yul\":10834:10840   */\n      dup9\n        /* \"#utility.yul\":10830:10844   */\n      mul\n        /* \"#utility.yul\":10826:10848   */\n      add\n        /* \"#utility.yul\":10820:10824   */\n      dup9\n        /* \"#utility.yul\":10813:10849   */\n      sstore\n        /* \"#utility.yul\":10248:10859   */\n      pop\n      pop\n      pop\n        /* \"#utility.yul\":10211:11098   */\n    tag_209:\n      pop\n        /* \"#utility.yul\":9801:11104   */\n      pop\n      pop\n      pop\n        /* \"#utility.yul\":9709:11104   */\n      pop\n      pop\n      jump\t// out\n\n    auxdata: 0xa26469706673582212208b0c56003039e8723ec9800506588ea31cca1767cce7a42c62e3c7c2da2f635764736f6c634300081a0033\n}\n",
				"bytecode": {
					"linkReferences": {},
					"object": "608060405234801561000f575f80fd5b506040518060400160405280600881526020017f6a6572656d6961730000000000000000000000000000000000000000000000008152505f908161005391906102b5565b50600a600181905550600160025f6101000a81548160ff021916908315150217905550610384565b5f81519050919050565b7f4e487b71000000000000000000000000000000000000000000000000000000005f52604160045260245ffd5b7f4e487b71000000000000000000000000000000000000000000000000000000005f52602260045260245ffd5b5f60028204905060018216806100f657607f821691505b602082108103610109576101086100b2565b5b50919050565b5f819050815f5260205f209050919050565b5f6020601f8301049050919050565b5f82821b905092915050565b5f6008830261016b7fffffffffffffffffffffffffffffffffffffffffffffffffffffffffffffffff82610130565b6101758683610130565b95508019841693508086168417925050509392505050565b5f819050919050565b5f819050919050565b5f6101b96101b46101af8461018d565b610196565b61018d565b9050919050565b5f819050919050565b6101d28361019f565b6101e66101de826101c0565b84845461013c565b825550505050565b5f90565b6101fa6101ee565b6102058184846101c9565b505050565b5b818110156102285761021d5f826101f2565b60018101905061020b565b5050565b601f82111561026d5761023e8161010f565b61024784610121565b81016020851015610256578190505b61026a61026285610121565b83018261020a565b50505b505050565b5f82821c905092915050565b5f61028d5f1984600802610272565b1980831691505092915050565b5f6102a5838361027e565b9150826002028217905092915050565b6102be8261007b565b67ffffffffffffffff8111156102d7576102d6610085565b5b6102e182546100df565b6102ec82828561022c565b5f60209050601f83116001811461031d575f841561030b578287015190505b610315858261029a565b86555061037c565b601f19841661032b8661010f565b5f5b828110156103525784890151825560018201915060208501945060208101905061032d565b8683101561036f578489015161036b601f89168261027e565b8355505b6001600288020188555050505b505050505050565b610814806103915f395ff3fe608060405234801561000f575f80fd5b5060043610610060575f3560e01c806306fdde0314610064578063099c682c14610082578063967e6e651461009e578063c47f0027146100bc578063d5dcf127146100d8578063f553d48a146100f4575b5f80fd5b61006c610112565b6040516100799190610263565b60405180910390f35b61009c600480360381019061009791906102c9565b61019d565b005b6100a66101b9565b6040516100b3919061030c565b60405180910390f35b6100d660048036038101906100d19190610451565b6101c2565b005b6100f260048036038101906100ed91906104c2565b6101d4565b005b6100fc6101de565b60405161010991906104fc565b60405180910390f35b5f805461011e90610542565b80601f016020809104026020016040519081016040528092919081815260200182805461014a90610542565b80156101955780601f1061016c57610100808354040283529160200191610195565b820191905f5260205f20905b81548152906001019060200180831161017857829003601f168201915b505050505081565b8060025f6101000a81548160ff02191690831515021790555050565b5f600154905090565b805f90816101d0919061070f565b5050565b8060018190555050565b5f60025f9054906101000a900460ff16905090565b5f81519050919050565b5f82825260208201905092915050565b8281835e5f83830152505050565b5f601f19601f8301169050919050565b5f610235826101f3565b61023f81856101fd565b935061024f81856020860161020d565b6102588161021b565b840191505092915050565b5f6020820190508181035f83015261027b818461022b565b905092915050565b5f604051905090565b5f80fd5b5f80fd5b5f8115159050919050565b6102a881610294565b81146102b2575f80fd5b50565b5f813590506102c38161029f565b92915050565b5f602082840312156102de576102dd61028c565b5b5f6102eb848285016102b5565b91505092915050565b5f819050919050565b610306816102f4565b82525050565b5f60208201905061031f5f8301846102fd565b92915050565b5f80fd5b5f80fd5b7f4e487b71000000000000000000000000000000000000000000000000000000005f52604160045260245ffd5b6103638261021b565b810181811067ffffffffffffffff821117156103825761038161032d565b5b80604052505050565b5f610394610283565b90506103a0828261035a565b919050565b5f67ffffffffffffffff8211156103bf576103be61032d565b5b6103c88261021b565b9050602081019050919050565b828183375f83830152505050565b5f6103f56103f0846103a5565b61038b565b90508281526020810184848401111561041157610410610329565b5b61041c8482856103d5565b509392505050565b5f82601f83011261043857610437610325565b5b81356104488482602086016103e3565b91505092915050565b5f602082840312156104665761046561028c565b5b5f82013567ffffffffffffffff81111561048357610482610290565b5b61048f84828501610424565b91505092915050565b6104a1816102f4565b81146104ab575f80fd5b50565b5f813590506104bc81610498565b92915050565b5f602082840312156104d7576104d661028c565b5b5f6104e4848285016104ae565b91505092915050565b6104f681610294565b82525050565b5f60208201905061050f5f8301846104ed565b92915050565b7f4e487b71000000000000000000000000000000000000000000000000000000005f52602260045260245ffd5b5f600282049050600182168061055957607f821691505b60208210810361056c5761056b610515565b5b50919050565b5f819050815f5260205f209050919050565b5f6020601f8301049050919050565b5f82821b905092915050565b5f600883026105ce7fffffffffffffffffffffffffffffffffffffffffffffffffffffffffffffffff82610593565b6105d88683610593565b95508019841693508086168417925050509392505050565b5f819050919050565b5f61061361060e610609846102f4565b6105f0565b6102f4565b9050919050565b5f819050919050565b61062c836105f9565b6106406106388261061a565b84845461059f565b825550505050565b5f90565b610654610648565b61065f818484610623565b505050565b5b81811015610682576106775f8261064c565b600181019050610665565b5050565b601f8211156106c75761069881610572565b6106a184610584565b810160208510156106b0578190505b6106c46106bc85610584565b830182610664565b50505b505050565b5f82821c905092915050565b5f6106e75f19846008026106cc565b1980831691505092915050565b5f6106ff83836106d8565b9150826002028217905092915050565b610718826101f3565b67ffffffffffffffff8111156107315761073061032d565b5b61073b8254610542565b610746828285610686565b5f60209050601f831160018114610777575f8415610765578287015190505b61076f85826106f4565b8655506107d6565b601f19841661078586610572565b5f5b828110156107ac57848901518255600182019150602085019450602081019050610787565b868310156107c957848901516107c5601f8916826106d8565b8355505b6001600288020188555050505b50505050505056fea26469706673582212208b0c56003039e8723ec9800506588ea31cca1767cce7a42c62e3c7c2da2f635764736f6c634300081a0033",
					"opcodes": "PUSH1 0x80 PUSH1 0x40 MSTORE CALLVALUE DUP1 ISZERO PUSH2 0xF JUMPI PUSH0 DUP1 REVERT JUMPDEST POP PUSH1 0x40 MLOAD DUP1 PUSH1 0x40 ADD PUSH1 0x40 MSTORE DUP1 PUSH1 0x8 DUP2 MSTORE PUSH1 0x20 ADD PUSH32 0x6A6572656D696173000000000000000000000000000000000000000000000000 DUP2 MSTORE POP PUSH0 SWAP1 DUP2 PUSH2 0x53 SWAP2 SWAP1 PUSH2 0x2B5 JUMP JUMPDEST POP PUSH1 0xA PUSH1 0x1 DUP2 SWAP1 SSTORE POP PUSH1 0x1 PUSH1 0x2 PUSH0 PUSH2 0x100 EXP DUP2 SLOAD DUP2 PUSH1 0xFF MUL NOT AND SWAP1 DUP4 ISZERO ISZERO MUL OR SWAP1 SSTORE POP PUSH2 0x384 JUMP JUMPDEST PUSH0 DUP2 MLOAD SWAP1 POP SWAP2 SWAP1 POP JUMP JUMPDEST PUSH32 0x4E487B7100000000000000000000000000000000000000000000000000000000 PUSH0 MSTORE PUSH1 0x41 PUSH1 0x4 MSTORE PUSH1 0x24 PUSH0 REVERT JUMPDEST PUSH32 0x4E487B7100000000000000000000000000000000000000000000000000000000 PUSH0 MSTORE PUSH1 0x22 PUSH1 0x4 MSTORE PUSH1 0x24 PUSH0 REVERT JUMPDEST PUSH0 PUSH1 0x2 DUP3 DIV SWAP1 POP PUSH1 0x1 DUP3 AND DUP1 PUSH2 0xF6 JUMPI PUSH1 0x7F DUP3 AND SWAP2 POP JUMPDEST PUSH1 0x20 DUP3 LT DUP2 SUB PUSH2 0x109 JUMPI PUSH2 0x108 PUSH2 0xB2 JUMP JUMPDEST JUMPDEST POP SWAP2 SWAP1 POP JUMP JUMPDEST PUSH0 DUP2 SWAP1 POP DUP2 PUSH0 MSTORE PUSH1 0x20 PUSH0 KECCAK256 SWAP1 POP SWAP2 SWAP1 POP JUMP JUMPDEST PUSH0 PUSH1 0x20 PUSH1 0x1F DUP4 ADD DIV SWAP1 POP SWAP2 SWAP1 POP JUMP JUMPDEST PUSH0 DUP3 DUP3 SHL SWAP1 POP SWAP3 SWAP2 POP POP JUMP JUMPDEST PUSH0 PUSH1 0x8 DUP4 MUL PUSH2 0x16B PUSH32 0xFFFFFFFFFFFFFFFFFFFFFFFFFFFFFFFFFFFFFFFFFFFFFFFFFFFFFFFFFFFFFFFF DUP3 PUSH2 0x130 JUMP JUMPDEST PUSH2 0x175 DUP7 DUP4 PUSH2 0x130 JUMP JUMPDEST SWAP6 POP DUP1 NOT DUP5 AND SWAP4 POP DUP1 DUP7 AND DUP5 OR SWAP3 POP POP POP SWAP4 SWAP3 POP POP POP JUMP JUMPDEST PUSH0 DUP2 SWAP1 POP SWAP2 SWAP1 POP JUMP JUMPDEST PUSH0 DUP2 SWAP1 POP SWAP2 SWAP1 POP JUMP JUMPDEST PUSH0 PUSH2 0x1B9 PUSH2 0x1B4 PUSH2 0x1AF DUP5 PUSH2 0x18D JUMP JUMPDEST PUSH2 0x196 JUMP JUMPDEST PUSH2 0x18D JUMP JUMPDEST SWAP1 POP SWAP2 SWAP1 POP JUMP JUMPDEST PUSH0 DUP2 SWAP1 POP SWAP2 SWAP1 POP JUMP JUMPDEST PUSH2 0x1D2 DUP4 PUSH2 0x19F JUMP JUMPDEST PUSH2 0x1E6 PUSH2 0x1DE DUP3 PUSH2 0x1C0 JUMP JUMPDEST DUP5 DUP5 SLOAD PUSH2 0x13C JUMP JUMPDEST DUP3 SSTORE POP POP POP POP JUMP JUMPDEST PUSH0 SWAP1 JUMP JUMPDEST PUSH2 0x1FA PUSH2 0x1EE JUMP JUMPDEST PUSH2 0x205 DUP2 DUP5 DUP5 PUSH2 0x1C9 JUMP JUMPDEST POP POP POP JUMP JUMPDEST JUMPDEST DUP2 DUP2 LT ISZERO PUSH2 0x228 JUMPI PUSH2 0x21D PUSH0 DUP3 PUSH2 0x1F2 JUMP JUMPDEST PUSH1 0x1 DUP2 ADD SWAP1 POP PUSH2 0x20B JUMP JUMPDEST POP POP JUMP JUMPDEST PUSH1 0x1F DUP3 GT ISZERO PUSH2 0x26D JUMPI PUSH2 0x23E DUP2 PUSH2 0x10F JUMP JUMPDEST PUSH2 0x247 DUP5 PUSH2 0x121 JUMP JUMPDEST DUP2 ADD PUSH1 0x20 DUP6 LT ISZERO PUSH2 0x256 JUMPI DUP2 SWAP1 POP JUMPDEST PUSH2 0x26A PUSH2 0x262 DUP6 PUSH2 0x121 JUMP JUMPDEST DUP4 ADD DUP3 PUSH2 0x20A JUMP JUMPDEST POP POP JUMPDEST POP POP POP JUMP JUMPDEST PUSH0 DUP3 DUP3 SHR SWAP1 POP SWAP3 SWAP2 POP POP JUMP JUMPDEST PUSH0 PUSH2 0x28D PUSH0 NOT DUP5 PUSH1 0x8 MUL PUSH2 0x272 JUMP JUMPDEST NOT DUP1 DUP4 AND SWAP2 POP POP SWAP3 SWAP2 POP POP JUMP JUMPDEST PUSH0 PUSH2 0x2A5 DUP4 DUP4 PUSH2 0x27E JUMP JUMPDEST SWAP2 POP DUP3 PUSH1 0x2 MUL DUP3 OR SWAP1 POP SWAP3 SWAP2 POP POP JUMP JUMPDEST PUSH2 0x2BE DUP3 PUSH2 0x7B JUMP JUMPDEST PUSH8 0xFFFFFFFFFFFFFFFF DUP2 GT ISZERO PUSH2 0x2D7 JUMPI PUSH2 0x2D6 PUSH2 0x85 JUMP JUMPDEST JUMPDEST PUSH2 0x2E1 DUP3 SLOAD PUSH2 0xDF JUMP JUMPDEST PUSH2 0x2EC DUP3 DUP3 DUP6 PUSH2 0x22C JUMP JUMPDEST PUSH0 PUSH1 0x20 SWAP1 POP PUSH1 0x1F DUP4 GT PUSH1 0x1 DUP2 EQ PUSH2 0x31D JUMPI PUSH0 DUP5 ISZERO PUSH2 0x30B JUMPI DUP3 DUP8 ADD MLOAD SWAP1 POP JUMPDEST PUSH2 0x315 DUP6 DUP3 PUSH2 0x29A JUMP JUMPDEST DUP7 SSTORE POP PUSH2 0x37C JUMP JUMPDEST PUSH1 0x1F NOT DUP5 AND PUSH2 0x32B DUP7 PUSH2 0x10F JUMP JUMPDEST PUSH0 JUMPDEST DUP3 DUP2 LT ISZERO PUSH2 0x352 JUMPI DUP5 DUP10 ADD MLOAD DUP3 SSTORE PUSH1 0x1 DUP3 ADD SWAP2 POP PUSH1 0x20 DUP6 ADD SWAP5 POP PUSH1 0x20 DUP2 ADD SWAP1 POP PUSH2 0x32D JUMP JUMPDEST DUP7 DUP4 LT ISZERO PUSH2 0x36F JUMPI DUP5 DUP10 ADD MLOAD PUSH2 0x36B PUSH1 0x1F DUP10 AND DUP3 PUSH2 0x27E JUMP JUMPDEST DUP4 SSTORE POP JUMPDEST PUSH1 0x1 PUSH1 0x2 DUP9 MUL ADD DUP9 SSTORE POP POP POP JUMPDEST POP POP POP POP POP POP JUMP JUMPDEST PUSH2 0x814 DUP1 PUSH2 0x391 PUSH0 CODECOPY PUSH0 RETURN INVALID PUSH1 0x80 PUSH1 0x40 MSTORE CALLVALUE DUP1 ISZERO PUSH2 0xF JUMPI PUSH0 DUP1 REVERT JUMPDEST POP PUSH1 0x4 CALLDATASIZE LT PUSH2 0x60 JUMPI PUSH0 CALLDATALOAD PUSH1 0xE0 SHR DUP1 PUSH4 0x6FDDE03 EQ PUSH2 0x64 JUMPI DUP1 PUSH4 0x99C682C EQ PUSH2 0x82 JUMPI DUP1 PUSH4 0x967E6E65 EQ PUSH2 0x9E JUMPI DUP1 PUSH4 0xC47F0027 EQ PUSH2 0xBC JUMPI DUP1 PUSH4 0xD5DCF127 EQ PUSH2 0xD8 JUMPI DUP1 PUSH4 0xF553D48A EQ PUSH2 0xF4 JUMPI JUMPDEST PUSH0 DUP1 REVERT JUMPDEST PUSH2 0x6C PUSH2 0x112 JUMP JUMPDEST PUSH1 0x40 MLOAD PUSH2 0x79 SWAP2 SWAP1 PUSH2 0x263 JUMP JUMPDEST PUSH1 0x40 MLOAD DUP1 SWAP2 SUB SWAP1 RETURN JUMPDEST PUSH2 0x9C PUSH1 0x4 DUP1 CALLDATASIZE SUB DUP2 ADD SWAP1 PUSH2 0x97 SWAP2 SWAP1 PUSH2 0x2C9 JUMP JUMPDEST PUSH2 0x19D JUMP JUMPDEST STOP JUMPDEST PUSH2 0xA6 PUSH2 0x1B9 JUMP JUMPDEST PUSH1 0x40 MLOAD PUSH2 0xB3 SWAP2 SWAP1 PUSH2 0x30C JUMP JUMPDEST PUSH1 0x40 MLOAD DUP1 SWAP2 SUB SWAP1 RETURN JUMPDEST PUSH2 0xD6 PUSH1 0x4 DUP1 CALLDATASIZE SUB DUP2 ADD SWAP1 PUSH2 0xD1 SWAP2 SWAP1 PUSH2 0x451 JUMP JUMPDEST PUSH2 0x1C2 JUMP JUMPDEST STOP JUMPDEST PUSH2 0xF2 PUSH1 0x4 DUP1 CALLDATASIZE SUB DUP2 ADD SWAP1 PUSH2 0xED SWAP2 SWAP1 PUSH2 0x4C2 JUMP JUMPDEST PUSH2 0x1D4 JUMP JUMPDEST STOP JUMPDEST PUSH2 0xFC PUSH2 0x1DE JUMP JUMPDEST PUSH1 0x40 MLOAD PUSH2 0x109 SWAP2 SWAP1 PUSH2 0x4FC JUMP JUMPDEST PUSH1 0x40 MLOAD DUP1 SWAP2 SUB SWAP1 RETURN JUMPDEST PUSH0 DUP1 SLOAD PUSH2 0x11E SWAP1 PUSH2 0x542 JUMP JUMPDEST DUP1 PUSH1 0x1F ADD PUSH1 0x20 DUP1 SWAP2 DIV MUL PUSH1 0x20 ADD PUSH1 0x40 MLOAD SWAP1 DUP2 ADD PUSH1 0x40 MSTORE DUP1 SWAP3 SWAP2 SWAP1 DUP2 DUP2 MSTORE PUSH1 0x20 ADD DUP3 DUP1 SLOAD PUSH2 0x14A SWAP1 PUSH2 0x542 JUMP JUMPDEST DUP1 ISZERO PUSH2 0x195 JUMPI DUP1 PUSH1 0x1F LT PUSH2 0x16C JUMPI PUSH2 0x100 DUP1 DUP4 SLOAD DIV MUL DUP4 MSTORE SWAP2 PUSH1 0x20 ADD SWAP2 PUSH2 0x195 JUMP JUMPDEST DUP3 ADD SWAP2 SWAP1 PUSH0 MSTORE PUSH1 0x20 PUSH0 KECCAK256 SWAP1 JUMPDEST DUP2 SLOAD DUP2 MSTORE SWAP1 PUSH1 0x1 ADD SWAP1 PUSH1 0x20 ADD DUP1 DUP4 GT PUSH2 0x178 JUMPI DUP3 SWAP1 SUB PUSH1 0x1F AND DUP3 ADD SWAP2 JUMPDEST POP POP POP POP POP DUP2 JUMP JUMPDEST DUP1 PUSH1 0x2 PUSH0 PUSH2 0x100 EXP DUP2 SLOAD DUP2 PUSH1 0xFF MUL NOT AND SWAP1 DUP4 ISZERO ISZERO MUL OR SWAP1 SSTORE POP POP JUMP JUMPDEST PUSH0 PUSH1 0x1 SLOAD SWAP1 POP SWAP1 JUMP JUMPDEST DUP1 PUSH0 SWAP1 DUP2 PUSH2 0x1D0 SWAP2 SWAP1 PUSH2 0x70F JUMP JUMPDEST POP POP JUMP JUMPDEST DUP1 PUSH1 0x1 DUP2 SWAP1 SSTORE POP POP JUMP JUMPDEST PUSH0 PUSH1 0x2 PUSH0 SWAP1 SLOAD SWAP1 PUSH2 0x100 EXP SWAP1 DIV PUSH1 0xFF AND SWAP1 POP SWAP1 JUMP JUMPDEST PUSH0 DUP2 MLOAD SWAP1 POP SWAP2 SWAP1 POP JUMP JUMPDEST PUSH0 DUP3 DUP3 MSTORE PUSH1 0x20 DUP3 ADD SWAP1 POP SWAP3 SWAP2 POP POP JUMP JUMPDEST DUP3 DUP2 DUP4 MCOPY PUSH0 DUP4 DUP4 ADD MSTORE POP POP POP JUMP JUMPDEST PUSH0 PUSH1 0x1F NOT PUSH1 0x1F DUP4 ADD AND SWAP1 POP SWAP2 SWAP1 POP JUMP JUMPDEST PUSH0 PUSH2 0x235 DUP3 PUSH2 0x1F3 JUMP JUMPDEST PUSH2 0x23F DUP2 DUP6 PUSH2 0x1FD JUMP JUMPDEST SWAP4 POP PUSH2 0x24F DUP2 DUP6 PUSH1 0x20 DUP7 ADD PUSH2 0x20D JUMP JUMPDEST PUSH2 0x258 DUP2 PUSH2 0x21B JUMP JUMPDEST DUP5 ADD SWAP2 POP POP SWAP3 SWAP2 POP POP JUMP JUMPDEST PUSH0 PUSH1 0x20 DUP3 ADD SWAP1 POP DUP2 DUP2 SUB PUSH0 DUP4 ADD MSTORE PUSH2 0x27B DUP2 DUP5 PUSH2 0x22B JUMP JUMPDEST SWAP1 POP SWAP3 SWAP2 POP POP JUMP JUMPDEST PUSH0 PUSH1 0x40 MLOAD SWAP1 POP SWAP1 JUMP JUMPDEST PUSH0 DUP1 REVERT JUMPDEST PUSH0 DUP1 REVERT JUMPDEST PUSH0 DUP2 ISZERO ISZERO SWAP1 POP SWAP2 SWAP1 POP JUMP JUMPDEST PUSH2 0x2A8 DUP2 PUSH2 0x294 JUMP JUMPDEST DUP2 EQ PUSH2 0x2B2 JUMPI PUSH0 DUP1 REVERT JUMPDEST POP JUMP JUMPDEST PUSH0 DUP2 CALLDATALOAD SWAP1 POP PUSH2 0x2C3 DUP2 PUSH2 0x29F JUMP JUMPDEST SWAP3 SWAP2 POP POP JUMP JUMPDEST PUSH0 PUSH1 0x20 DUP3 DUP5 SUB SLT ISZERO PUSH2 0x2DE JUMPI PUSH2 0x2DD PUSH2 0x28C JUMP JUMPDEST JUMPDEST PUSH0 PUSH2 0x2EB DUP5 DUP3 DUP6 ADD PUSH2 0x2B5 JUMP JUMPDEST SWAP2 POP POP SWAP3 SWAP2 POP POP JUMP JUMPDEST PUSH0 DUP2 SWAP1 POP SWAP2 SWAP1 POP JUMP JUMPDEST PUSH2 0x306 DUP2 PUSH2 0x2F4 JUMP JUMPDEST DUP3 MSTORE POP POP JUMP JUMPDEST PUSH0 PUSH1 0x20 DUP3 ADD SWAP1 POP PUSH2 0x31F PUSH0 DUP4 ADD DUP5 PUSH2 0x2FD JUMP JUMPDEST SWAP3 SWAP2 POP POP JUMP JUMPDEST PUSH0 DUP1 REVERT JUMPDEST PUSH0 DUP1 REVERT JUMPDEST PUSH32 0x4E487B7100000000000000000000000000000000000000000000000000000000 PUSH0 MSTORE PUSH1 0x41 PUSH1 0x4 MSTORE PUSH1 0x24 PUSH0 REVERT JUMPDEST PUSH2 0x363 DUP3 PUSH2 0x21B JUMP JUMPDEST DUP2 ADD DUP2 DUP2 LT PUSH8 0xFFFFFFFFFFFFFFFF DUP3 GT OR ISZERO PUSH2 0x382 JUMPI PUSH2 0x381 PUSH2 0x32D JUMP JUMPDEST JUMPDEST DUP1 PUSH1 0x40 MSTORE POP POP POP JUMP JUMPDEST PUSH0 PUSH2 0x394 PUSH2 0x283 JUMP JUMPDEST SWAP1 POP PUSH2 0x3A0 DUP3 DUP3 PUSH2 0x35A JUMP JUMPDEST SWAP2 SWAP1 POP JUMP JUMPDEST PUSH0 PUSH8 0xFFFFFFFFFFFFFFFF DUP3 GT ISZERO PUSH2 0x3BF JUMPI PUSH2 0x3BE PUSH2 0x32D JUMP JUMPDEST JUMPDEST PUSH2 0x3C8 DUP3 PUSH2 0x21B JUMP JUMPDEST SWAP1 POP PUSH1 0x20 DUP2 ADD SWAP1 POP SWAP2 SWAP1 POP JUMP JUMPDEST DUP3 DUP2 DUP4 CALLDATACOPY PUSH0 DUP4 DUP4 ADD MSTORE POP POP POP JUMP JUMPDEST PUSH0 PUSH2 0x3F5 PUSH2 0x3F0 DUP5 PUSH2 0x3A5 JUMP JUMPDEST PUSH2 0x38B JUMP JUMPDEST SWAP1 POP DUP3 DUP2 MSTORE PUSH1 0x20 DUP2 ADD DUP5 DUP5 DUP5 ADD GT ISZERO PUSH2 0x411 JUMPI PUSH2 0x410 PUSH2 0x329 JUMP JUMPDEST JUMPDEST PUSH2 0x41C DUP5 DUP3 DUP6 PUSH2 0x3D5 JUMP JUMPDEST POP SWAP4 SWAP3 POP POP POP JUMP JUMPDEST PUSH0 DUP3 PUSH1 0x1F DUP4 ADD SLT PUSH2 0x438 JUMPI PUSH2 0x437 PUSH2 0x325 JUMP JUMPDEST JUMPDEST DUP2 CALLDATALOAD PUSH2 0x448 DUP5 DUP3 PUSH1 0x20 DUP7 ADD PUSH2 0x3E3 JUMP JUMPDEST SWAP2 POP POP SWAP3 SWAP2 POP POP JUMP JUMPDEST PUSH0 PUSH1 0x20 DUP3 DUP5 SUB SLT ISZERO PUSH2 0x466 JUMPI PUSH2 0x465 PUSH2 0x28C JUMP JUMPDEST JUMPDEST PUSH0 DUP3 ADD CALLDATALOAD PUSH8 0xFFFFFFFFFFFFFFFF DUP2 GT ISZERO PUSH2 0x483 JUMPI PUSH2 0x482 PUSH2 0x290 JUMP JUMPDEST JUMPDEST PUSH2 0x48F DUP5 DUP3 DUP6 ADD PUSH2 0x424 JUMP JUMPDEST SWAP2 POP POP SWAP3 SWAP2 POP POP JUMP JUMPDEST PUSH2 0x4A1 DUP2 PUSH2 0x2F4 JUMP JUMPDEST DUP2 EQ PUSH2 0x4AB JUMPI PUSH0 DUP1 REVERT JUMPDEST POP JUMP JUMPDEST PUSH0 DUP2 CALLDATALOAD SWAP1 POP PUSH2 0x4BC DUP2 PUSH2 0x498 JUMP JUMPDEST SWAP3 SWAP2 POP POP JUMP JUMPDEST PUSH0 PUSH1 0x20 DUP3 DUP5 SUB SLT ISZERO PUSH2 0x4D7 JUMPI PUSH2 0x4D6 PUSH2 0x28C JUMP JUMPDEST JUMPDEST PUSH0 PUSH2 0x4E4 DUP5 DUP3 DUP6 ADD PUSH2 0x4AE JUMP JUMPDEST SWAP2 POP POP SWAP3 SWAP2 POP POP JUMP JUMPDEST PUSH2 0x4F6 DUP2 PUSH2 0x294 JUMP JUMPDEST DUP3 MSTORE POP POP JUMP JUMPDEST PUSH0 PUSH1 0x20 DUP3 ADD SWAP1 POP PUSH2 0x50F PUSH0 DUP4 ADD DUP5 PUSH2 0x4ED JUMP JUMPDEST SWAP3 SWAP2 POP POP JUMP JUMPDEST PUSH32 0x4E487B7100000000000000000000000000000000000000000000000000000000 PUSH0 MSTORE PUSH1 0x22 PUSH1 0x4 MSTORE PUSH1 0x24 PUSH0 REVERT JUMPDEST PUSH0 PUSH1 0x2 DUP3 DIV SWAP1 POP PUSH1 0x1 DUP3 AND DUP1 PUSH2 0x559 JUMPI PUSH1 0x7F DUP3 AND SWAP2 POP JUMPDEST PUSH1 0x20 DUP3 LT DUP2 SUB PUSH2 0x56C JUMPI PUSH2 0x56B PUSH2 0x515 JUMP JUMPDEST JUMPDEST POP SWAP2 SWAP1 POP JUMP JUMPDEST PUSH0 DUP2 SWAP1 POP DUP2 PUSH0 MSTORE PUSH1 0x20 PUSH0 KECCAK256 SWAP1 POP SWAP2 SWAP1 POP JUMP JUMPDEST PUSH0 PUSH1 0x20 PUSH1 0x1F DUP4 ADD DIV SWAP1 POP SWAP2 SWAP1 POP JUMP JUMPDEST PUSH0 DUP3 DUP3 SHL SWAP1 POP SWAP3 SWAP2 POP POP JUMP JUMPDEST PUSH0 PUSH1 0x8 DUP4 MUL PUSH2 0x5CE PUSH32 0xFFFFFFFFFFFFFFFFFFFFFFFFFFFFFFFFFFFFFFFFFFFFFFFFFFFFFFFFFFFFFFFF DUP3 PUSH2 0x593 JUMP JUMPDEST PUSH2 0x5D8 DUP7 DUP4 PUSH2 0x593 JUMP JUMPDEST SWAP6 POP DUP1 NOT DUP5 AND SWAP4 POP DUP1 DUP7 AND DUP5 OR SWAP3 POP POP POP SWAP4 SWAP3 POP POP POP JUMP JUMPDEST PUSH0 DUP2 SWAP1 POP SWAP2 SWAP1 POP JUMP JUMPDEST PUSH0 PUSH2 0x613 PUSH2 0x60E PUSH2 0x609 DUP5 PUSH2 0x2F4 JUMP JUMPDEST PUSH2 0x5F0 JUMP JUMPDEST PUSH2 0x2F4 JUMP JUMPDEST SWAP1 POP SWAP2 SWAP1 POP JUMP JUMPDEST PUSH0 DUP2 SWAP1 POP SWAP2 SWAP1 POP JUMP JUMPDEST PUSH2 0x62C DUP4 PUSH2 0x5F9 JUMP JUMPDEST PUSH2 0x640 PUSH2 0x638 DUP3 PUSH2 0x61A JUMP JUMPDEST DUP5 DUP5 SLOAD PUSH2 0x59F JUMP JUMPDEST DUP3 SSTORE POP POP POP POP JUMP JUMPDEST PUSH0 SWAP1 JUMP JUMPDEST PUSH2 0x654 PUSH2 0x648 JUMP JUMPDEST PUSH2 0x65F DUP2 DUP5 DUP5 PUSH2 0x623 JUMP JUMPDEST POP POP POP JUMP JUMPDEST JUMPDEST DUP2 DUP2 LT ISZERO PUSH2 0x682 JUMPI PUSH2 0x677 PUSH0 DUP3 PUSH2 0x64C JUMP JUMPDEST PUSH1 0x1 DUP2 ADD SWAP1 POP PUSH2 0x665 JUMP JUMPDEST POP POP JUMP JUMPDEST PUSH1 0x1F DUP3 GT ISZERO PUSH2 0x6C7 JUMPI PUSH2 0x698 DUP2 PUSH2 0x572 JUMP JUMPDEST PUSH2 0x6A1 DUP5 PUSH2 0x584 JUMP JUMPDEST DUP2 ADD PUSH1 0x20 DUP6 LT ISZERO PUSH2 0x6B0 JUMPI DUP2 SWAP1 POP JUMPDEST PUSH2 0x6C4 PUSH2 0x6BC DUP6 PUSH2 0x584 JUMP JUMPDEST DUP4 ADD DUP3 PUSH2 0x664 JUMP JUMPDEST POP POP JUMPDEST POP POP POP JUMP JUMPDEST PUSH0 DUP3 DUP3 SHR SWAP1 POP SWAP3 SWAP2 POP POP JUMP JUMPDEST PUSH0 PUSH2 0x6E7 PUSH0 NOT DUP5 PUSH1 0x8 MUL PUSH2 0x6CC JUMP JUMPDEST NOT DUP1 DUP4 AND SWAP2 POP POP SWAP3 SWAP2 POP POP JUMP JUMPDEST PUSH0 PUSH2 0x6FF DUP4 DUP4 PUSH2 0x6D8 JUMP JUMPDEST SWAP2 POP DUP3 PUSH1 0x2 MUL DUP3 OR SWAP1 POP SWAP3 SWAP2 POP POP JUMP JUMPDEST PUSH2 0x718 DUP3 PUSH2 0x1F3 JUMP JUMPDEST PUSH8 0xFFFFFFFFFFFFFFFF DUP2 GT ISZERO PUSH2 0x731 JUMPI PUSH2 0x730 PUSH2 0x32D JUMP JUMPDEST JUMPDEST PUSH2 0x73B DUP3 SLOAD PUSH2 0x542 JUMP JUMPDEST PUSH2 0x746 DUP3 DUP3 DUP6 PUSH2 0x686 JUMP JUMPDEST PUSH0 PUSH1 0x20 SWAP1 POP PUSH1 0x1F DUP4 GT PUSH1 0x1 DUP2 EQ PUSH2 0x777 JUMPI PUSH0 DUP5 ISZERO PUSH2 0x765 JUMPI DUP3 DUP8 ADD MLOAD SWAP1 POP JUMPDEST PUSH2 0x76F DUP6 DUP3 PUSH2 0x6F4 JUMP JUMPDEST DUP7 SSTORE POP PUSH2 0x7D6 JUMP JUMPDEST PUSH1 0x1F NOT DUP5 AND PUSH2 0x785 DUP7 PUSH2 0x572 JUMP JUMPDEST PUSH0 JUMPDEST DUP3 DUP2 LT ISZERO PUSH2 0x7AC JUMPI DUP5 DUP10 ADD MLOAD DUP3 SSTORE PUSH1 0x1 DUP3 ADD SWAP2 POP PUSH1 0x20 DUP6 ADD SWAP5 POP PUSH1 0x20 DUP2 ADD SWAP1 POP PUSH2 0x787 JUMP JUMPDEST DUP7 DUP4 LT ISZERO PUSH2 0x7C9 JUMPI DUP5 DUP10 ADD MLOAD PUSH2 0x7C5 PUSH1 0x1F DUP10 AND DUP3 PUSH2 0x6D8 JUMP JUMPDEST DUP4 SSTORE POP JUMPDEST PUSH1 0x1 PUSH1 0x2 DUP9 MUL ADD DUP9 SSTORE POP POP POP JUMPDEST POP POP POP POP POP POP JUMP INVALID LOG2 PUSH5 0x6970667358 0x22 SLT KECCAK256 DUP12 0xC JUMP STOP ADDRESS CODECOPY 0xE8 PUSH19 0x3EC9800506588EA31CCA1767CCE7A42C62E3C7 0xC2 0xDA 0x2F PUSH4 0x5764736F PUSH13 0x634300081A0033000000000000 "
				},
				"gasEstimates": {
					"creation": {
						"codeDepositCost": "413600",
						"executionCost": "infinite",
						"totalCost": "infinite"
					},
					"external": {
						"getAge()": "2454",
						"getNacionalityBr()": "2561",
						"name()": "infinite",
						"setAge(uint256)": "22581",
						"setNacionalityBr(bool)": "24673",
						"setName(string)": "infinite"
					}
				},
				"methodIdentifiers": {
					"getAge()": "967e6e65",
					"getNacionalityBr()": "f553d48a",
					"name()": "06fdde03",
					"setAge(uint256)": "d5dcf127",
					"setNacionalityBr(bool)": "099c682c",
					"setName(string)": "c47f0027"
				}
			},
			"storageLayout": {
				"storage": [
					{
						"astId": 3,
						"contract": "contracts/PersonalDataStorageV2.sol:PersonDataStoreV2",
						"label": "name",
						"offset": 0,
						"slot": "0",
						"type": "t_string_storage"
					},
					{
						"astId": 5,
						"contract": "contracts/PersonalDataStorageV2.sol:PersonDataStoreV2",
						"label": "age",
						"offset": 0,
						"slot": "1",
						"type": "t_uint256"
					},
					{
						"astId": 7,
						"contract": "contracts/PersonalDataStorageV2.sol:PersonDataStoreV2",
						"label": "brazilian",
						"offset": 0,
						"slot": "2",
						"type": "t_bool"
					}
				],
				"types": {
					"t_bool": {
						"encoding": "inplace",
						"label": "bool",
						"numberOfBytes": "1"
					},
					"t_string_storage": {
						"encoding": "bytes",
						"label": "string",
						"numberOfBytes": "32"
					},
					"t_uint256": {
						"encoding": "inplace",
						"label": "uint256",
						"numberOfBytes": "32"
					}
				}
			},
			"userdoc": {
				"kind": "user",
				"methods": {},
				"version": 1
			}
		}
	}
}