{
	"data": {
		"bytecode": {
			"linkReferences": {},
			"object": "608060405234801561000f575f80fd5b506040518060400160405280600881526020017f6a6572656d6961730000000000000000000000000000000000000000000000008152505f908161005391906102b5565b50600a600181905550600160025f6101000a81548160ff021916908315150217905550610384565b5f81519050919050565b7f4e487b71000000000000000000000000000000000000000000000000000000005f52604160045260245ffd5b7f4e487b71000000000000000000000000000000000000000000000000000000005f52602260045260245ffd5b5f60028204905060018216806100f657607f821691505b602082108103610109576101086100b2565b5b50919050565b5f819050815f5260205f209050919050565b5f6020601f8301049050919050565b5f82821b905092915050565b5f6008830261016b7fffffffffffffffffffffffffffffffffffffffffffffffffffffffffffffffff82610130565b6101758683610130565b95508019841693508086168417925050509392505050565b5f819050919050565b5f819050919050565b5f6101b96101b46101af8461018d565b610196565b61018d565b9050919050565b5f819050919050565b6101d28361019f565b6101e66101de826101c0565b84845461013c565b825550505050565b5f90565b6101fa6101ee565b6102058184846101c9565b505050565b5b818110156102285761021d5f826101f2565b60018101905061020b565b5050565b601f82111561026d5761023e8161010f565b61024784610121565b81016020851015610256578190505b61026a61026285610121565b83018261020a565b50505b505050565b5f82821c905092915050565b5f61028d5f1984600802610272565b1980831691505092915050565b5f6102a5838361027e565b9150826002028217905092915050565b6102be8261007b565b67ffffffffffffffff8111156102d7576102d6610085565b5b6102e182546100df565b6102ec82828561022c565b5f60209050601f83116001811461031d575f841561030b578287015190505b610315858261029a565b86555061037c565b601f19841661032b8661010f565b5f5b828110156103525784890151825560018201915060208501945060208101905061032d565b8683101561036f578489015161036b601f89168261027e565b8355505b6001600288020188555050505b505050505050565b6108c3806103915f395ff3fe608060405234801561000f575f80fd5b506004361061007b575f3560e01c8063967e6e6511610059578063967e6e65146100c3578063c47f0027146100e1578063d5dcf127146100fd578063f553d48a146101195761007b565b806306fdde031461007f578063099c682c1461009d5780636840f0ae146100b9575b5f80fd5b610087610137565b60405161009491906102b2565b60405180910390f35b6100b760048036038101906100b29190610318565b6101c2565b005b6100c16101de565b005b6100cb6101f3565b6040516100d8919061035b565b60405180910390f35b6100fb60048036038101906100f691906104a0565b6101fc565b005b61011760048036038101906101129190610511565b61020e565b005b610121610218565b60405161012e919061054b565b60405180910390f35b5f805461014390610591565b80601f016020809104026020016040519081016040528092919081815260200182805461016f90610591565b80156101ba5780601f10610191576101008083540402835291602001916101ba565b820191905f5260205f20905b81548152906001019060200180831161019d57829003601f168201915b505050505081565b8060025f6101000a81548160ff02191690831515021790555050565b6101eb600154600161022d565b600181905550565b5f600154905090565b805f908161020a919061075e565b5050565b8060018190555050565b5f60025f9054906101000a900460ff16905090565b5f818361023a919061085a565b905092915050565b5f81519050919050565b5f82825260208201905092915050565b8281835e5f83830152505050565b5f601f19601f8301169050919050565b5f61028482610242565b61028e818561024c565b935061029e81856020860161025c565b6102a78161026a565b840191505092915050565b5f6020820190508181035f8301526102ca818461027a565b905092915050565b5f604051905090565b5f80fd5b5f80fd5b5f8115159050919050565b6102f7816102e3565b8114610301575f80fd5b50565b5f81359050610312816102ee565b92915050565b5f6020828403121561032d5761032c6102db565b5b5f61033a84828501610304565b91505092915050565b5f819050919050565b61035581610343565b82525050565b5f60208201905061036e5f83018461034c565b92915050565b5f80fd5b5f80fd5b7f4e487b71000000000000000000000000000000000000000000000000000000005f52604160045260245ffd5b6103b28261026a565b810181811067ffffffffffffffff821117156103d1576103d061037c565b5b80604052505050565b5f6103e36102d2565b90506103ef82826103a9565b919050565b5f67ffffffffffffffff82111561040e5761040d61037c565b5b6104178261026a565b9050602081019050919050565b828183375f83830152505050565b5f61044461043f846103f4565b6103da565b9050828152602081018484840111156104605761045f610378565b5b61046b848285610424565b509392505050565b5f82601f83011261048757610486610374565b5b8135610497848260208601610432565b91505092915050565b5f602082840312156104b5576104b46102db565b5b5f82013567ffffffffffffffff8111156104d2576104d16102df565b5b6104de84828501610473565b91505092915050565b6104f081610343565b81146104fa575f80fd5b50565b5f8135905061050b816104e7565b92915050565b5f60208284031215610526576105256102db565b5b5f610533848285016104fd565b91505092915050565b610545816102e3565b82525050565b5f60208201905061055e5f83018461053c565b92915050565b7f4e487b71000000000000000000000000000000000000000000000000000000005f52602260045260245ffd5b5f60028204905060018216806105a857607f821691505b6020821081036105bb576105ba610564565b5b50919050565b5f819050815f5260205f209050919050565b5f6020601f8301049050919050565b5f82821b905092915050565b5f6008830261061d7fffffffffffffffffffffffffffffffffffffffffffffffffffffffffffffffff826105e2565b61062786836105e2565b95508019841693508086168417925050509392505050565b5f819050919050565b5f61066261065d61065884610343565b61063f565b610343565b9050919050565b5f819050919050565b61067b83610648565b61068f61068782610669565b8484546105ee565b825550505050565b5f90565b6106a3610697565b6106ae818484610672565b505050565b5b818110156106d1576106c65f8261069b565b6001810190506106b4565b5050565b601f821115610716576106e7816105c1565b6106f0846105d3565b810160208510156106ff578190505b61071361070b856105d3565b8301826106b3565b50505b505050565b5f82821c905092915050565b5f6107365f198460080261071b565b1980831691505092915050565b5f61074e8383610727565b9150826002028217905092915050565b61076782610242565b67ffffffffffffffff8111156107805761077f61037c565b5b61078a8254610591565b6107958282856106d5565b5f60209050601f8311600181146107c6575f84156107b4578287015190505b6107be8582610743565b865550610825565b601f1984166107d4866105c1565b5f5b828110156107fb578489015182556001820191506020850194506020810190506107d6565b868310156108185784890151610814601f891682610727565b8355505b6001600288020188555050505b505050505050565b7f4e487b71000000000000000000000000000000000000000000000000000000005f52601160045260245ffd5b5f61086482610343565b915061086f83610343565b92508282019050808211156108875761088661082d565b5b9291505056fea26469706673582212207300c89156877e4642b0bfc9edb49bd1463ea7ba798fac09511e209dab8681af64736f6c634300081a0033",
			"opcodes": "PUSH1 0x80 PUSH1 0x40 MSTORE CALLVALUE DUP1 ISZERO PUSH2 0xF JUMPI PUSH0 DUP1 REVERT JUMPDEST POP PUSH1 0x40 MLOAD DUP1 PUSH1 0x40 ADD PUSH1 0x40 MSTORE DUP1 PUSH1 0x8 DUP2 MSTORE PUSH1 0x20 ADD PUSH32 0x6A6572656D696173000000000000000000000000000000000000000000000000 DUP2 MSTORE POP PUSH0 SWAP1 DUP2 PUSH2 0x53 SWAP2 SWAP1 PUSH2 0x2B5 JUMP JUMPDEST POP PUSH1 0xA PUSH1 0x1 DUP2 SWAP1 SSTORE POP PUSH1 0x1 PUSH1 0x2 PUSH0 PUSH2 0x100 EXP DUP2 SLOAD DUP2 PUSH1 0xFF MUL NOT AND SWAP1 DUP4 ISZERO ISZERO MUL OR SWAP1 SSTORE POP PUSH2 0x384 JUMP JUMPDEST PUSH0 DUP2 MLOAD SWAP1 POP SWAP2 SWAP1 POP JUMP JUMPDEST PUSH32 0x4E487B7100000000000000000000000000000000000000000000000000000000 PUSH0 MSTORE PUSH1 0x41 PUSH1 0x4 MSTORE PUSH1 0x24 PUSH0 REVERT JUMPDEST PUSH32 0x4E487B7100000000000000000000000000000000000000000000000000000000 PUSH0 MSTORE PUSH1 0x22 PUSH1 0x4 MSTORE PUSH1 0x24 PUSH0 REVERT JUMPDEST PUSH0 PUSH1 0x2 DUP3 DIV SWAP1 POP PUSH1 0x1 DUP3 AND DUP1 PUSH2 0xF6 JUMPI PUSH1 0x7F DUP3 AND SWAP2 POP JUMPDEST PUSH1 0x20 DUP3 LT DUP2 SUB PUSH2 0x109 JUMPI PUSH2 0x108 PUSH2 0xB2 JUMP JUMPDEST JUMPDEST POP SWAP2 SWAP1 POP JUMP JUMPDEST PUSH0 DUP2 SWAP1 POP DUP2 PUSH0 MSTORE PUSH1 0x20 PUSH0 KECCAK256 SWAP1 POP SWAP2 SWAP1 POP JUMP JUMPDEST PUSH0 PUSH1 0x20 PUSH1 0x1F DUP4 ADD DIV SWAP1 POP SWAP2 SWAP1 POP JUMP JUMPDEST PUSH0 DUP3 DUP3 SHL SWAP1 POP SWAP3 SWAP2 POP POP JUMP JUMPDEST PUSH0 PUSH1 0x8 DUP4 MUL PUSH2 0x16B PUSH32 0xFFFFFFFFFFFFFFFFFFFFFFFFFFFFFFFFFFFFFFFFFFFFFFFFFFFFFFFFFFFFFFFF DUP3 PUSH2 0x130 JUMP JUMPDEST PUSH2 0x175 DUP7 DUP4 PUSH2 0x130 JUMP JUMPDEST SWAP6 POP DUP1 NOT DUP5 AND SWAP4 POP DUP1 DUP7 AND DUP5 OR SWAP3 POP POP POP SWAP4 SWAP3 POP POP POP JUMP JUMPDEST PUSH0 DUP2 SWAP1 POP SWAP2 SWAP1 POP JUMP JUMPDEST PUSH0 DUP2 SWAP1 POP SWAP2 SWAP1 POP JUMP JUMPDEST PUSH0 PUSH2 0x1B9 PUSH2 0x1B4 PUSH2 0x1AF DUP5 PUSH2 0x18D JUMP JUMPDEST PUSH2 0x196 JUMP JUMPDEST PUSH2 0x18D JUMP JUMPDEST SWAP1 POP SWAP2 SWAP1 POP JUMP JUMPDEST PUSH0 DUP2 SWAP1 POP SWAP2 SWAP1 POP JUMP JUMPDEST PUSH2 0x1D2 DUP4 PUSH2 0x19F JUMP JUMPDEST PUSH2 0x1E6 PUSH2 0x1DE DUP3 PUSH2 0x1C0 JUMP JUMPDEST DUP5 DUP5 SLOAD PUSH2 0x13C JUMP JUMPDEST DUP3 SSTORE POP POP POP POP JUMP JUMPDEST PUSH0 SWAP1 JUMP JUMPDEST PUSH2 0x1FA PUSH2 0x1EE JUMP JUMPDEST PUSH2 0x205 DUP2 DUP5 DUP5 PUSH2 0x1C9 JUMP JUMPDEST POP POP POP JUMP JUMPDEST JUMPDEST DUP2 DUP2 LT ISZERO PUSH2 0x228 JUMPI PUSH2 0x21D PUSH0 DUP3 PUSH2 0x1F2 JUMP JUMPDEST PUSH1 0x1 DUP2 ADD SWAP1 POP PUSH2 0x20B JUMP JUMPDEST POP POP JUMP JUMPDEST PUSH1 0x1F DUP3 GT ISZERO PUSH2 0x26D JUMPI PUSH2 0x23E DUP2 PUSH2 0x10F JUMP JUMPDEST PUSH2 0x247 DUP5 PUSH2 0x121 JUMP JUMPDEST DUP2 ADD PUSH1 0x20 DUP6 LT ISZERO PUSH2 0x256 JUMPI DUP2 SWAP1 POP JUMPDEST PUSH2 0x26A PUSH2 0x262 DUP6 PUSH2 0x121 JUMP JUMPDEST DUP4 ADD DUP3 PUSH2 0x20A JUMP JUMPDEST POP POP JUMPDEST POP POP POP JUMP JUMPDEST PUSH0 DUP3 DUP3 SHR SWAP1 POP SWAP3 SWAP2 POP POP JUMP JUMPDEST PUSH0 PUSH2 0x28D PUSH0 NOT DUP5 PUSH1 0x8 MUL PUSH2 0x272 JUMP JUMPDEST NOT DUP1 DUP4 AND SWAP2 POP POP SWAP3 SWAP2 POP POP JUMP JUMPDEST PUSH0 PUSH2 0x2A5 DUP4 DUP4 PUSH2 0x27E JUMP JUMPDEST SWAP2 POP DUP3 PUSH1 0x2 MUL DUP3 OR SWAP1 POP SWAP3 SWAP2 POP POP JUMP JUMPDEST PUSH2 0x2BE DUP3 PUSH2 0x7B JUMP JUMPDEST PUSH8 0xFFFFFFFFFFFFFFFF DUP2 GT ISZERO PUSH2 0x2D7 JUMPI PUSH2 0x2D6 PUSH2 0x85 JUMP JUMPDEST JUMPDEST PUSH2 0x2E1 DUP3 SLOAD PUSH2 0xDF JUMP JUMPDEST PUSH2 0x2EC DUP3 DUP3 DUP6 PUSH2 0x22C JUMP JUMPDEST PUSH0 PUSH1 0x20 SWAP1 POP PUSH1 0x1F DUP4 GT PUSH1 0x1 DUP2 EQ PUSH2 0x31D JUMPI PUSH0 DUP5 ISZERO PUSH2 0x30B JUMPI DUP3 DUP8 ADD MLOAD SWAP1 POP JUMPDEST PUSH2 0x315 DUP6 DUP3 PUSH2 0x29A JUMP JUMPDEST DUP7 SSTORE POP PUSH2 0x37C JUMP JUMPDEST PUSH1 0x1F NOT DUP5 AND PUSH2 0x32B DUP7 PUSH2 0x10F JUMP JUMPDEST PUSH0 JUMPDEST DUP3 DUP2 LT ISZERO PUSH2 0x352 JUMPI DUP5 DUP10 ADD MLOAD DUP3 SSTORE PUSH1 0x1 DUP3 ADD SWAP2 POP PUSH1 0x20 DUP6 ADD SWAP5 POP PUSH1 0x20 DUP2 ADD SWAP1 POP PUSH2 0x32D JUMP JUMPDEST DUP7 DUP4 LT ISZERO PUSH2 0x36F JUMPI DUP5 DUP10 ADD MLOAD PUSH2 0x36B PUSH1 0x1F DUP10 AND DUP3 PUSH2 0x27E JUMP JUMPDEST DUP4 SSTORE POP JUMPDEST PUSH1 0x1 PUSH1 0x2 DUP9 MUL ADD DUP9 SSTORE POP POP POP JUMPDEST POP POP POP POP POP POP JUMP JUMPDEST PUSH2 0x8C3 DUP1 PUSH2 0x391 PUSH0 CODECOPY PUSH0 RETURN INVALID PUSH1 0x80 PUSH1 0x40 MSTORE CALLVALUE DUP1 ISZERO PUSH2 0xF JUMPI PUSH0 DUP1 REVERT JUMPDEST POP PUSH1 0x4 CALLDATASIZE LT PUSH2 0x7B JUMPI PUSH0 CALLDATALOAD PUSH1 0xE0 SHR DUP1 PUSH4 0x967E6E65 GT PUSH2 0x59 JUMPI DUP1 PUSH4 0x967E6E65 EQ PUSH2 0xC3 JUMPI DUP1 PUSH4 0xC47F0027 EQ PUSH2 0xE1 JUMPI DUP1 PUSH4 0xD5DCF127 EQ PUSH2 0xFD JUMPI DUP1 PUSH4 0xF553D48A EQ PUSH2 0x119 JUMPI PUSH2 0x7B JUMP JUMPDEST DUP1 PUSH4 0x6FDDE03 EQ PUSH2 0x7F JUMPI DUP1 PUSH4 0x99C682C EQ PUSH2 0x9D JUMPI DUP1 PUSH4 0x6840F0AE EQ PUSH2 0xB9 JUMPI JUMPDEST PUSH0 DUP1 REVERT JUMPDEST PUSH2 0x87 PUSH2 0x137 JUMP JUMPDEST PUSH1 0x40 MLOAD PUSH2 0x94 SWAP2 SWAP1 PUSH2 0x2B2 JUMP JUMPDEST PUSH1 0x40 MLOAD DUP1 SWAP2 SUB SWAP1 RETURN JUMPDEST PUSH2 0xB7 PUSH1 0x4 DUP1 CALLDATASIZE SUB DUP2 ADD SWAP1 PUSH2 0xB2 SWAP2 SWAP1 PUSH2 0x318 JUMP JUMPDEST PUSH2 0x1C2 JUMP JUMPDEST STOP JUMPDEST PUSH2 0xC1 PUSH2 0x1DE JUMP JUMPDEST STOP JUMPDEST PUSH2 0xCB PUSH2 0x1F3 JUMP JUMPDEST PUSH1 0x40 MLOAD PUSH2 0xD8 SWAP2 SWAP1 PUSH2 0x35B JUMP JUMPDEST PUSH1 0x40 MLOAD DUP1 SWAP2 SUB SWAP1 RETURN JUMPDEST PUSH2 0xFB PUSH1 0x4 DUP1 CALLDATASIZE SUB DUP2 ADD SWAP1 PUSH2 0xF6 SWAP2 SWAP1 PUSH2 0x4A0 JUMP JUMPDEST PUSH2 0x1FC JUMP JUMPDEST STOP JUMPDEST PUSH2 0x117 PUSH1 0x4 DUP1 CALLDATASIZE SUB DUP2 ADD SWAP1 PUSH2 0x112 SWAP2 SWAP1 PUSH2 0x511 JUMP JUMPDEST PUSH2 0x20E JUMP JUMPDEST STOP JUMPDEST PUSH2 0x121 PUSH2 0x218 JUMP JUMPDEST PUSH1 0x40 MLOAD PUSH2 0x12E SWAP2 SWAP1 PUSH2 0x54B JUMP JUMPDEST PUSH1 0x40 MLOAD DUP1 SWAP2 SUB SWAP1 RETURN JUMPDEST PUSH0 DUP1 SLOAD PUSH2 0x143 SWAP1 PUSH2 0x591 JUMP JUMPDEST DUP1 PUSH1 0x1F ADD PUSH1 0x20 DUP1 SWAP2 DIV MUL PUSH1 0x20 ADD PUSH1 0x40 MLOAD SWAP1 DUP2 ADD PUSH1 0x40 MSTORE DUP1 SWAP3 SWAP2 SWAP1 DUP2 DUP2 MSTORE PUSH1 0x20 ADD DUP3 DUP1 SLOAD PUSH2 0x16F SWAP1 PUSH2 0x591 JUMP JUMPDEST DUP1 ISZERO PUSH2 0x1BA JUMPI DUP1 PUSH1 0x1F LT PUSH2 0x191 JUMPI PUSH2 0x100 DUP1 DUP4 SLOAD DIV MUL DUP4 MSTORE SWAP2 PUSH1 0x20 ADD SWAP2 PUSH2 0x1BA JUMP JUMPDEST DUP3 ADD SWAP2 SWAP1 PUSH0 MSTORE PUSH1 0x20 PUSH0 KECCAK256 SWAP1 JUMPDEST DUP2 SLOAD DUP2 MSTORE SWAP1 PUSH1 0x1 ADD SWAP1 PUSH1 0x20 ADD DUP1 DUP4 GT PUSH2 0x19D JUMPI DUP3 SWAP1 SUB PUSH1 0x1F AND DUP3 ADD SWAP2 JUMPDEST POP POP POP POP POP DUP2 JUMP JUMPDEST DUP1 PUSH1 0x2 PUSH0 PUSH2 0x100 EXP DUP2 SLOAD DUP2 PUSH1 0xFF MUL NOT AND SWAP1 DUP4 ISZERO ISZERO MUL OR SWAP1 SSTORE POP POP JUMP JUMPDEST PUSH2 0x1EB PUSH1 0x1 SLOAD PUSH1 0x1 PUSH2 0x22D JUMP JUMPDEST PUSH1 0x1 DUP2 SWAP1 SSTORE POP JUMP JUMPDEST PUSH0 PUSH1 0x1 SLOAD SWAP1 POP SWAP1 JUMP JUMPDEST DUP1 PUSH0 SWAP1 DUP2 PUSH2 0x20A SWAP2 SWAP1 PUSH2 0x75E JUMP JUMPDEST POP POP JUMP JUMPDEST DUP1 PUSH1 0x1 DUP2 SWAP1 SSTORE POP POP JUMP JUMPDEST PUSH0 PUSH1 0x2 PUSH0 SWAP1 SLOAD SWAP1 PUSH2 0x100 EXP SWAP1 DIV PUSH1 0xFF AND SWAP1 POP SWAP1 JUMP JUMPDEST PUSH0 DUP2 DUP4 PUSH2 0x23A SWAP2 SWAP1 PUSH2 0x85A JUMP JUMPDEST SWAP1 POP SWAP3 SWAP2 POP POP JUMP JUMPDEST PUSH0 DUP2 MLOAD SWAP1 POP SWAP2 SWAP1 POP JUMP JUMPDEST PUSH0 DUP3 DUP3 MSTORE PUSH1 0x20 DUP3 ADD SWAP1 POP SWAP3 SWAP2 POP POP JUMP JUMPDEST DUP3 DUP2 DUP4 MCOPY PUSH0 DUP4 DUP4 ADD MSTORE POP POP POP JUMP JUMPDEST PUSH0 PUSH1 0x1F NOT PUSH1 0x1F DUP4 ADD AND SWAP1 POP SWAP2 SWAP1 POP JUMP JUMPDEST PUSH0 PUSH2 0x284 DUP3 PUSH2 0x242 JUMP JUMPDEST PUSH2 0x28E DUP2 DUP6 PUSH2 0x24C JUMP JUMPDEST SWAP4 POP PUSH2 0x29E DUP2 DUP6 PUSH1 0x20 DUP7 ADD PUSH2 0x25C JUMP JUMPDEST PUSH2 0x2A7 DUP2 PUSH2 0x26A JUMP JUMPDEST DUP5 ADD SWAP2 POP POP SWAP3 SWAP2 POP POP JUMP JUMPDEST PUSH0 PUSH1 0x20 DUP3 ADD SWAP1 POP DUP2 DUP2 SUB PUSH0 DUP4 ADD MSTORE PUSH2 0x2CA DUP2 DUP5 PUSH2 0x27A JUMP JUMPDEST SWAP1 POP SWAP3 SWAP2 POP POP JUMP JUMPDEST PUSH0 PUSH1 0x40 MLOAD SWAP1 POP SWAP1 JUMP JUMPDEST PUSH0 DUP1 REVERT JUMPDEST PUSH0 DUP1 REVERT JUMPDEST PUSH0 DUP2 ISZERO ISZERO SWAP1 POP SWAP2 SWAP1 POP JUMP JUMPDEST PUSH2 0x2F7 DUP2 PUSH2 0x2E3 JUMP JUMPDEST DUP2 EQ PUSH2 0x301 JUMPI PUSH0 DUP1 REVERT JUMPDEST POP JUMP JUMPDEST PUSH0 DUP2 CALLDATALOAD SWAP1 POP PUSH2 0x312 DUP2 PUSH2 0x2EE JUMP JUMPDEST SWAP3 SWAP2 POP POP JUMP JUMPDEST PUSH0 PUSH1 0x20 DUP3 DUP5 SUB SLT ISZERO PUSH2 0x32D JUMPI PUSH2 0x32C PUSH2 0x2DB JUMP JUMPDEST JUMPDEST PUSH0 PUSH2 0x33A DUP5 DUP3 DUP6 ADD PUSH2 0x304 JUMP JUMPDEST SWAP2 POP POP SWAP3 SWAP2 POP POP JUMP JUMPDEST PUSH0 DUP2 SWAP1 POP SWAP2 SWAP1 POP JUMP JUMPDEST PUSH2 0x355 DUP2 PUSH2 0x343 JUMP JUMPDEST DUP3 MSTORE POP POP JUMP JUMPDEST PUSH0 PUSH1 0x20 DUP3 ADD SWAP1 POP PUSH2 0x36E PUSH0 DUP4 ADD DUP5 PUSH2 0x34C JUMP JUMPDEST SWAP3 SWAP2 POP POP JUMP JUMPDEST PUSH0 DUP1 REVERT JUMPDEST PUSH0 DUP1 REVERT JUMPDEST PUSH32 0x4E487B7100000000000000000000000000000000000000000000000000000000 PUSH0 MSTORE PUSH1 0x41 PUSH1 0x4 MSTORE PUSH1 0x24 PUSH0 REVERT JUMPDEST PUSH2 0x3B2 DUP3 PUSH2 0x26A JUMP JUMPDEST DUP2 ADD DUP2 DUP2 LT PUSH8 0xFFFFFFFFFFFFFFFF DUP3 GT OR ISZERO PUSH2 0x3D1 JUMPI PUSH2 0x3D0 PUSH2 0x37C JUMP JUMPDEST JUMPDEST DUP1 PUSH1 0x40 MSTORE POP POP POP JUMP JUMPDEST PUSH0 PUSH2 0x3E3 PUSH2 0x2D2 JUMP JUMPDEST SWAP1 POP PUSH2 0x3EF DUP3 DUP3 PUSH2 0x3A9 JUMP JUMPDEST SWAP2 SWAP1 POP JUMP JUMPDEST PUSH0 PUSH8 0xFFFFFFFFFFFFFFFF DUP3 GT ISZERO PUSH2 0x40E JUMPI PUSH2 0x40D PUSH2 0x37C JUMP JUMPDEST JUMPDEST PUSH2 0x417 DUP3 PUSH2 0x26A JUMP JUMPDEST SWAP1 POP PUSH1 0x20 DUP2 ADD SWAP1 POP SWAP2 SWAP1 POP JUMP JUMPDEST DUP3 DUP2 DUP4 CALLDATACOPY PUSH0 DUP4 DUP4 ADD MSTORE POP POP POP JUMP JUMPDEST PUSH0 PUSH2 0x444 PUSH2 0x43F DUP5 PUSH2 0x3F4 JUMP JUMPDEST PUSH2 0x3DA JUMP JUMPDEST SWAP1 POP DUP3 DUP2 MSTORE PUSH1 0x20 DUP2 ADD DUP5 DUP5 DUP5 ADD GT ISZERO PUSH2 0x460 JUMPI PUSH2 0x45F PUSH2 0x378 JUMP JUMPDEST JUMPDEST PUSH2 0x46B DUP5 DUP3 DUP6 PUSH2 0x424 JUMP JUMPDEST POP SWAP4 SWAP3 POP POP POP JUMP JUMPDEST PUSH0 DUP3 PUSH1 0x1F DUP4 ADD SLT PUSH2 0x487 JUMPI PUSH2 0x486 PUSH2 0x374 JUMP JUMPDEST JUMPDEST DUP2 CALLDATALOAD PUSH2 0x497 DUP5 DUP3 PUSH1 0x20 DUP7 ADD PUSH2 0x432 JUMP JUMPDEST SWAP2 POP POP SWAP3 SWAP2 POP POP JUMP JUMPDEST PUSH0 PUSH1 0x20 DUP3 DUP5 SUB SLT ISZERO PUSH2 0x4B5 JUMPI PUSH2 0x4B4 PUSH2 0x2DB JUMP JUMPDEST JUMPDEST PUSH0 DUP3 ADD CALLDATALOAD PUSH8 0xFFFFFFFFFFFFFFFF DUP2 GT ISZERO PUSH2 0x4D2 JUMPI PUSH2 0x4D1 PUSH2 0x2DF JUMP JUMPDEST JUMPDEST PUSH2 0x4DE DUP5 DUP3 DUP6 ADD PUSH2 0x473 JUMP JUMPDEST SWAP2 POP POP SWAP3 SWAP2 POP POP JUMP JUMPDEST PUSH2 0x4F0 DUP2 PUSH2 0x343 JUMP JUMPDEST DUP2 EQ PUSH2 0x4FA JUMPI PUSH0 DUP1 REVERT JUMPDEST POP JUMP JUMPDEST PUSH0 DUP2 CALLDATALOAD SWAP1 POP PUSH2 0x50B DUP2 PUSH2 0x4E7 JUMP JUMPDEST SWAP3 SWAP2 POP POP JUMP JUMPDEST PUSH0 PUSH1 0x20 DUP3 DUP5 SUB SLT ISZERO PUSH2 0x526 JUMPI PUSH2 0x525 PUSH2 0x2DB JUMP JUMPDEST JUMPDEST PUSH0 PUSH2 0x533 DUP5 DUP3 DUP6 ADD PUSH2 0x4FD JUMP JUMPDEST SWAP2 POP POP SWAP3 SWAP2 POP POP JUMP JUMPDEST PUSH2 0x545 DUP2 PUSH2 0x2E3 JUMP JUMPDEST DUP3 MSTORE POP POP JUMP JUMPDEST PUSH0 PUSH1 0x20 DUP3 ADD SWAP1 POP PUSH2 0x55E PUSH0 DUP4 ADD DUP5 PUSH2 0x53C JUMP JUMPDEST SWAP3 SWAP2 POP POP JUMP JUMPDEST PUSH32 0x4E487B7100000000000000000000000000000000000000000000000000000000 PUSH0 MSTORE PUSH1 0x22 PUSH1 0x4 MSTORE PUSH1 0x24 PUSH0 REVERT JUMPDEST PUSH0 PUSH1 0x2 DUP3 DIV SWAP1 POP PUSH1 0x1 DUP3 AND DUP1 PUSH2 0x5A8 JUMPI PUSH1 0x7F DUP3 AND SWAP2 POP JUMPDEST PUSH1 0x20 DUP3 LT DUP2 SUB PUSH2 0x5BB JUMPI PUSH2 0x5BA PUSH2 0x564 JUMP JUMPDEST JUMPDEST POP SWAP2 SWAP1 POP JUMP JUMPDEST PUSH0 DUP2 SWAP1 POP DUP2 PUSH0 MSTORE PUSH1 0x20 PUSH0 KECCAK256 SWAP1 POP SWAP2 SWAP1 POP JUMP JUMPDEST PUSH0 PUSH1 0x20 PUSH1 0x1F DUP4 ADD DIV SWAP1 POP SWAP2 SWAP1 POP JUMP JUMPDEST PUSH0 DUP3 DUP3 SHL SWAP1 POP SWAP3 SWAP2 POP POP JUMP JUMPDEST PUSH0 PUSH1 0x8 DUP4 MUL PUSH2 0x61D PUSH32 0xFFFFFFFFFFFFFFFFFFFFFFFFFFFFFFFFFFFFFFFFFFFFFFFFFFFFFFFFFFFFFFFF DUP3 PUSH2 0x5E2 JUMP JUMPDEST PUSH2 0x627 DUP7 DUP4 PUSH2 0x5E2 JUMP JUMPDEST SWAP6 POP DUP1 NOT DUP5 AND SWAP4 POP DUP1 DUP7 AND DUP5 OR SWAP3 POP POP POP SWAP4 SWAP3 POP POP POP JUMP JUMPDEST PUSH0 DUP2 SWAP1 POP SWAP2 SWAP1 POP JUMP JUMPDEST PUSH0 PUSH2 0x662 PUSH2 0x65D PUSH2 0x658 DUP5 PUSH2 0x343 JUMP JUMPDEST PUSH2 0x63F JUMP JUMPDEST PUSH2 0x343 JUMP JUMPDEST SWAP1 POP SWAP2 SWAP1 POP JUMP JUMPDEST PUSH0 DUP2 SWAP1 POP SWAP2 SWAP1 POP JUMP JUMPDEST PUSH2 0x67B DUP4 PUSH2 0x648 JUMP JUMPDEST PUSH2 0x68F PUSH2 0x687 DUP3 PUSH2 0x669 JUMP JUMPDEST DUP5 DUP5 SLOAD PUSH2 0x5EE JUMP JUMPDEST DUP3 SSTORE POP POP POP POP JUMP JUMPDEST PUSH0 SWAP1 JUMP JUMPDEST PUSH2 0x6A3 PUSH2 0x697 JUMP JUMPDEST PUSH2 0x6AE DUP2 DUP5 DUP5 PUSH2 0x672 JUMP JUMPDEST POP POP POP JUMP JUMPDEST JUMPDEST DUP2 DUP2 LT ISZERO PUSH2 0x6D1 JUMPI PUSH2 0x6C6 PUSH0 DUP3 PUSH2 0x69B JUMP JUMPDEST PUSH1 0x1 DUP2 ADD SWAP1 POP PUSH2 0x6B4 JUMP JUMPDEST POP POP JUMP JUMPDEST PUSH1 0x1F DUP3 GT ISZERO PUSH2 0x716 JUMPI PUSH2 0x6E7 DUP2 PUSH2 0x5C1 JUMP JUMPDEST PUSH2 0x6F0 DUP5 PUSH2 0x5D3 JUMP JUMPDEST DUP2 ADD PUSH1 0x20 DUP6 LT ISZERO PUSH2 0x6FF JUMPI DUP2 SWAP1 POP JUMPDEST PUSH2 0x713 PUSH2 0x70B DUP6 PUSH2 0x5D3 JUMP JUMPDEST DUP4 ADD DUP3 PUSH2 0x6B3 JUMP JUMPDEST POP POP JUMPDEST POP POP POP JUMP JUMPDEST PUSH0 DUP3 DUP3 SHR SWAP1 POP SWAP3 SWAP2 POP POP JUMP JUMPDEST PUSH0 PUSH2 0x736 PUSH0 NOT DUP5 PUSH1 0x8 MUL PUSH2 0x71B JUMP JUMPDEST NOT DUP1 DUP4 AND SWAP2 POP POP SWAP3 SWAP2 POP POP JUMP JUMPDEST PUSH0 PUSH2 0x74E DUP4 DUP4 PUSH2 0x727 JUMP JUMPDEST SWAP2 POP DUP3 PUSH1 0x2 MUL DUP3 OR SWAP1 POP SWAP3 SWAP2 POP POP JUMP JUMPDEST PUSH2 0x767 DUP3 PUSH2 0x242 JUMP JUMPDEST PUSH8 0xFFFFFFFFFFFFFFFF DUP2 GT ISZERO PUSH2 0x780 JUMPI PUSH2 0x77F PUSH2 0x37C JUMP JUMPDEST JUMPDEST PUSH2 0x78A DUP3 SLOAD PUSH2 0x591 JUMP JUMPDEST PUSH2 0x795 DUP3 DUP3 DUP6 PUSH2 0x6D5 JUMP JUMPDEST PUSH0 PUSH1 0x20 SWAP1 POP PUSH1 0x1F DUP4 GT PUSH1 0x1 DUP2 EQ PUSH2 0x7C6 JUMPI PUSH0 DUP5 ISZERO PUSH2 0x7B4 JUMPI DUP3 DUP8 ADD MLOAD SWAP1 POP JUMPDEST PUSH2 0x7BE DUP6 DUP3 PUSH2 0x743 JUMP JUMPDEST DUP7 SSTORE POP PUSH2 0x825 JUMP JUMPDEST PUSH1 0x1F NOT DUP5 AND PUSH2 0x7D4 DUP7 PUSH2 0x5C1 JUMP JUMPDEST PUSH0 JUMPDEST DUP3 DUP2 LT ISZERO PUSH2 0x7FB JUMPI DUP5 DUP10 ADD MLOAD DUP3 SSTORE PUSH1 0x1 DUP3 ADD SWAP2 POP PUSH1 0x20 DUP6 ADD SWAP5 POP PUSH1 0x20 DUP2 ADD SWAP1 POP PUSH2 0x7D6 JUMP JUMPDEST DUP7 DUP4 LT ISZERO PUSH2 0x818 JUMPI DUP5 DUP10 ADD MLOAD PUSH2 0x814 PUSH1 0x1F DUP10 AND DUP3 PUSH2 0x727 JUMP JUMPDEST DUP4 SSTORE POP JUMPDEST PUSH1 0x1 PUSH1 0x2 DUP9 MUL ADD DUP9 SSTORE POP POP POP JUMPDEST POP POP POP POP POP POP JUMP JUMPDEST PUSH32 0x4E487B7100000000000000000000000000000000000000000000000000000000 PUSH0 MSTORE PUSH1 0x11 PUSH1 0x4 MSTORE PUSH1 0x24 PUSH0 REVERT JUMPDEST PUSH0 PUSH2 0x864 DUP3 PUSH2 0x343 JUMP JUMPDEST SWAP2 POP PUSH2 0x86F DUP4 PUSH2 0x343 JUMP JUMPDEST SWAP3 POP DUP3 DUP3 ADD SWAP1 POP DUP1 DUP3 GT ISZERO PUSH2 0x887 JUMPI PUSH2 0x886 PUSH2 0x82D JUMP JUMPDEST JUMPDEST SWAP3 SWAP2 POP POP JUMP INVALID LOG2 PUSH5 0x6970667358 0x22 SLT KECCAK256 PUSH20 0xC89156877E4642B0BFC9EDB49BD1463EA7BA79 DUP16 0xAC MULMOD MLOAD 0x1E KECCAK256 SWAP14 0xAB DUP7 DUP2 0xAF PUSH5 0x736F6C6343 STOP ADDMOD BYTE STOP CALLER "
		},
		"gasEstimates": {
			"creation": {
				"codeDepositCost": "448600",
				"executionCost": "infinite",
				"totalCost": "infinite"
			},
			"external": {
				"getAge()": "2432",
				"getNacionalityBr()": "2539",
				"incrementAge()": "infinite",
				"name()": "infinite",
				"setAge(uint256)": "22559",
				"setNacionalityBr(bool)": "24696",
				"setName(string)": "infinite"
			},
			"internal": {
				"addValues(uint256,uint256)": "infinite"
			}
		},
		"methodIdentifiers": {
			"getAge()": "967e6e65",
			"getNacionalityBr()": "f553d48a",
			"incrementAge()": "6840f0ae",
			"name()": "06fdde03",
			"setAge(uint256)": "d5dcf127",
			"setNacionalityBr(bool)": "099c682c",
			"setName(string)": "c47f0027"
		}
	},
	"abi": [
		{
			"inputs": [],
			"stateMutability": "nonpayable",
			"type": "constructor"
		},
		{
			"inputs": [],
			"name": "getAge",
			"outputs": [
				{
					"internalType": "uint256",
					"name": "",
					"type": "uint256"
				}
			],
			"stateMutability": "view",
			"type": "function"
		},
		{
			"inputs": [],
			"name": "getNacionalityBr",
			"outputs": [
				{
					"internalType": "bool",
					"name": "",
					"type": "bool"
				}
			],
			"stateMutability": "view",
			"type": "function"
		},
		{
			"inputs": [],
			"name": "incrementAge",
			"outputs": [],
			"stateMutability": "nonpayable",
			"type": "function"
		},
		{
			"inputs": [],
			"name": "name",
			"outputs": [
				{
					"internalType": "string",
					"name": "",
					"type": "string"
				}
			],
			"stateMutability": "view",
			"type": "function"
		},
		{
			"inputs": [
				{
					"internalType": "uint256",
					"name": "_age",
					"type": "uint256"
				}
			],
			"name": "setAge",
			"outputs": [],
			"stateMutability": "nonpayable",
			"type": "function"
		},
		{
			"inputs": [
				{
					"internalType": "bool",
					"name": "_braz",
					"type": "bool"
				}
			],
			"name": "setNacionalityBr",
			"outputs": [],
			"stateMutability": "nonpayable",
			"type": "function"
		},
		{
			"inputs": [
				{
					"internalType": "string",
					"name": "_name",
					"type": "string"
				}
			],
			"name": "setName",
			"outputs": [],
			"stateMutability": "nonpayable",
			"type": "function"
		}
	]
}