{
	"data": {
		"bytecode": {
			"linkReferences": {},
			"object": "6080604052348015600e575f5ffd5b505f600381905550610bca806100235f395ff3fe608060405234801561000f575f5ffd5b5060043610610060575f3560e01c80630830602b1461006457806342d21ef7146100805780634558593e146100b05780635718e17b146100cc57806366f188b8146100fc57806373ff93a21461011a575b5f5ffd5b61007e6004803603810190610079919061054f565b610138565b005b61009a600480360381019061009591906105c9565b6101d7565b6040516100a79190610654565b60405180910390f35b6100ca60048036038101906100c59190610674565b610272565b005b6100e660048036038101906100e191906105c9565b610305565b6040516100f39190610654565b60405180910390f35b6101046103f0565b60405161011191906106e8565b60405180910390f35b6101226103fc565b60405161012f9190610710565b60405180910390f35b6003805410156101d4576040518060400160405280600981526020017f556e646566696e6564000000000000000000000000000000000000000000000081525060045f60035481526020019081526020015f2090816101979190610926565b50805f600354600381106101ae576101ad6109f5565b5b0190816101bb9190610926565b5060035f8154809291906101ce90610a4f565b91905055505b50565b6004602052805f5260405f205f9150905080546101f390610756565b80601f016020809104026020016040519081016040528092919081815260200182805461021f90610756565b801561026a5780601f106102415761010080835404028352916020019161026a565b820191905f5260205f20905b81548152906001019060200180831161024d57829003601f168201915b505050505081565b6003821080156102dc575060405160200161028c90610aea565b6040516020818303038152906040528051906020012060045f8481526020019081526020015f206040516020016102c39190610b7e565b6040516020818303038152906040528051906020012014155b15610301578060045f8481526020019081526020015f2090816102ff9190610926565b505b5050565b606060038210156103b2575f8260038110610323576103226109f5565b5b01805461032f90610756565b80601f016020809104026020016040519081016040528092919081815260200182805461035b90610756565b80156103a65780601f1061037d576101008083540402835291602001916103a6565b820191905f5260205f20905b81548152906001019060200180831161038957829003601f168201915b505050505090506103eb565b6040518060400160405280601a81526020017f4572726f723a20696e646578206f7574206f6620626f756e647300000000000081525090505b919050565b5f600380541015905090565b60035481565b5f604051905090565b5f5ffd5b5f5ffd5b5f5ffd5b5f5ffd5b5f601f19601f8301169050919050565b7f4e487b71000000000000000000000000000000000000000000000000000000005f52604160045260245ffd5b6104618261041b565b810181811067ffffffffffffffff821117156104805761047f61042b565b5b80604052505050565b5f610492610402565b905061049e8282610458565b919050565b5f67ffffffffffffffff8211156104bd576104bc61042b565b5b6104c68261041b565b9050602081019050919050565b828183375f83830152505050565b5f6104f36104ee846104a3565b610489565b90508281526020810184848401111561050f5761050e610417565b5b61051a8482856104d3565b509392505050565b5f82601f83011261053657610535610413565b5b81356105468482602086016104e1565b91505092915050565b5f602082840312156105645761056361040b565b5b5f82013567ffffffffffffffff8111156105815761058061040f565b5b61058d84828501610522565b91505092915050565b5f819050919050565b6105a881610596565b81146105b2575f5ffd5b50565b5f813590506105c38161059f565b92915050565b5f602082840312156105de576105dd61040b565b5b5f6105eb848285016105b5565b91505092915050565b5f81519050919050565b5f82825260208201905092915050565b8281835e5f83830152505050565b5f610626826105f4565b61063081856105fe565b935061064081856020860161060e565b6106498161041b565b840191505092915050565b5f6020820190508181035f83015261066c818461061c565b905092915050565b5f5f6040838503121561068a5761068961040b565b5b5f610697858286016105b5565b925050602083013567ffffffffffffffff8111156106b8576106b761040f565b5b6106c485828601610522565b9150509250929050565b5f8115159050919050565b6106e2816106ce565b82525050565b5f6020820190506106fb5f8301846106d9565b92915050565b61070a81610596565b82525050565b5f6020820190506107235f830184610701565b92915050565b7f4e487b71000000000000000000000000000000000000000000000000000000005f52602260045260245ffd5b5f600282049050600182168061076d57607f821691505b6020821081036107805761077f610729565b5b50919050565b5f819050815f5260205f209050919050565b5f6020601f8301049050919050565b5f82821b905092915050565b5f600883026107e27fffffffffffffffffffffffffffffffffffffffffffffffffffffffffffffffff826107a7565b6107ec86836107a7565b95508019841693508086168417925050509392505050565b5f819050919050565b5f61082761082261081d84610596565b610804565b610596565b9050919050565b5f819050919050565b6108408361080d565b61085461084c8261082e565b8484546107b3565b825550505050565b5f5f905090565b61086b61085c565b610876818484610837565b505050565b5b818110156108995761088e5f82610863565b60018101905061087c565b5050565b601f8211156108de576108af81610786565b6108b884610798565b810160208510156108c7578190505b6108db6108d385610798565b83018261087b565b50505b505050565b5f82821c905092915050565b5f6108fe5f19846008026108e3565b1980831691505092915050565b5f61091683836108ef565b9150826002028217905092915050565b61092f826105f4565b67ffffffffffffffff8111156109485761094761042b565b5b6109528254610756565b61095d82828561089d565b5f60209050601f83116001811461098e575f841561097c578287015190505b610986858261090b565b8655506109ed565b601f19841661099c86610786565b5f5b828110156109c35784890151825560018201915060208501945060208101905061099e565b868310156109e057848901516109dc601f8916826108ef565b8355505b6001600288020188555050505b505050505050565b7f4e487b71000000000000000000000000000000000000000000000000000000005f52603260045260245ffd5b7f4e487b71000000000000000000000000000000000000000000000000000000005f52601160045260245ffd5b5f610a5982610596565b91507fffffffffffffffffffffffffffffffffffffffffffffffffffffffffffffffff8203610a8b57610a8a610a22565b5b600182019050919050565b5f81905092915050565b7f556e646566696e656400000000000000000000000000000000000000000000005f82015250565b5f610ad4600983610a96565b9150610adf82610aa0565b600982019050919050565b5f610af482610ac8565b9150819050919050565b5f8154610b0a81610756565b610b148186610a96565b9450600182165f8114610b2e5760018114610b4357610b75565b60ff1983168652811515820286019350610b75565b610b4c85610786565b5f5b83811015610b6d57815481890152600182019150602081019050610b4e565b838801955050505b50505092915050565b5f610b898284610afe565b91508190509291505056fea26469706673582212208c82c24879dfc36daef1fd3c84ea96733da72f816d91d585703f25b0ae8a23a164736f6c634300081e0033",
			"opcodes": "PUSH1 0x80 PUSH1 0x40 MSTORE CALLVALUE DUP1 ISZERO PUSH1 0xE JUMPI PUSH0 PUSH0 REVERT JUMPDEST POP PUSH0 PUSH1 0x3 DUP2 SWAP1 SSTORE POP PUSH2 0xBCA DUP1 PUSH2 0x23 PUSH0 CODECOPY PUSH0 RETURN INVALID PUSH1 0x80 PUSH1 0x40 MSTORE CALLVALUE DUP1 ISZERO PUSH2 0xF JUMPI PUSH0 PUSH0 REVERT JUMPDEST POP PUSH1 0x4 CALLDATASIZE LT PUSH2 0x60 JUMPI PUSH0 CALLDATALOAD PUSH1 0xE0 SHR DUP1 PUSH4 0x830602B EQ PUSH2 0x64 JUMPI DUP1 PUSH4 0x42D21EF7 EQ PUSH2 0x80 JUMPI DUP1 PUSH4 0x4558593E EQ PUSH2 0xB0 JUMPI DUP1 PUSH4 0x5718E17B EQ PUSH2 0xCC JUMPI DUP1 PUSH4 0x66F188B8 EQ PUSH2 0xFC JUMPI DUP1 PUSH4 0x73FF93A2 EQ PUSH2 0x11A JUMPI JUMPDEST PUSH0 PUSH0 REVERT JUMPDEST PUSH2 0x7E PUSH1 0x4 DUP1 CALLDATASIZE SUB DUP2 ADD SWAP1 PUSH2 0x79 SWAP2 SWAP1 PUSH2 0x54F JUMP JUMPDEST PUSH2 0x138 JUMP JUMPDEST STOP JUMPDEST PUSH2 0x9A PUSH1 0x4 DUP1 CALLDATASIZE SUB DUP2 ADD SWAP1 PUSH2 0x95 SWAP2 SWAP1 PUSH2 0x5C9 JUMP JUMPDEST PUSH2 0x1D7 JUMP JUMPDEST PUSH1 0x40 MLOAD PUSH2 0xA7 SWAP2 SWAP1 PUSH2 0x654 JUMP JUMPDEST PUSH1 0x40 MLOAD DUP1 SWAP2 SUB SWAP1 RETURN JUMPDEST PUSH2 0xCA PUSH1 0x4 DUP1 CALLDATASIZE SUB DUP2 ADD SWAP1 PUSH2 0xC5 SWAP2 SWAP1 PUSH2 0x674 JUMP JUMPDEST PUSH2 0x272 JUMP JUMPDEST STOP JUMPDEST PUSH2 0xE6 PUSH1 0x4 DUP1 CALLDATASIZE SUB DUP2 ADD SWAP1 PUSH2 0xE1 SWAP2 SWAP1 PUSH2 0x5C9 JUMP JUMPDEST PUSH2 0x305 JUMP JUMPDEST PUSH1 0x40 MLOAD PUSH2 0xF3 SWAP2 SWAP1 PUSH2 0x654 JUMP JUMPDEST PUSH1 0x40 MLOAD DUP1 SWAP2 SUB SWAP1 RETURN JUMPDEST PUSH2 0x104 PUSH2 0x3F0 JUMP JUMPDEST PUSH1 0x40 MLOAD PUSH2 0x111 SWAP2 SWAP1 PUSH2 0x6E8 JUMP JUMPDEST PUSH1 0x40 MLOAD DUP1 SWAP2 SUB SWAP1 RETURN JUMPDEST PUSH2 0x122 PUSH2 0x3FC JUMP JUMPDEST PUSH1 0x40 MLOAD PUSH2 0x12F SWAP2 SWAP1 PUSH2 0x710 JUMP JUMPDEST PUSH1 0x40 MLOAD DUP1 SWAP2 SUB SWAP1 RETURN JUMPDEST PUSH1 0x3 DUP1 SLOAD LT ISZERO PUSH2 0x1D4 JUMPI PUSH1 0x40 MLOAD DUP1 PUSH1 0x40 ADD PUSH1 0x40 MSTORE DUP1 PUSH1 0x9 DUP2 MSTORE PUSH1 0x20 ADD PUSH32 0x556E646566696E65640000000000000000000000000000000000000000000000 DUP2 MSTORE POP PUSH1 0x4 PUSH0 PUSH1 0x3 SLOAD DUP2 MSTORE PUSH1 0x20 ADD SWAP1 DUP2 MSTORE PUSH1 0x20 ADD PUSH0 KECCAK256 SWAP1 DUP2 PUSH2 0x197 SWAP2 SWAP1 PUSH2 0x926 JUMP JUMPDEST POP DUP1 PUSH0 PUSH1 0x3 SLOAD PUSH1 0x3 DUP2 LT PUSH2 0x1AE JUMPI PUSH2 0x1AD PUSH2 0x9F5 JUMP JUMPDEST JUMPDEST ADD SWAP1 DUP2 PUSH2 0x1BB SWAP2 SWAP1 PUSH2 0x926 JUMP JUMPDEST POP PUSH1 0x3 PUSH0 DUP2 SLOAD DUP1 SWAP3 SWAP2 SWAP1 PUSH2 0x1CE SWAP1 PUSH2 0xA4F JUMP JUMPDEST SWAP2 SWAP1 POP SSTORE POP JUMPDEST POP JUMP JUMPDEST PUSH1 0x4 PUSH1 0x20 MSTORE DUP1 PUSH0 MSTORE PUSH1 0x40 PUSH0 KECCAK256 PUSH0 SWAP2 POP SWAP1 POP DUP1 SLOAD PUSH2 0x1F3 SWAP1 PUSH2 0x756 JUMP JUMPDEST DUP1 PUSH1 0x1F ADD PUSH1 0x20 DUP1 SWAP2 DIV MUL PUSH1 0x20 ADD PUSH1 0x40 MLOAD SWAP1 DUP2 ADD PUSH1 0x40 MSTORE DUP1 SWAP3 SWAP2 SWAP1 DUP2 DUP2 MSTORE PUSH1 0x20 ADD DUP3 DUP1 SLOAD PUSH2 0x21F SWAP1 PUSH2 0x756 JUMP JUMPDEST DUP1 ISZERO PUSH2 0x26A JUMPI DUP1 PUSH1 0x1F LT PUSH2 0x241 JUMPI PUSH2 0x100 DUP1 DUP4 SLOAD DIV MUL DUP4 MSTORE SWAP2 PUSH1 0x20 ADD SWAP2 PUSH2 0x26A JUMP JUMPDEST DUP3 ADD SWAP2 SWAP1 PUSH0 MSTORE PUSH1 0x20 PUSH0 KECCAK256 SWAP1 JUMPDEST DUP2 SLOAD DUP2 MSTORE SWAP1 PUSH1 0x1 ADD SWAP1 PUSH1 0x20 ADD DUP1 DUP4 GT PUSH2 0x24D JUMPI DUP3 SWAP1 SUB PUSH1 0x1F AND DUP3 ADD SWAP2 JUMPDEST POP POP POP POP POP DUP2 JUMP JUMPDEST PUSH1 0x3 DUP3 LT DUP1 ISZERO PUSH2 0x2DC JUMPI POP PUSH1 0x40 MLOAD PUSH1 0x20 ADD PUSH2 0x28C SWAP1 PUSH2 0xAEA JUMP JUMPDEST PUSH1 0x40 MLOAD PUSH1 0x20 DUP2 DUP4 SUB SUB DUP2 MSTORE SWAP1 PUSH1 0x40 MSTORE DUP1 MLOAD SWAP1 PUSH1 0x20 ADD KECCAK256 PUSH1 0x4 PUSH0 DUP5 DUP2 MSTORE PUSH1 0x20 ADD SWAP1 DUP2 MSTORE PUSH1 0x20 ADD PUSH0 KECCAK256 PUSH1 0x40 MLOAD PUSH1 0x20 ADD PUSH2 0x2C3 SWAP2 SWAP1 PUSH2 0xB7E JUMP JUMPDEST PUSH1 0x40 MLOAD PUSH1 0x20 DUP2 DUP4 SUB SUB DUP2 MSTORE SWAP1 PUSH1 0x40 MSTORE DUP1 MLOAD SWAP1 PUSH1 0x20 ADD KECCAK256 EQ ISZERO JUMPDEST ISZERO PUSH2 0x301 JUMPI DUP1 PUSH1 0x4 PUSH0 DUP5 DUP2 MSTORE PUSH1 0x20 ADD SWAP1 DUP2 MSTORE PUSH1 0x20 ADD PUSH0 KECCAK256 SWAP1 DUP2 PUSH2 0x2FF SWAP2 SWAP1 PUSH2 0x926 JUMP JUMPDEST POP JUMPDEST POP POP JUMP JUMPDEST PUSH1 0x60 PUSH1 0x3 DUP3 LT ISZERO PUSH2 0x3B2 JUMPI PUSH0 DUP3 PUSH1 0x3 DUP2 LT PUSH2 0x323 JUMPI PUSH2 0x322 PUSH2 0x9F5 JUMP JUMPDEST JUMPDEST ADD DUP1 SLOAD PUSH2 0x32F SWAP1 PUSH2 0x756 JUMP JUMPDEST DUP1 PUSH1 0x1F ADD PUSH1 0x20 DUP1 SWAP2 DIV MUL PUSH1 0x20 ADD PUSH1 0x40 MLOAD SWAP1 DUP2 ADD PUSH1 0x40 MSTORE DUP1 SWAP3 SWAP2 SWAP1 DUP2 DUP2 MSTORE PUSH1 0x20 ADD DUP3 DUP1 SLOAD PUSH2 0x35B SWAP1 PUSH2 0x756 JUMP JUMPDEST DUP1 ISZERO PUSH2 0x3A6 JUMPI DUP1 PUSH1 0x1F LT PUSH2 0x37D JUMPI PUSH2 0x100 DUP1 DUP4 SLOAD DIV MUL DUP4 MSTORE SWAP2 PUSH1 0x20 ADD SWAP2 PUSH2 0x3A6 JUMP JUMPDEST DUP3 ADD SWAP2 SWAP1 PUSH0 MSTORE PUSH1 0x20 PUSH0 KECCAK256 SWAP1 JUMPDEST DUP2 SLOAD DUP2 MSTORE SWAP1 PUSH1 0x1 ADD SWAP1 PUSH1 0x20 ADD DUP1 DUP4 GT PUSH2 0x389 JUMPI DUP3 SWAP1 SUB PUSH1 0x1F AND DUP3 ADD SWAP2 JUMPDEST POP POP POP POP POP SWAP1 POP PUSH2 0x3EB JUMP JUMPDEST PUSH1 0x40 MLOAD DUP1 PUSH1 0x40 ADD PUSH1 0x40 MSTORE DUP1 PUSH1 0x1A DUP2 MSTORE PUSH1 0x20 ADD PUSH32 0x4572726F723A20696E646578206F7574206F6620626F756E6473000000000000 DUP2 MSTORE POP SWAP1 POP JUMPDEST SWAP2 SWAP1 POP JUMP JUMPDEST PUSH0 PUSH1 0x3 DUP1 SLOAD LT ISZERO SWAP1 POP SWAP1 JUMP JUMPDEST PUSH1 0x3 SLOAD DUP2 JUMP JUMPDEST PUSH0 PUSH1 0x40 MLOAD SWAP1 POP SWAP1 JUMP JUMPDEST PUSH0 PUSH0 REVERT JUMPDEST PUSH0 PUSH0 REVERT JUMPDEST PUSH0 PUSH0 REVERT JUMPDEST PUSH0 PUSH0 REVERT JUMPDEST PUSH0 PUSH1 0x1F NOT PUSH1 0x1F DUP4 ADD AND SWAP1 POP SWAP2 SWAP1 POP JUMP JUMPDEST PUSH32 0x4E487B7100000000000000000000000000000000000000000000000000000000 PUSH0 MSTORE PUSH1 0x41 PUSH1 0x4 MSTORE PUSH1 0x24 PUSH0 REVERT JUMPDEST PUSH2 0x461 DUP3 PUSH2 0x41B JUMP JUMPDEST DUP2 ADD DUP2 DUP2 LT PUSH8 0xFFFFFFFFFFFFFFFF DUP3 GT OR ISZERO PUSH2 0x480 JUMPI PUSH2 0x47F PUSH2 0x42B JUMP JUMPDEST JUMPDEST DUP1 PUSH1 0x40 MSTORE POP POP POP JUMP JUMPDEST PUSH0 PUSH2 0x492 PUSH2 0x402 JUMP JUMPDEST SWAP1 POP PUSH2 0x49E DUP3 DUP3 PUSH2 0x458 JUMP JUMPDEST SWAP2 SWAP1 POP JUMP JUMPDEST PUSH0 PUSH8 0xFFFFFFFFFFFFFFFF DUP3 GT ISZERO PUSH2 0x4BD JUMPI PUSH2 0x4BC PUSH2 0x42B JUMP JUMPDEST JUMPDEST PUSH2 0x4C6 DUP3 PUSH2 0x41B JUMP JUMPDEST SWAP1 POP PUSH1 0x20 DUP2 ADD SWAP1 POP SWAP2 SWAP1 POP JUMP JUMPDEST DUP3 DUP2 DUP4 CALLDATACOPY PUSH0 DUP4 DUP4 ADD MSTORE POP POP POP JUMP JUMPDEST PUSH0 PUSH2 0x4F3 PUSH2 0x4EE DUP5 PUSH2 0x4A3 JUMP JUMPDEST PUSH2 0x489 JUMP JUMPDEST SWAP1 POP DUP3 DUP2 MSTORE PUSH1 0x20 DUP2 ADD DUP5 DUP5 DUP5 ADD GT ISZERO PUSH2 0x50F JUMPI PUSH2 0x50E PUSH2 0x417 JUMP JUMPDEST JUMPDEST PUSH2 0x51A DUP5 DUP3 DUP6 PUSH2 0x4D3 JUMP JUMPDEST POP SWAP4 SWAP3 POP POP POP JUMP JUMPDEST PUSH0 DUP3 PUSH1 0x1F DUP4 ADD SLT PUSH2 0x536 JUMPI PUSH2 0x535 PUSH2 0x413 JUMP JUMPDEST JUMPDEST DUP2 CALLDATALOAD PUSH2 0x546 DUP5 DUP3 PUSH1 0x20 DUP7 ADD PUSH2 0x4E1 JUMP JUMPDEST SWAP2 POP POP SWAP3 SWAP2 POP POP JUMP JUMPDEST PUSH0 PUSH1 0x20 DUP3 DUP5 SUB SLT ISZERO PUSH2 0x564 JUMPI PUSH2 0x563 PUSH2 0x40B JUMP JUMPDEST JUMPDEST PUSH0 DUP3 ADD CALLDATALOAD PUSH8 0xFFFFFFFFFFFFFFFF DUP2 GT ISZERO PUSH2 0x581 JUMPI PUSH2 0x580 PUSH2 0x40F JUMP JUMPDEST JUMPDEST PUSH2 0x58D DUP5 DUP3 DUP6 ADD PUSH2 0x522 JUMP JUMPDEST SWAP2 POP POP SWAP3 SWAP2 POP POP JUMP JUMPDEST PUSH0 DUP2 SWAP1 POP SWAP2 SWAP1 POP JUMP JUMPDEST PUSH2 0x5A8 DUP2 PUSH2 0x596 JUMP JUMPDEST DUP2 EQ PUSH2 0x5B2 JUMPI PUSH0 PUSH0 REVERT JUMPDEST POP JUMP JUMPDEST PUSH0 DUP2 CALLDATALOAD SWAP1 POP PUSH2 0x5C3 DUP2 PUSH2 0x59F JUMP JUMPDEST SWAP3 SWAP2 POP POP JUMP JUMPDEST PUSH0 PUSH1 0x20 DUP3 DUP5 SUB SLT ISZERO PUSH2 0x5DE JUMPI PUSH2 0x5DD PUSH2 0x40B JUMP JUMPDEST JUMPDEST PUSH0 PUSH2 0x5EB DUP5 DUP3 DUP6 ADD PUSH2 0x5B5 JUMP JUMPDEST SWAP2 POP POP SWAP3 SWAP2 POP POP JUMP JUMPDEST PUSH0 DUP2 MLOAD SWAP1 POP SWAP2 SWAP1 POP JUMP JUMPDEST PUSH0 DUP3 DUP3 MSTORE PUSH1 0x20 DUP3 ADD SWAP1 POP SWAP3 SWAP2 POP POP JUMP JUMPDEST DUP3 DUP2 DUP4 MCOPY PUSH0 DUP4 DUP4 ADD MSTORE POP POP POP JUMP JUMPDEST PUSH0 PUSH2 0x626 DUP3 PUSH2 0x5F4 JUMP JUMPDEST PUSH2 0x630 DUP2 DUP6 PUSH2 0x5FE JUMP JUMPDEST SWAP4 POP PUSH2 0x640 DUP2 DUP6 PUSH1 0x20 DUP7 ADD PUSH2 0x60E JUMP JUMPDEST PUSH2 0x649 DUP2 PUSH2 0x41B JUMP JUMPDEST DUP5 ADD SWAP2 POP POP SWAP3 SWAP2 POP POP JUMP JUMPDEST PUSH0 PUSH1 0x20 DUP3 ADD SWAP1 POP DUP2 DUP2 SUB PUSH0 DUP4 ADD MSTORE PUSH2 0x66C DUP2 DUP5 PUSH2 0x61C JUMP JUMPDEST SWAP1 POP SWAP3 SWAP2 POP POP JUMP JUMPDEST PUSH0 PUSH0 PUSH1 0x40 DUP4 DUP6 SUB SLT ISZERO PUSH2 0x68A JUMPI PUSH2 0x689 PUSH2 0x40B JUMP JUMPDEST JUMPDEST PUSH0 PUSH2 0x697 DUP6 DUP3 DUP7 ADD PUSH2 0x5B5 JUMP JUMPDEST SWAP3 POP POP PUSH1 0x20 DUP4 ADD CALLDATALOAD PUSH8 0xFFFFFFFFFFFFFFFF DUP2 GT ISZERO PUSH2 0x6B8 JUMPI PUSH2 0x6B7 PUSH2 0x40F JUMP JUMPDEST JUMPDEST PUSH2 0x6C4 DUP6 DUP3 DUP7 ADD PUSH2 0x522 JUMP JUMPDEST SWAP2 POP POP SWAP3 POP SWAP3 SWAP1 POP JUMP JUMPDEST PUSH0 DUP2 ISZERO ISZERO SWAP1 POP SWAP2 SWAP1 POP JUMP JUMPDEST PUSH2 0x6E2 DUP2 PUSH2 0x6CE JUMP JUMPDEST DUP3 MSTORE POP POP JUMP JUMPDEST PUSH0 PUSH1 0x20 DUP3 ADD SWAP1 POP PUSH2 0x6FB PUSH0 DUP4 ADD DUP5 PUSH2 0x6D9 JUMP JUMPDEST SWAP3 SWAP2 POP POP JUMP JUMPDEST PUSH2 0x70A DUP2 PUSH2 0x596 JUMP JUMPDEST DUP3 MSTORE POP POP JUMP JUMPDEST PUSH0 PUSH1 0x20 DUP3 ADD SWAP1 POP PUSH2 0x723 PUSH0 DUP4 ADD DUP5 PUSH2 0x701 JUMP JUMPDEST SWAP3 SWAP2 POP POP JUMP JUMPDEST PUSH32 0x4E487B7100000000000000000000000000000000000000000000000000000000 PUSH0 MSTORE PUSH1 0x22 PUSH1 0x4 MSTORE PUSH1 0x24 PUSH0 REVERT JUMPDEST PUSH0 PUSH1 0x2 DUP3 DIV SWAP1 POP PUSH1 0x1 DUP3 AND DUP1 PUSH2 0x76D JUMPI PUSH1 0x7F DUP3 AND SWAP2 POP JUMPDEST PUSH1 0x20 DUP3 LT DUP2 SUB PUSH2 0x780 JUMPI PUSH2 0x77F PUSH2 0x729 JUMP JUMPDEST JUMPDEST POP SWAP2 SWAP1 POP JUMP JUMPDEST PUSH0 DUP2 SWAP1 POP DUP2 PUSH0 MSTORE PUSH1 0x20 PUSH0 KECCAK256 SWAP1 POP SWAP2 SWAP1 POP JUMP JUMPDEST PUSH0 PUSH1 0x20 PUSH1 0x1F DUP4 ADD DIV SWAP1 POP SWAP2 SWAP1 POP JUMP JUMPDEST PUSH0 DUP3 DUP3 SHL SWAP1 POP SWAP3 SWAP2 POP POP JUMP JUMPDEST PUSH0 PUSH1 0x8 DUP4 MUL PUSH2 0x7E2 PUSH32 0xFFFFFFFFFFFFFFFFFFFFFFFFFFFFFFFFFFFFFFFFFFFFFFFFFFFFFFFFFFFFFFFF DUP3 PUSH2 0x7A7 JUMP JUMPDEST PUSH2 0x7EC DUP7 DUP4 PUSH2 0x7A7 JUMP JUMPDEST SWAP6 POP DUP1 NOT DUP5 AND SWAP4 POP DUP1 DUP7 AND DUP5 OR SWAP3 POP POP POP SWAP4 SWAP3 POP POP POP JUMP JUMPDEST PUSH0 DUP2 SWAP1 POP SWAP2 SWAP1 POP JUMP JUMPDEST PUSH0 PUSH2 0x827 PUSH2 0x822 PUSH2 0x81D DUP5 PUSH2 0x596 JUMP JUMPDEST PUSH2 0x804 JUMP JUMPDEST PUSH2 0x596 JUMP JUMPDEST SWAP1 POP SWAP2 SWAP1 POP JUMP JUMPDEST PUSH0 DUP2 SWAP1 POP SWAP2 SWAP1 POP JUMP JUMPDEST PUSH2 0x840 DUP4 PUSH2 0x80D JUMP JUMPDEST PUSH2 0x854 PUSH2 0x84C DUP3 PUSH2 0x82E JUMP JUMPDEST DUP5 DUP5 SLOAD PUSH2 0x7B3 JUMP JUMPDEST DUP3 SSTORE POP POP POP POP JUMP JUMPDEST PUSH0 PUSH0 SWAP1 POP SWAP1 JUMP JUMPDEST PUSH2 0x86B PUSH2 0x85C JUMP JUMPDEST PUSH2 0x876 DUP2 DUP5 DUP5 PUSH2 0x837 JUMP JUMPDEST POP POP POP JUMP JUMPDEST JUMPDEST DUP2 DUP2 LT ISZERO PUSH2 0x899 JUMPI PUSH2 0x88E PUSH0 DUP3 PUSH2 0x863 JUMP JUMPDEST PUSH1 0x1 DUP2 ADD SWAP1 POP PUSH2 0x87C JUMP JUMPDEST POP POP JUMP JUMPDEST PUSH1 0x1F DUP3 GT ISZERO PUSH2 0x8DE JUMPI PUSH2 0x8AF DUP2 PUSH2 0x786 JUMP JUMPDEST PUSH2 0x8B8 DUP5 PUSH2 0x798 JUMP JUMPDEST DUP2 ADD PUSH1 0x20 DUP6 LT ISZERO PUSH2 0x8C7 JUMPI DUP2 SWAP1 POP JUMPDEST PUSH2 0x8DB PUSH2 0x8D3 DUP6 PUSH2 0x798 JUMP JUMPDEST DUP4 ADD DUP3 PUSH2 0x87B JUMP JUMPDEST POP POP JUMPDEST POP POP POP JUMP JUMPDEST PUSH0 DUP3 DUP3 SHR SWAP1 POP SWAP3 SWAP2 POP POP JUMP JUMPDEST PUSH0 PUSH2 0x8FE PUSH0 NOT DUP5 PUSH1 0x8 MUL PUSH2 0x8E3 JUMP JUMPDEST NOT DUP1 DUP4 AND SWAP2 POP POP SWAP3 SWAP2 POP POP JUMP JUMPDEST PUSH0 PUSH2 0x916 DUP4 DUP4 PUSH2 0x8EF JUMP JUMPDEST SWAP2 POP DUP3 PUSH1 0x2 MUL DUP3 OR SWAP1 POP SWAP3 SWAP2 POP POP JUMP JUMPDEST PUSH2 0x92F DUP3 PUSH2 0x5F4 JUMP JUMPDEST PUSH8 0xFFFFFFFFFFFFFFFF DUP2 GT ISZERO PUSH2 0x948 JUMPI PUSH2 0x947 PUSH2 0x42B JUMP JUMPDEST JUMPDEST PUSH2 0x952 DUP3 SLOAD PUSH2 0x756 JUMP JUMPDEST PUSH2 0x95D DUP3 DUP3 DUP6 PUSH2 0x89D JUMP JUMPDEST PUSH0 PUSH1 0x20 SWAP1 POP PUSH1 0x1F DUP4 GT PUSH1 0x1 DUP2 EQ PUSH2 0x98E JUMPI PUSH0 DUP5 ISZERO PUSH2 0x97C JUMPI DUP3 DUP8 ADD MLOAD SWAP1 POP JUMPDEST PUSH2 0x986 DUP6 DUP3 PUSH2 0x90B JUMP JUMPDEST DUP7 SSTORE POP PUSH2 0x9ED JUMP JUMPDEST PUSH1 0x1F NOT DUP5 AND PUSH2 0x99C DUP7 PUSH2 0x786 JUMP JUMPDEST PUSH0 JUMPDEST DUP3 DUP2 LT ISZERO PUSH2 0x9C3 JUMPI DUP5 DUP10 ADD MLOAD DUP3 SSTORE PUSH1 0x1 DUP3 ADD SWAP2 POP PUSH1 0x20 DUP6 ADD SWAP5 POP PUSH1 0x20 DUP2 ADD SWAP1 POP PUSH2 0x99E JUMP JUMPDEST DUP7 DUP4 LT ISZERO PUSH2 0x9E0 JUMPI DUP5 DUP10 ADD MLOAD PUSH2 0x9DC PUSH1 0x1F DUP10 AND DUP3 PUSH2 0x8EF JUMP JUMPDEST DUP4 SSTORE POP JUMPDEST PUSH1 0x1 PUSH1 0x2 DUP9 MUL ADD DUP9 SSTORE POP POP POP JUMPDEST POP POP POP POP POP POP JUMP JUMPDEST PUSH32 0x4E487B7100000000000000000000000000000000000000000000000000000000 PUSH0 MSTORE PUSH1 0x32 PUSH1 0x4 MSTORE PUSH1 0x24 PUSH0 REVERT JUMPDEST PUSH32 0x4E487B7100000000000000000000000000000000000000000000000000000000 PUSH0 MSTORE PUSH1 0x11 PUSH1 0x4 MSTORE PUSH1 0x24 PUSH0 REVERT JUMPDEST PUSH0 PUSH2 0xA59 DUP3 PUSH2 0x596 JUMP JUMPDEST SWAP2 POP PUSH32 0xFFFFFFFFFFFFFFFFFFFFFFFFFFFFFFFFFFFFFFFFFFFFFFFFFFFFFFFFFFFFFFFF DUP3 SUB PUSH2 0xA8B JUMPI PUSH2 0xA8A PUSH2 0xA22 JUMP JUMPDEST JUMPDEST PUSH1 0x1 DUP3 ADD SWAP1 POP SWAP2 SWAP1 POP JUMP JUMPDEST PUSH0 DUP2 SWAP1 POP SWAP3 SWAP2 POP POP JUMP JUMPDEST PUSH32 0x556E646566696E65640000000000000000000000000000000000000000000000 PUSH0 DUP3 ADD MSTORE POP JUMP JUMPDEST PUSH0 PUSH2 0xAD4 PUSH1 0x9 DUP4 PUSH2 0xA96 JUMP JUMPDEST SWAP2 POP PUSH2 0xADF DUP3 PUSH2 0xAA0 JUMP JUMPDEST PUSH1 0x9 DUP3 ADD SWAP1 POP SWAP2 SWAP1 POP JUMP JUMPDEST PUSH0 PUSH2 0xAF4 DUP3 PUSH2 0xAC8 JUMP JUMPDEST SWAP2 POP DUP2 SWAP1 POP SWAP2 SWAP1 POP JUMP JUMPDEST PUSH0 DUP2 SLOAD PUSH2 0xB0A DUP2 PUSH2 0x756 JUMP JUMPDEST PUSH2 0xB14 DUP2 DUP7 PUSH2 0xA96 JUMP JUMPDEST SWAP5 POP PUSH1 0x1 DUP3 AND PUSH0 DUP2 EQ PUSH2 0xB2E JUMPI PUSH1 0x1 DUP2 EQ PUSH2 0xB43 JUMPI PUSH2 0xB75 JUMP JUMPDEST PUSH1 0xFF NOT DUP4 AND DUP7 MSTORE DUP2 ISZERO ISZERO DUP3 MUL DUP7 ADD SWAP4 POP PUSH2 0xB75 JUMP JUMPDEST PUSH2 0xB4C DUP6 PUSH2 0x786 JUMP JUMPDEST PUSH0 JUMPDEST DUP4 DUP2 LT ISZERO PUSH2 0xB6D JUMPI DUP2 SLOAD DUP2 DUP10 ADD MSTORE PUSH1 0x1 DUP3 ADD SWAP2 POP PUSH1 0x20 DUP2 ADD SWAP1 POP PUSH2 0xB4E JUMP JUMPDEST DUP4 DUP9 ADD SWAP6 POP POP POP JUMPDEST POP POP POP SWAP3 SWAP2 POP POP JUMP JUMPDEST PUSH0 PUSH2 0xB89 DUP3 DUP5 PUSH2 0xAFE JUMP JUMPDEST SWAP2 POP DUP2 SWAP1 POP SWAP3 SWAP2 POP POP JUMP INVALID LOG2 PUSH5 0x6970667358 0x22 SLT KECCAK256 DUP13 DUP3 0xC2 BASEFEE PUSH26 0xDFC36DAEF1FD3C84EA96733DA72F816D91D585703F25B0AE8A23 LOG1 PUSH5 0x736F6C6343 STOP ADDMOD 0x1E STOP CALLER "
		},
		"gasEstimates": {
			"creation": {
				"codeDepositCost": "603600",
				"executionCost": "5649",
				"totalCost": "609249"
			},
			"external": {
				"changeStatus(uint256,string)": "infinite",
				"getNames(uint256)": "infinite",
				"isPetitionFull()": "2513",
				"nameCount()": "2513",
				"registerName(string)": "infinite",
				"status(uint256)": "infinite"
			}
		},
		"methodIdentifiers": {
			"changeStatus(uint256,string)": "4558593e",
			"getNames(uint256)": "5718e17b",
			"isPetitionFull()": "66f188b8",
			"nameCount()": "73ff93a2",
			"registerName(string)": "0830602b",
			"status(uint256)": "42d21ef7"
		}
	},
	"abi": [
		{
			"inputs": [],
			"stateMutability": "nonpayable",
			"type": "constructor"
		},
		{
			"inputs": [
				{
					"internalType": "uint256",
					"name": "_id",
					"type": "uint256"
				},
				{
					"internalType": "string",
					"name": "_status",
					"type": "string"
				}
			],
			"name": "changeStatus",
			"outputs": [],
			"stateMutability": "nonpayable",
			"type": "function"
		},
		{
			"inputs": [
				{
					"internalType": "uint256",
					"name": "_id",
					"type": "uint256"
				}
			],
			"name": "getNames",
			"outputs": [
				{
					"internalType": "string",
					"name": "",
					"type": "string"
				}
			],
			"stateMutability": "view",
			"type": "function"
		},
		{
			"inputs": [],
			"name": "isPetitionFull",
			"outputs": [
				{
					"internalType": "bool",
					"name": "",
					"type": "bool"
				}
			],
			"stateMutability": "view",
			"type": "function"
		},
		{
			"inputs": [],
			"name": "nameCount",
			"outputs": [
				{
					"internalType": "uint256",
					"name": "",
					"type": "uint256"
				}
			],
			"stateMutability": "view",
			"type": "function"
		},
		{
			"inputs": [
				{
					"internalType": "string",
					"name": "_name",
					"type": "string"
				}
			],
			"name": "registerName",
			"outputs": [],
			"stateMutability": "nonpayable",
			"type": "function"
		},
		{
			"inputs": [
				{
					"internalType": "uint256",
					"name": "",
					"type": "uint256"
				}
			],
			"name": "status",
			"outputs": [
				{
					"internalType": "string",
					"name": "",
					"type": "string"
				}
			],
			"stateMutability": "view",
			"type": "function"
		}
	]
}